{
  "contractName": "Auction",
  "abi": [
    {
      "inputs": [
        {
          "internalType": "address",
          "name": "_nftContract",
          "type": "address"
        }
      ],
      "stateMutability": "nonpayable",
      "type": "constructor"
    },
    {
      "anonymous": false,
      "inputs": [
        {
          "indexed": false,
          "internalType": "uint256",
          "name": "tokenId",
          "type": "uint256"
        },
        {
          "indexed": false,
          "internalType": "address",
          "name": "winner",
          "type": "address"
        },
        {
          "indexed": false,
          "internalType": "uint256",
          "name": "finalPrice",
          "type": "uint256"
        }
      ],
      "name": "AuctionEnded",
      "type": "event"
    },
    {
      "anonymous": false,
      "inputs": [
        {
          "indexed": true,
          "internalType": "uint256",
          "name": "tokenId",
          "type": "uint256"
        },
        {
          "indexed": false,
          "internalType": "address",
          "name": "seller",
          "type": "address"
        },
        {
          "indexed": false,
          "internalType": "address",
          "name": "owner",
          "type": "address"
        },
        {
          "indexed": false,
          "internalType": "uint256",
          "name": "price",
          "type": "uint256"
        },
        {
          "indexed": false,
          "internalType": "bool",
          "name": "sold",
          "type": "bool"
        }
      ],
      "name": "AuctionItemCreated",
      "type": "event"
    },
    {
      "anonymous": false,
      "inputs": [
        {
          "indexed": false,
          "internalType": "uint256",
          "name": "tokenId",
          "type": "uint256"
        },
        {
          "indexed": false,
          "internalType": "address",
          "name": "bidder",
          "type": "address"
        },
        {
          "indexed": false,
          "internalType": "uint256",
          "name": "amount",
          "type": "uint256"
        }
      ],
      "name": "NewBid",
      "type": "event"
    },
    {
      "inputs": [
        {
          "internalType": "uint256",
          "name": "",
          "type": "uint256"
        }
      ],
      "name": "auctionedItem",
      "outputs": [
        {
          "internalType": "uint256",
          "name": "tokenId",
          "type": "uint256"
        },
        {
          "internalType": "address payable",
          "name": "owner",
          "type": "address"
        },
        {
          "internalType": "address payable",
          "name": "seller",
          "type": "address"
        },
        {
          "internalType": "address",
          "name": "winner",
          "type": "address"
        },
        {
          "internalType": "uint256",
          "name": "price",
          "type": "uint256"
        },
        {
          "internalType": "bool",
          "name": "sold",
          "type": "bool"
        },
        {
          "internalType": "bool",
          "name": "live",
          "type": "bool"
        },
        {
          "internalType": "bool",
          "name": "biddable",
          "type": "bool"
        },
        {
          "internalType": "uint256",
          "name": "bids",
          "type": "uint256"
        },
        {
          "internalType": "uint256",
          "name": "duration",
          "type": "uint256"
        },
        {
          "internalType": "uint256",
          "name": "endTime",
          "type": "uint256"
        },
        {
          "internalType": "uint256",
          "name": "auctionId",
          "type": "uint256"
        }
      ],
      "stateMutability": "view",
      "type": "function"
    },
    {
      "inputs": [
        {
          "internalType": "uint256",
          "name": "",
          "type": "uint256"
        }
      ],
      "name": "auctionedItemExists",
      "outputs": [
        {
          "internalType": "bool",
          "name": "",
          "type": "bool"
        }
      ],
      "stateMutability": "view",
      "type": "function"
    },
    {
      "inputs": [
        {
          "internalType": "uint256",
          "name": "",
          "type": "uint256"
        },
        {
          "internalType": "uint256",
          "name": "",
          "type": "uint256"
        }
      ],
      "name": "biddersOf",
      "outputs": [
        {
          "internalType": "address",
          "name": "bidder",
          "type": "address"
        },
        {
          "internalType": "uint256",
          "name": "bidAmount",
          "type": "uint256"
        },
        {
          "internalType": "uint256",
          "name": "timestamp",
          "type": "uint256"
        },
        {
          "internalType": "bool",
          "name": "refunded",
          "type": "bool"
        },
        {
          "internalType": "bool",
          "name": "won",
          "type": "bool"
        }
      ],
      "stateMutability": "view",
      "type": "function"
    },
    {
      "inputs": [],
      "name": "companyAcc",
      "outputs": [
        {
          "internalType": "address",
          "name": "",
          "type": "address"
        }
      ],
      "stateMutability": "view",
      "type": "function"
    },
    {
      "inputs": [
        {
          "internalType": "string",
          "name": "",
          "type": "string"
        }
      ],
      "name": "existingURIs",
      "outputs": [
        {
          "internalType": "uint256",
          "name": "",
          "type": "uint256"
        }
      ],
      "stateMutability": "view",
      "type": "function"
    },
    {
      "inputs": [],
      "name": "nftContract",
      "outputs": [
        {
          "internalType": "contract NFTAuction",
          "name": "",
          "type": "address"
        }
      ],
      "stateMutability": "view",
      "type": "function"
    },
    {
      "inputs": [],
      "name": "owner",
      "outputs": [
        {
          "internalType": "address payable",
          "name": "",
          "type": "address"
        }
      ],
      "stateMutability": "view",
      "type": "function"
    },
    {
      "inputs": [],
      "name": "royaltyFee",
      "outputs": [
        {
          "internalType": "uint256",
          "name": "",
          "type": "uint256"
        }
      ],
      "stateMutability": "view",
      "type": "function"
    },
    {
      "inputs": [
        {
          "internalType": "uint256",
          "name": "tokenId",
          "type": "uint256"
        },
        {
          "internalType": "uint256",
          "name": "price",
          "type": "uint256"
        },
        {
          "internalType": "uint256",
          "name": "duration",
          "type": "uint256"
        }
      ],
      "name": "createAuction",
      "outputs": [],
      "stateMutability": "nonpayable",
      "type": "function"
    },
    {
      "inputs": [
        {
          "internalType": "uint256",
          "name": "tokenId",
          "type": "uint256"
        }
      ],
      "name": "placeBid",
      "outputs": [],
      "stateMutability": "payable",
      "type": "function"
    },
    {
      "inputs": [
        {
          "internalType": "uint256",
          "name": "tokenId",
          "type": "uint256"
        }
      ],
      "name": "claimPrize",
      "outputs": [],
      "stateMutability": "nonpayable",
      "type": "function"
    },
    {
      "inputs": [
        {
          "internalType": "uint256",
          "name": "tokenId",
          "type": "uint256"
        }
      ],
      "name": "getAuctionStatus",
      "outputs": [
        {
          "internalType": "bool",
          "name": "isLive",
          "type": "bool"
        },
        {
          "internalType": "bool",
          "name": "isSold",
          "type": "bool"
        },
        {
          "internalType": "uint256",
          "name": "currentPrice",
          "type": "uint256"
        },
        {
          "internalType": "address",
          "name": "currentWinner",
          "type": "address"
        },
        {
          "internalType": "uint256",
          "name": "timeRemaining",
          "type": "uint256"
        },
        {
          "internalType": "uint256",
          "name": "totalBids",
          "type": "uint256"
        }
      ],
      "stateMutability": "view",
      "type": "function"
    },
    {
      "inputs": [],
      "name": "getActiveAuctions",
      "outputs": [
        {
          "components": [
            {
              "internalType": "uint256",
              "name": "tokenId",
              "type": "uint256"
            },
            {
              "internalType": "address payable",
              "name": "owner",
              "type": "address"
            },
            {
              "internalType": "address payable",
              "name": "seller",
              "type": "address"
            },
            {
              "internalType": "address",
              "name": "winner",
              "type": "address"
            },
            {
              "internalType": "uint256",
              "name": "price",
              "type": "uint256"
            },
            {
              "internalType": "bool",
              "name": "sold",
              "type": "bool"
            },
            {
              "internalType": "bool",
              "name": "live",
              "type": "bool"
            },
            {
              "internalType": "bool",
              "name": "biddable",
              "type": "bool"
            },
            {
              "internalType": "uint256",
              "name": "bids",
              "type": "uint256"
            },
            {
              "internalType": "uint256",
              "name": "duration",
              "type": "uint256"
            },
            {
              "internalType": "uint256",
              "name": "endTime",
              "type": "uint256"
            },
            {
              "internalType": "uint256",
              "name": "auctionId",
              "type": "uint256"
            }
          ],
          "internalType": "struct Auction.AuctionStruct[]",
          "name": "",
          "type": "tuple[]"
        }
      ],
      "stateMutability": "view",
      "type": "function"
    },
    {
      "inputs": [
        {
          "internalType": "uint256",
          "name": "tokenId",
          "type": "uint256"
        }
      ],
      "name": "getAuctionDetails",
      "outputs": [
        {
          "components": [
            {
              "internalType": "uint256",
              "name": "tokenId",
              "type": "uint256"
            },
            {
              "internalType": "address payable",
              "name": "owner",
              "type": "address"
            },
            {
              "internalType": "address payable",
              "name": "seller",
              "type": "address"
            },
            {
              "internalType": "address",
              "name": "winner",
              "type": "address"
            },
            {
              "internalType": "uint256",
              "name": "price",
              "type": "uint256"
            },
            {
              "internalType": "bool",
              "name": "sold",
              "type": "bool"
            },
            {
              "internalType": "bool",
              "name": "live",
              "type": "bool"
            },
            {
              "internalType": "bool",
              "name": "biddable",
              "type": "bool"
            },
            {
              "internalType": "uint256",
              "name": "bids",
              "type": "uint256"
            },
            {
              "internalType": "uint256",
              "name": "duration",
              "type": "uint256"
            },
            {
              "internalType": "uint256",
              "name": "endTime",
              "type": "uint256"
            },
            {
              "internalType": "uint256",
              "name": "auctionId",
              "type": "uint256"
            }
          ],
          "internalType": "struct Auction.AuctionStruct",
          "name": "",
          "type": "tuple"
        }
      ],
      "stateMutability": "view",
      "type": "function"
    },
    {
      "inputs": [
        {
          "internalType": "uint256",
          "name": "tokenId",
          "type": "uint256"
        }
      ],
      "name": "getBidders",
      "outputs": [
        {
          "components": [
            {
              "internalType": "address",
              "name": "bidder",
              "type": "address"
            },
            {
              "internalType": "uint256",
              "name": "bidAmount",
              "type": "uint256"
            },
            {
              "internalType": "uint256",
              "name": "timestamp",
              "type": "uint256"
            },
            {
              "internalType": "bool",
              "name": "refunded",
              "type": "bool"
            },
            {
              "internalType": "bool",
              "name": "won",
              "type": "bool"
            }
          ],
          "internalType": "struct Auction.BidderStruct[]",
          "name": "",
          "type": "tuple[]"
        }
      ],
      "stateMutability": "view",
      "type": "function"
    },
    {
      "inputs": [],
      "name": "getCompletedAuctions",
      "outputs": [
        {
          "components": [
            {
              "internalType": "uint256",
              "name": "tokenId",
              "type": "uint256"
            },
            {
              "internalType": "address payable",
              "name": "owner",
              "type": "address"
            },
            {
              "internalType": "address payable",
              "name": "seller",
              "type": "address"
            },
            {
              "internalType": "address",
              "name": "winner",
              "type": "address"
            },
            {
              "internalType": "uint256",
              "name": "price",
              "type": "uint256"
            },
            {
              "internalType": "bool",
              "name": "sold",
              "type": "bool"
            },
            {
              "internalType": "bool",
              "name": "live",
              "type": "bool"
            },
            {
              "internalType": "bool",
              "name": "biddable",
              "type": "bool"
            },
            {
              "internalType": "uint256",
              "name": "bids",
              "type": "uint256"
            },
            {
              "internalType": "uint256",
              "name": "duration",
              "type": "uint256"
            },
            {
              "internalType": "uint256",
              "name": "endTime",
              "type": "uint256"
            },
            {
              "internalType": "uint256",
              "name": "auctionId",
              "type": "uint256"
            }
          ],
          "internalType": "struct Auction.AuctionStruct[]",
          "name": "",
          "type": "tuple[]"
        }
      ],
      "stateMutability": "view",
      "type": "function"
    }
  ],
  "bytecode": "0x60806040523480156200001157600080fd5b506040516200490c3803806200490c833981810160405281019062000037919062000132565b600160008190555080600460006101000a81548173ffffffffffffffffffffffffffffffffffffffff021916908373ffffffffffffffffffffffffffffffffffffffff16021790555033600160006101000a81548173ffffffffffffffffffffffffffffffffffffffff021916908373ffffffffffffffffffffffffffffffffffffffff1602179055505062000164565b600080fd5b600073ffffffffffffffffffffffffffffffffffffffff82169050919050565b6000620000fa82620000cd565b9050919050565b6200010c81620000ed565b81146200011857600080fd5b50565b6000815190506200012c8162000101565b92915050565b6000602082840312156200014b576200014a620000c8565b5b60006200015b848285016200011b565b91505092915050565b61479880620001746000396000f3fe6080604052600436106100f35760003560e01c8063cf44b5d51161008a578063e154e0d011610059578063e154e0d01461032f578063ea6bc91b1461036c578063f20e5e35146103ad578063f37971df146103ea576100f3565b8063cf44b5d514610285578063d36acc39146102b0578063d56d229d146102db578063d709815414610306576100f3565b80639979ef45116100c65780639979ef45146101ea578063b8997a9714610206578063cb7b43ef14610231578063cda4beef1461025c576100f3565b806308c41169146100f85780634fa7b507146101405780637765c52c1461017d5780638da5cb5b146101bf575b600080fd5b34801561010457600080fd5b5061011f600480360381019061011a9190612f18565b610427565b6040516101379c9b9a99989796959493929190612fd1565b60405180910390f35b34801561014c57600080fd5b5061016760048036038101906101629190612f18565b61050e565b60405161017491906131cf565b60405180910390f35b34801561018957600080fd5b506101a4600480360381019061019f9190612f18565b610680565b6040516101b6969594939291906131f1565b60405180910390f35b3480156101cb57600080fd5b506101d461078d565b6040516101e19190613252565b60405180910390f35b61020460048036038101906101ff9190612f18565b6107b3565b005b34801561021257600080fd5b5061021b610f5f565b604051610228919061326d565b60405180910390f35b34801561023d57600080fd5b50610246610f65565b604051610253919061343d565b60405180910390f35b34801561026857600080fd5b50610283600480360381019061027e919061345f565b6112ab565b005b34801561029157600080fd5b5061029a611a8a565b6040516102a7919061343d565b60405180910390f35b3480156102bc57600080fd5b506102c5611e18565b6040516102d291906134b2565b60405180910390f35b3480156102e757600080fd5b506102f0611e3e565b6040516102fd919061352c565b60405180910390f35b34801561031257600080fd5b5061032d60048036038101906103289190612f18565b611e64565b005b34801561033b57600080fd5b5061035660048036038101906103519190612f18565b6129c0565b6040516103639190613547565b60405180910390f35b34801561037857600080fd5b50610393600480360381019061038e9190613562565b6129e0565b6040516103a49594939291906135a2565b60405180910390f35b3480156103b957600080fd5b506103d460048036038101906103cf9190612f18565b612a6d565b6040516103e191906136eb565b60405180910390f35b3480156103f657600080fd5b50610411600480360381019061040c919061384d565b612c8a565b60405161041e919061326d565b60405180910390f35b60066020528060005260406000206000915090508060000154908060010160009054906101000a900473ffffffffffffffffffffffffffffffffffffffff16908060020160009054906101000a900473ffffffffffffffffffffffffffffffffffffffff16908060030160009054906101000a900473ffffffffffffffffffffffffffffffffffffffff16908060040154908060050160009054906101000a900460ff16908060050160019054906101000a900460ff16908060050160029054906101000a900460ff1690806006015490806007015490806008015490806009015490508c565b60606007600083815260200190815260200160002060009054906101000a900460ff16610570576040517f08c379a0000000000000000000000000000000000000000000000000000000008152600401610567906138f3565b60405180910390fd5b60096000838152602001908152602001600020805480602002602001604051908101604052809291908181526020016000905b8282101561067557838290600052602060002090600402016040518060a00160405290816000820160009054906101000a900473ffffffffffffffffffffffffffffffffffffffff1673ffffffffffffffffffffffffffffffffffffffff1673ffffffffffffffffffffffffffffffffffffffff16815260200160018201548152602001600282015481526020016003820160009054906101000a900460ff161515151581526020016003820160019054906101000a900460ff161515151581525050815260200190600101906105a3565b505050509050919050565b6000806000806000806007600088815260200190815260200160002060009054906101000a900460ff166106e9576040517f08c379a00000000000000000000000000000000000000000000000000000000081526004016106e0906138f3565b60405180910390fd5b60006006600089815260200190815260200160002090508060050160019054906101000a900460ff1696508060050160009054906101000a900460ff169550806004015494508060030160009054906101000a900473ffffffffffffffffffffffffffffffffffffffff1693508060080154421015610777574281600801546107729190613942565b61077a565b60005b9250806006015491505091939550919395565b600160009054906101000a900473ffffffffffffffffffffffffffffffffffffffff1681565b6107bb612cb8565b6007600082815260200190815260200160002060009054906101000a900460ff1661081b576040517f08c379a0000000000000000000000000000000000000000000000000000000008152600401610812906138f3565b60405180910390fd5b6006600082815260200190815260200160002060050160019054906101000a900460ff1661087e576040517f08c379a0000000000000000000000000000000000000000000000000000000008152600401610875906139c2565b60405180910390fd5b6006600082815260200190815260200160002060050160029054906101000a900460ff166108e1576040517f08c379a00000000000000000000000000000000000000000000000000000000081526004016108d890613a54565b60405180910390fd5b60066000828152602001908152602001600020600801544210610939576040517f08c379a000000000000000000000000000000000000000000000000000000000815260040161093090613ac0565b60405180910390fd5b6006600082815260200190815260200160002060020160009054906101000a900473ffffffffffffffffffffffffffffffffffffffff1673ffffffffffffffffffffffffffffffffffffffff163373ffffffffffffffffffffffffffffffffffffffff16036109dd576040517f08c379a00000000000000000000000000000000000000000000000000000000081526004016109d490613b52565b60405180910390fd5b60066000828152602001908152602001600020600401543411610a35576040517f08c379a0000000000000000000000000000000000000000000000000000000008152600401610a2c90613be4565b60405180910390fd5b60006006600083815260200190815260200160002060030160009054906101000a900473ffffffffffffffffffffffffffffffffffffffff169050600060066000848152602001908152602001600020600401549050610a93612ddc565b33816000019073ffffffffffffffffffffffffffffffffffffffff16908173ffffffffffffffffffffffffffffffffffffffff16815250503481602001818152505042816040018181525050600081606001901515908115158152505060008160800190151590811515815250506009600085815260200190815260200160002081908060018154018082558091505060019003906000526020600020906004020160009091909190915060008201518160000160006101000a81548173ffffffffffffffffffffffffffffffffffffffff021916908373ffffffffffffffffffffffffffffffffffffffff160217905550602082015181600101556040820151816002015560608201518160030160006101000a81548160ff02191690831515021790555060808201518160030160016101000a81548160ff02191690831515021790555050506001600660008681526020019081526020016000206006016000828254610c029190613c04565b92505081905550346006600086815260200190815260200160002060040181905550336006600086815260200190815260200160002060030160006101000a81548173ffffffffffffffffffffffffffffffffffffffff021916908373ffffffffffffffffffffffffffffffffffffffff160217905550600073ffffffffffffffffffffffffffffffffffffffff168373ffffffffffffffffffffffffffffffffffffffff1614158015610cb65750600082115b15610f165760005b60016009600087815260200190815260200160002080549050610ce19190613942565b811015610e67578373ffffffffffffffffffffffffffffffffffffffff16600960008781526020019081526020016000208281548110610d2457610d23613c38565b5b906000526020600020906004020160000160009054906101000a900473ffffffffffffffffffffffffffffffffffffffff1673ffffffffffffffffffffffffffffffffffffffff16148015610dae575082600960008781526020019081526020016000208281548110610d9a57610d99613c38565b5b906000526020600020906004020160010154145b8015610dfb5750600960008681526020019081526020016000208181548110610dda57610dd9613c38565b5b906000526020600020906004020160030160009054906101000a900460ff16155b15610e54576001600960008781526020019081526020016000208281548110610e2757610e26613c38565b5b906000526020600020906004020160030160006101000a81548160ff021916908315150217905550610e67565b8080610e5f90613c67565b915050610cbe565b5060008373ffffffffffffffffffffffffffffffffffffffff1683604051610e8e90613ce0565b60006040518083038185875af1925050503d8060008114610ecb576040519150601f19603f3d011682016040523d82523d6000602084013e610ed0565b606091505b5050905080610f14576040517f08c379a0000000000000000000000000000000000000000000000000000000008152600401610f0b90613d41565b60405180910390fd5b505b7f558a0d5d5468d74b0db24c74eb348b42271c2ebb4c9e953ced38aaed95fa4361843334604051610f4993929190613d61565b60405180910390a1505050610f5c612d07565b50565b60035481565b60606000805b600b80549050811015610fec576007600082815260200190815260200160002060009054906101000a900460ff168015610fc557506006600082815260200190815260200160002060050160009054906101000a900460ff165b15610fd9578180610fd590613c67565b9250505b8080610fe490613c67565b915050610f6b565b5060008167ffffffffffffffff81111561100957611008613722565b5b60405190808252806020026020018201604052801561104257816020015b61102f612e25565b8152602001906001900390816110275790505b5090506000805b600b805490508110801561105c57508382105b156112a1576007600082815260200190815260200160002060009054906101000a900460ff1680156110ae57506006600082815260200190815260200160002060050160009054906101000a900460ff165b1561128e576006600082815260200190815260200160002060405180610180016040529081600082015481526020016001820160009054906101000a900473ffffffffffffffffffffffffffffffffffffffff1673ffffffffffffffffffffffffffffffffffffffff1673ffffffffffffffffffffffffffffffffffffffff1681526020016002820160009054906101000a900473ffffffffffffffffffffffffffffffffffffffff1673ffffffffffffffffffffffffffffffffffffffff1673ffffffffffffffffffffffffffffffffffffffff1681526020016003820160009054906101000a900473ffffffffffffffffffffffffffffffffffffffff1673ffffffffffffffffffffffffffffffffffffffff1673ffffffffffffffffffffffffffffffffffffffff168152602001600482015481526020016005820160009054906101000a900460ff161515151581526020016005820160019054906101000a900460ff161515151581526020016005820160029054906101000a900460ff1615151515815260200160068201548152602001600782015481526020016008820154815260200160098201548152505083838151811061127457611273613c38565b5b6020026020010181905250818061128a90613c67565b9250505b808061129990613c67565b915050611049565b5081935050505090565b6112b3612cb8565b6000600460009054906101000a900473ffffffffffffffffffffffffffffffffffffffff1673ffffffffffffffffffffffffffffffffffffffff16638e264590856040518263ffffffff1660e01b8152600401611310919061326d565b60a060405180830381865afa15801561132d573d6000803e3d6000fd5b505050506040513d601f19601f820116820180604052508101906113519190613e96565b90503373ffffffffffffffffffffffffffffffffffffffff16816040015173ffffffffffffffffffffffffffffffffffffffff1614806113de5750600460009054906101000a900473ffffffffffffffffffffffffffffffffffffffff1673ffffffffffffffffffffffffffffffffffffffff163373ffffffffffffffffffffffffffffffffffffffff16145b806114af57503073ffffffffffffffffffffffffffffffffffffffff16600460009054906101000a900473ffffffffffffffffffffffffffffffffffffffff1673ffffffffffffffffffffffffffffffffffffffff1663081812fc866040518263ffffffff1660e01b8152600401611456919061326d565b602060405180830381865afa158015611473573d6000803e3d6000fd5b505050506040513d601f19601f820116820180604052508101906114979190613eef565b73ffffffffffffffffffffffffffffffffffffffff16145b6114ee576040517f08c379a00000000000000000000000000000000000000000000000000000000081526004016114e590613f8e565b60405180910390fd5b60008311611531576040517f08c379a000000000000000000000000000000000000000000000000000000000815260040161152890613ffa565b60405180910390fd5b60008211611574576040517f08c379a000000000000000000000000000000000000000000000000000000000815260040161156b9061408c565b60405180910390fd5b6007600085815260200190815260200160002060009054906101000a900460ff1615806115c257506006600085815260200190815260200160002060050160019054906101000a900460ff16155b611601576040517f08c379a00000000000000000000000000000000000000000000000000000000081526004016115f89061411e565b60405180910390fd5b611609612e25565b848160000181815250508160400151816040019073ffffffffffffffffffffffffffffffffffffffff16908173ffffffffffffffffffffffffffffffffffffffff1681525050600460009054906101000a900473ffffffffffffffffffffffffffffffffffffffff16816020019073ffffffffffffffffffffffffffffffffffffffff16908173ffffffffffffffffffffffffffffffffffffffff168152505083816080018181525050828161012001818152505082426116ca9190613c04565b81610140018181525050848161016001818152505080600660008781526020019081526020016000206000820151816000015560208201518160010160006101000a81548173ffffffffffffffffffffffffffffffffffffffff021916908373ffffffffffffffffffffffffffffffffffffffff16021790555060408201518160020160006101000a81548173ffffffffffffffffffffffffffffffffffffffff021916908373ffffffffffffffffffffffffffffffffffffffff16021790555060608201518160030160006101000a81548173ffffffffffffffffffffffffffffffffffffffff021916908373ffffffffffffffffffffffffffffffffffffffff1602179055506080820151816004015560a08201518160050160006101000a81548160ff02191690831515021790555060c08201518160050160016101000a81548160ff02191690831515021790555060e08201518160050160026101000a81548160ff021916908315150217905550610100820151816006015561012082015181600701556101408201518160080155610160820151816009015590505060016007600087815260200190815260200160002060006101000a81548160ff0219169083151502179055506006600086815260200190815260200160002060050160019054906101000a900460ff16611a1657600460009054906101000a900473ffffffffffffffffffffffffffffffffffffffff1673ffffffffffffffffffffffffffffffffffffffff166323b872dd600460009054906101000a900473ffffffffffffffffffffffffffffffffffffffff1630886040518463ffffffff1660e01b81526004016119409392919061413e565b600060405180830381600087803b15801561195a57600080fd5b505af115801561196e573d6000803e3d6000fd5b505050506000600660008781526020019081526020016000206006018190555060016006600087815260200190815260200160002060050160016101000a81548160ff02191690831515021790555060016006600087815260200190815260200160002060050160026101000a81548160ff021916908315150217905550600a8590806001815401808255809150506001900390600052602060002001600090919091909150555b847fa693a8f68fe4df789541ddd1b84d32ccaea90adddcc88406b4bbbf6466328d3c8360400151600460009054906101000a900473ffffffffffffffffffffffffffffffffffffffff16876000604051611a739493929190614196565b60405180910390a25050611a85612d07565b505050565b60606000805b600a80549050811015611b35576000600a8281548110611ab357611ab2613c38565b5b906000526020600020015490506007600082815260200190815260200160002060009054906101000a900460ff168015611b0d57506006600082815260200190815260200160002060050160019054906101000a900460ff165b15611b21578280611b1d90613c67565b9350505b508080611b2d90613c67565b915050611a90565b5060008167ffffffffffffffff811115611b5257611b51613722565b5b604051908082528060200260200182016040528015611b8b57816020015b611b78612e25565b815260200190600190039081611b705790505b5090506000805b600a8054905081108015611ba557508382105b15611e0e576000600a8281548110611bc057611bbf613c38565b5b906000526020600020015490506007600082815260200190815260200160002060009054906101000a900460ff168015611c1a57506006600082815260200190815260200160002060050160019054906101000a900460ff165b15611dfa576006600082815260200190815260200160002060405180610180016040529081600082015481526020016001820160009054906101000a900473ffffffffffffffffffffffffffffffffffffffff1673ffffffffffffffffffffffffffffffffffffffff1673ffffffffffffffffffffffffffffffffffffffff1681526020016002820160009054906101000a900473ffffffffffffffffffffffffffffffffffffffff1673ffffffffffffffffffffffffffffffffffffffff1673ffffffffffffffffffffffffffffffffffffffff1681526020016003820160009054906101000a900473ffffffffffffffffffffffffffffffffffffffff1673ffffffffffffffffffffffffffffffffffffffff1673ffffffffffffffffffffffffffffffffffffffff168152602001600482015481526020016005820160009054906101000a900460ff161515151581526020016005820160019054906101000a900460ff161515151581526020016005820160029054906101000a900460ff16151515158152602001600682015481526020016007820154815260200160088201548152602001600982015481525050848481518110611de057611ddf613c38565b5b60200260200101819052508280611df690613c67565b9350505b508080611e0690613c67565b915050611b92565b5081935050505090565b600260009054906101000a900473ffffffffffffffffffffffffffffffffffffffff1681565b600460009054906101000a900473ffffffffffffffffffffffffffffffffffffffff1681565b611e6c612cb8565b6007600082815260200190815260200160002060009054906101000a900460ff16611ecc576040517f08c379a0000000000000000000000000000000000000000000000000000000008152600401611ec3906138f3565b60405180910390fd5b6006600082815260200190815260200160002060050160019054906101000a900460ff16611f2f576040517f08c379a0000000000000000000000000000000000000000000000000000000008152600401611f269061424d565b60405180910390fd5b3373ffffffffffffffffffffffffffffffffffffffff166006600083815260200190815260200160002060030160009054906101000a900473ffffffffffffffffffffffffffffffffffffffff1673ffffffffffffffffffffffffffffffffffffffff1614611fd3576040517f08c379a0000000000000000000000000000000000000000000000000000000008152600401611fca906142df565b60405180910390fd5b600073ffffffffffffffffffffffffffffffffffffffff166006600083815260200190815260200160002060030160009054906101000a900473ffffffffffffffffffffffffffffffffffffffff1673ffffffffffffffffffffffffffffffffffffffff1603612078576040517f08c379a000000000000000000000000000000000000000000000000000000000815260040161206f9061434b565b60405180910390fd5b60006006600083815260200190815260200160002060040154905060006006600084815260200190815260200160002060020160009054906101000a900473ffffffffffffffffffffffffffffffffffffffff16905060006006600085815260200190815260200160002060010160009054906101000a900473ffffffffffffffffffffffffffffffffffffffff16905060006006600086815260200190815260200160002060050160016101000a81548160ff02191690831515021790555060016006600086815260200190815260200160002060050160006101000a81548160ff02191690831515021790555060006006600086815260200190815260200160002060050160026101000a81548160ff02191690831515021790555061219f84612d11565b600b84908060018154018082558091505060019003906000526020600020016000909190919091505560005b600960008681526020019081526020016000208054905081101561231b573373ffffffffffffffffffffffffffffffffffffffff1660096000878152602001908152602001600020828154811061222557612224613c38565b5b906000526020600020906004020160000160009054906101000a900473ffffffffffffffffffffffffffffffffffffffff1673ffffffffffffffffffffffffffffffffffffffff161480156122af57508360096000878152602001908152602001600020828154811061229b5761229a613c38565b5b906000526020600020906004020160010154145b156123085760016009600087815260200190815260200160002082815481106122db576122da613c38565b5b906000526020600020906004020160030160016101000a81548160ff02191690831515021790555061231b565b808061231390613c67565b9150506121cb565b50600060646003548561232e919061436b565b61233891906143dc565b9050600081856123489190613942565b9050600460009054906101000a900473ffffffffffffffffffffffffffffffffffffffff1673ffffffffffffffffffffffffffffffffffffffff16636352211e876040518263ffffffff1660e01b81526004016123a5919061326d565b602060405180830381865afa9250505080156123df57506040513d601f19601f820116820180604052508101906123dc9190613eef565b60015b61241e576040517f08c379a00000000000000000000000000000000000000000000000000000000081526004016124159061447f565b60405180910390fd5b3073ffffffffffffffffffffffffffffffffffffffff168173ffffffffffffffffffffffffffffffffffffffff161461248c576040517f08c379a000000000000000000000000000000000000000000000000000000000815260040161248390614511565b60405180910390fd5b50600460009054906101000a900473ffffffffffffffffffffffffffffffffffffffff1673ffffffffffffffffffffffffffffffffffffffff166323b872dd3033896040518463ffffffff1660e01b81526004016124ec9392919061413e565b600060405180830381600087803b15801561250657600080fd5b505af1925050508015612517575060015b6126655760016006600088815260200190815260200160002060050160016101000a81548160ff02191690831515021790555060006006600088815260200190815260200160002060050160006101000a81548160ff02191690831515021790555060016006600088815260200190815260200160002060050160026101000a81548160ff0219169083151502179055506000805b600a805490508110156125fa5787600a82815481106125ce576125cd613c38565b5b9060005260206000200154036125e757600191506125fa565b80806125f290613c67565b9150506125ac565b508061262a57600a8790806001815401808255809150506001900390600052602060002001600090919091909150555b6040517f08c379a000000000000000000000000000000000000000000000000000000000815260040161265c9061457d565b60405180910390fd5b336006600088815260200190815260200160002060010160006101000a81548173ffffffffffffffffffffffffffffffffffffffff021916908373ffffffffffffffffffffffffffffffffffffffff160217905550600460009054906101000a900473ffffffffffffffffffffffffffffffffffffffff1673ffffffffffffffffffffffffffffffffffffffff16637192711f87336040518363ffffffff1660e01b815260040161271792919061459d565b600060405180830381600087803b15801561273157600080fd5b505af1158015612745573d6000803e3d6000fd5b50505050600460009054906101000a900473ffffffffffffffffffffffffffffffffffffffff1673ffffffffffffffffffffffffffffffffffffffff166382367b2d87876040518363ffffffff1660e01b81526004016127a69291906145c6565b600060405180830381600087803b1580156127c057600080fd5b505af11580156127d4573d6000803e3d6000fd5b5050505060008473ffffffffffffffffffffffffffffffffffffffff16826040516127fe90613ce0565b60006040518083038185875af1925050503d806000811461283b576040519150601f19603f3d011682016040523d82523d6000602084013e612840565b606091505b5050905080612884576040517f08c379a000000000000000000000000000000000000000000000000000000000815260040161287b9061463b565b60405180910390fd5b6000831180156128c15750600073ffffffffffffffffffffffffffffffffffffffff168473ffffffffffffffffffffffffffffffffffffffff1614155b156129745760008473ffffffffffffffffffffffffffffffffffffffff16846040516128ec90613ce0565b60006040518083038185875af1925050503d8060008114612929576040519150601f19603f3d011682016040523d82523d6000602084013e61292e565b606091505b5050905080612972576040517f08c379a0000000000000000000000000000000000000000000000000000000008152600401612969906146a7565b60405180910390fd5b505b7fd2aa34a4fdbbc6dff6a3e56f46e0f3ae2a31d7785ff3487aa5c95c642acea5018733886040516129a793929190613d61565b60405180910390a15050505050506129bd612d07565b50565b60076020528060005260406000206000915054906101000a900460ff1681565b600960205281600052604060002081815481106129fc57600080fd5b9060005260206000209060040201600091509150508060000160009054906101000a900473ffffffffffffffffffffffffffffffffffffffff16908060010154908060020154908060030160009054906101000a900460ff16908060030160019054906101000a900460ff16905085565b612a75612e25565b6007600083815260200190815260200160002060009054906101000a900460ff16612ad5576040517f08c379a0000000000000000000000000000000000000000000000000000000008152600401612acc906138f3565b60405180910390fd5b6006600083815260200190815260200160002060405180610180016040529081600082015481526020016001820160009054906101000a900473ffffffffffffffffffffffffffffffffffffffff1673ffffffffffffffffffffffffffffffffffffffff1673ffffffffffffffffffffffffffffffffffffffff1681526020016002820160009054906101000a900473ffffffffffffffffffffffffffffffffffffffff1673ffffffffffffffffffffffffffffffffffffffff1673ffffffffffffffffffffffffffffffffffffffff1681526020016003820160009054906101000a900473ffffffffffffffffffffffffffffffffffffffff1673ffffffffffffffffffffffffffffffffffffffff1673ffffffffffffffffffffffffffffffffffffffff168152602001600482015481526020016005820160009054906101000a900460ff161515151581526020016005820160019054906101000a900460ff161515151581526020016005820160029054906101000a900460ff161515151581526020016006820154815260200160078201548152602001600882015481526020016009820154815250509050919050565b6008818051602081018201805184825260208301602085012081835280955050505050506000915090505481565b600260005403612cfd576040517f08c379a0000000000000000000000000000000000000000000000000000000008152600401612cf490614713565b60405180910390fd5b6002600081905550565b6001600081905550565b60005b600a80549050811015612dd85781600a8281548110612d3657612d35613c38565b5b906000526020600020015403612dc557600a6001600a80549050612d5a9190613942565b81548110612d6b57612d6a613c38565b5b9060005260206000200154600a8281548110612d8a57612d89613c38565b5b9060005260206000200181905550600a805480612daa57612da9614733565b5b60019003818190600052602060002001600090559055612dd8565b8080612dd090613c67565b915050612d14565b5050565b6040518060a00160405280600073ffffffffffffffffffffffffffffffffffffffff16815260200160008152602001600081526020016000151581526020016000151581525090565b60405180610180016040528060008152602001600073ffffffffffffffffffffffffffffffffffffffff168152602001600073ffffffffffffffffffffffffffffffffffffffff168152602001600073ffffffffffffffffffffffffffffffffffffffff16815260200160008152602001600015158152602001600015158152602001600015158152602001600081526020016000815260200160008152602001600081525090565b6000604051905090565b600080fd5b600080fd5b6000819050919050565b612ef581612ee2565b8114612f0057600080fd5b50565b600081359050612f1281612eec565b92915050565b600060208284031215612f2e57612f2d612ed8565b5b6000612f3c84828501612f03565b91505092915050565b612f4e81612ee2565b82525050565b600073ffffffffffffffffffffffffffffffffffffffff82169050919050565b6000612f7f82612f54565b9050919050565b612f8f81612f74565b82525050565b6000612fa082612f54565b9050919050565b612fb081612f95565b82525050565b60008115159050919050565b612fcb81612fb6565b82525050565b600061018082019050612fe7600083018f612f45565b612ff4602083018e612f86565b613001604083018d612f86565b61300e606083018c612fa7565b61301b608083018b612f45565b61302860a083018a612fc2565b61303560c0830189612fc2565b61304260e0830188612fc2565b613050610100830187612f45565b61305e610120830186612f45565b61306c610140830185612f45565b61307a610160830184612f45565b9d9c50505050505050505050505050565b600081519050919050565b600082825260208201905092915050565b6000819050602082019050919050565b6130c081612f95565b82525050565b6130cf81612ee2565b82525050565b6130de81612fb6565b82525050565b60a0820160008201516130fa60008501826130b7565b50602082015161310d60208501826130c6565b50604082015161312060408501826130c6565b50606082015161313360608501826130d5565b50608082015161314660808501826130d5565b50505050565b600061315883836130e4565b60a08301905092915050565b6000602082019050919050565b600061317c8261308b565b6131868185613096565b9350613191836130a7565b8060005b838110156131c25781516131a9888261314c565b97506131b483613164565b925050600181019050613195565b5085935050505092915050565b600060208201905081810360008301526131e98184613171565b905092915050565b600060c0820190506132066000830189612fc2565b6132136020830188612fc2565b6132206040830187612f45565b61322d6060830186612fa7565b61323a6080830185612f45565b61324760a0830184612f45565b979650505050505050565b60006020820190506132676000830184612f86565b92915050565b60006020820190506132826000830184612f45565b92915050565b600081519050919050565b600082825260208201905092915050565b6000819050602082019050919050565b6132bd81612f74565b82525050565b610180820160008201516132da60008501826130c6565b5060208201516132ed60208501826132b4565b50604082015161330060408501826132b4565b50606082015161331360608501826130b7565b50608082015161332660808501826130c6565b5060a082015161333960a08501826130d5565b5060c082015161334c60c08501826130d5565b5060e082015161335f60e08501826130d5565b506101008201516133746101008501826130c6565b506101208201516133896101208501826130c6565b5061014082015161339e6101408501826130c6565b506101608201516133b36101608501826130c6565b50505050565b60006133c583836132c3565b6101808301905092915050565b6000602082019050919050565b60006133ea82613288565b6133f48185613293565b93506133ff836132a4565b8060005b8381101561343057815161341788826133b9565b9750613422836133d2565b925050600181019050613403565b5085935050505092915050565b6000602082019050818103600083015261345781846133df565b905092915050565b60008060006060848603121561347857613477612ed8565b5b600061348686828701612f03565b935050602061349786828701612f03565b92505060406134a886828701612f03565b9150509250925092565b60006020820190506134c76000830184612fa7565b92915050565b6000819050919050565b60006134f26134ed6134e884612f54565b6134cd565b612f54565b9050919050565b6000613504826134d7565b9050919050565b6000613516826134f9565b9050919050565b6135268161350b565b82525050565b6000602082019050613541600083018461351d565b92915050565b600060208201905061355c6000830184612fc2565b92915050565b6000806040838503121561357957613578612ed8565b5b600061358785828601612f03565b925050602061359885828601612f03565b9150509250929050565b600060a0820190506135b76000830188612fa7565b6135c46020830187612f45565b6135d16040830186612f45565b6135de6060830185612fc2565b6135eb6080830184612fc2565b9695505050505050565b6101808201600082015161360c60008501826130c6565b50602082015161361f60208501826132b4565b50604082015161363260408501826132b4565b50606082015161364560608501826130b7565b50608082015161365860808501826130c6565b5060a082015161366b60a08501826130d5565b5060c082015161367e60c08501826130d5565b5060e082015161369160e08501826130d5565b506101008201516136a66101008501826130c6565b506101208201516136bb6101208501826130c6565b506101408201516136d06101408501826130c6565b506101608201516136e56101608501826130c6565b50505050565b60006101808201905061370160008301846135f5565b92915050565b600080fd5b600080fd5b6000601f19601f8301169050919050565b7f4e487b7100000000000000000000000000000000000000000000000000000000600052604160045260246000fd5b61375a82613711565b810181811067ffffffffffffffff8211171561377957613778613722565b5b80604052505050565b600061378c612ece565b90506137988282613751565b919050565b600067ffffffffffffffff8211156137b8576137b7613722565b5b6137c182613711565b9050602081019050919050565b82818337600083830152505050565b60006137f06137eb8461379d565b613782565b90508281526020810184848401111561380c5761380b61370c565b5b6138178482856137ce565b509392505050565b600082601f83011261383457613833613707565b5b81356138448482602086016137dd565b91505092915050565b60006020828403121561386357613862612ed8565b5b600082013567ffffffffffffffff81111561388157613880612edd565b5b61388d8482850161381f565b91505092915050565b600082825260208201905092915050565b7f41756374696f6e20646f6573206e6f7420657869737400000000000000000000600082015250565b60006138dd601683613896565b91506138e8826138a7565b602082019050919050565b6000602082019050818103600083015261390c816138d0565b9050919050565b7f4e487b7100000000000000000000000000000000000000000000000000000000600052601160045260246000fd5b600061394d82612ee2565b915061395883612ee2565b92508282039050818111156139705761396f613913565b5b92915050565b7f41756374696f6e206973206e6f74206c69766500000000000000000000000000600082015250565b60006139ac601383613896565b91506139b782613976565b602082019050919050565b600060208201905081810360008301526139db8161399f565b9050919050565b7f42696464696e67206973206e6f7420616c6c6f77656420666f7220746869732060008201527f61756374696f6e00000000000000000000000000000000000000000000000000602082015250565b6000613a3e602783613896565b9150613a49826139e2565b604082019050919050565b60006020820190508181036000830152613a6d81613a31565b9050919050565b7f41756374696f6e2068617320656e646564000000000000000000000000000000600082015250565b6000613aaa601183613896565b9150613ab582613a74565b602082019050919050565b60006020820190508181036000830152613ad981613a9d565b9050919050565b7f53656c6c65722063616e6e6f7420626964206f6e207468656972206f776e206160008201527f756374696f6e0000000000000000000000000000000000000000000000000000602082015250565b6000613b3c602683613896565b9150613b4782613ae0565b604082019050919050565b60006020820190508181036000830152613b6b81613b2f565b9050919050565b7f426964206d75737420626520686967686572207468616e2063757272656e742060008201527f7072696365000000000000000000000000000000000000000000000000000000602082015250565b6000613bce602583613896565b9150613bd982613b72565b604082019050919050565b60006020820190508181036000830152613bfd81613bc1565b9050919050565b6000613c0f82612ee2565b9150613c1a83612ee2565b9250828201905080821115613c3257613c31613913565b5b92915050565b7f4e487b7100000000000000000000000000000000000000000000000000000000600052603260045260246000fd5b6000613c7282612ee2565b91507fffffffffffffffffffffffffffffffffffffffffffffffffffffffffffffffff8203613ca457613ca3613913565b5b600182019050919050565b600081905092915050565b50565b6000613cca600083613caf565b9150613cd582613cba565b600082019050919050565b6000613ceb82613cbd565b9150819050919050565b7f4661696c656420746f20726566756e642070726576696f757320626964646572600082015250565b6000613d2b602083613896565b9150613d3682613cf5565b602082019050919050565b60006020820190508181036000830152613d5a81613d1e565b9050919050565b6000606082019050613d766000830186612f45565b613d836020830185612fa7565b613d906040830184612f45565b949350505050565b600080fd5b600081519050613dac81612eec565b92915050565b613dbb81612f74565b8114613dc657600080fd5b50565b600081519050613dd881613db2565b92915050565b613de781612fb6565b8114613df257600080fd5b50565b600081519050613e0481613dde565b92915050565b600060a08284031215613e2057613e1f613d98565b5b613e2a60a0613782565b90506000613e3a84828501613d9d565b6000830152506020613e4e84828501613dc9565b6020830152506040613e6284828501613dc9565b6040830152506060613e7684828501613d9d565b6060830152506080613e8a84828501613df5565b60808301525092915050565b600060a08284031215613eac57613eab612ed8565b5b6000613eba84828501613e0a565b91505092915050565b613ecc81612f95565b8114613ed757600080fd5b50565b600081519050613ee981613ec3565b92915050565b600060208284031215613f0557613f04612ed8565b5b6000613f1384828501613eda565b91505092915050565b7f4e6f7420617574686f72697a656420746f2061756374696f6e2074686973207460008201527f6f6b656e00000000000000000000000000000000000000000000000000000000602082015250565b6000613f78602483613896565b9150613f8382613f1c565b604082019050919050565b60006020820190508181036000830152613fa781613f6b565b9050919050565b7f5072696365206d757374206e6f74206265206e65676174697665000000000000600082015250565b6000613fe4601a83613896565b9150613fef82613fae565b602082019050919050565b6000602082019050818103600083015261401381613fd7565b9050919050565b7f41756374696f6e206475726174696f6e206d757374206265206772656174657260008201527f207468616e203000000000000000000000000000000000000000000000000000602082015250565b6000614076602783613896565b91506140818261401a565b604082019050919050565b600060208201905081810360008301526140a581614069565b9050919050565b7f546f6b656e20616c72656164792068617320616e20616374697665206175637460008201527f696f6e0000000000000000000000000000000000000000000000000000000000602082015250565b6000614108602383613896565b9150614113826140ac565b604082019050919050565b60006020820190508181036000830152614137816140fb565b9050919050565b60006060820190506141536000830186612fa7565b6141606020830185612fa7565b61416d6040830184612f45565b949350505050565b6000614180826134f9565b9050919050565b61419081614175565b82525050565b60006080820190506141ab6000830187614187565b6141b86020830186612fa7565b6141c56040830185612f45565b6141d26060830184612fc2565b95945050505050565b7f41756374696f6e206973206e6f7420616374697665206f7220616c726561647960008201527f20636c61696d6564000000000000000000000000000000000000000000000000602082015250565b6000614237602883613896565b9150614242826141db565b604082019050919050565b600060208201905081810360008301526142668161422a565b9050919050565b7f596f7520617265206e6f74207468652077696e6e6572206f662074686973206160008201527f756374696f6e0000000000000000000000000000000000000000000000000000602082015250565b60006142c9602683613896565b91506142d48261426d565b604082019050919050565b600060208201905081810360008301526142f8816142bc565b9050919050565b7f4e6f2077696e6e657220666f7220746869732061756374696f6e000000000000600082015250565b6000614335601a83613896565b9150614340826142ff565b602082019050919050565b6000602082019050818103600083015261436481614328565b9050919050565b600061437682612ee2565b915061438183612ee2565b925082820261438f81612ee2565b915082820484148315176143a6576143a5613913565b5b5092915050565b7f4e487b7100000000000000000000000000000000000000000000000000000000600052601260045260246000fd5b60006143e782612ee2565b91506143f283612ee2565b925082614402576144016143ad565b5b828204905092915050565b7f4e4654206f776e65727368697020766572696669636174696f6e206661696c6560008201527f6400000000000000000000000000000000000000000000000000000000000000602082015250565b6000614469602183613896565b91506144748261440d565b604082019050919050565b600060208201905081810360008301526144988161445c565b9050919050565b7f41756374696f6e20636f6e747261637420646f65736e2774206f776e2074686560008201527f204e465400000000000000000000000000000000000000000000000000000000602082015250565b60006144fb602483613896565b91506145068261449f565b604082019050919050565b6000602082019050818103600083015261452a816144ee565b9050919050565b7f4e4654207472616e73666572206661696c656400000000000000000000000000600082015250565b6000614567601383613896565b915061457282614531565b602082019050919050565b600060208201905081810360008301526145968161455a565b9050919050565b60006040820190506145b26000830185612f45565b6145bf6020830184612fa7565b9392505050565b60006040820190506145db6000830185612f45565b6145e86020830184612f45565b9392505050565b7f4661696c656420746f207061792073656c6c6572000000000000000000000000600082015250565b6000614625601483613896565b9150614630826145ef565b602082019050919050565b6000602082019050818103600083015261465481614618565b9050919050565b7f4661696c656420746f2070617920726f79616c74696573000000000000000000600082015250565b6000614691601783613896565b915061469c8261465b565b602082019050919050565b600060208201905081810360008301526146c081614684565b9050919050565b7f5265656e7472616e637947756172643a207265656e7472616e742063616c6c00600082015250565b60006146fd601f83613896565b9150614708826146c7565b602082019050919050565b6000602082019050818103600083015261472c816146f0565b9050919050565b7f4e487b7100000000000000000000000000000000000000000000000000000000600052603160045260246000fdfea2646970667358221220f41982d97a3470a5403678d374eb321f33949fd346e41cb733403bc662b46a1964736f6c63430008130033",
  "immutableReferences": {},
  "source": "// SPDX-License-Identifier: MIT\npragma solidity 0.8.19;\n\nimport \"@openzeppelin/contracts/token/ERC721/IERC721.sol\";\nimport \"@openzeppelin/contracts/security/ReentrancyGuard.sol\";\nimport \"./NFTAuction.sol\";\n\ncontract Auction is ReentrancyGuard {\n    address payable public owner;\n    address public companyAcc;\n    uint public royaltyFee;\n\n    NFTAuction public nftContract;\n\n    uint private ids;\n\n    mapping(uint => AuctionStruct) public auctionedItem;\n    mapping(uint => bool) public auctionedItemExists;\n    mapping(string => uint) public existingURIs;\n    mapping(uint => BidderStruct[]) public biddersOf;\n    \n    // Track all tokens that have active auctions\n    uint[] private activeAuctionIds;\n    // Track all tokens that have been auctioned\n    uint[] private auctionedTokenIds;\n\n    constructor(address _nftContract) {\n        nftContract = NFTAuction(_nftContract);\n        owner = payable(msg.sender);\n        // We will dynamically track auctions instead of relying on ids variable\n    }\n\n    struct BidderStruct {\n        address bidder;\n        uint bidAmount;\n        uint timestamp;\n        bool refunded;\n        bool won;\n    }\n\n    struct AuctionStruct {\n        uint tokenId;\n        address payable owner;\n        address payable seller;\n        address winner;\n        uint price;\n        bool sold;\n        bool live;\n        bool biddable;\n        uint bids;\n        uint duration;\n        uint endTime;  // Added endTime field to track when the auction ends\n        uint auctionId; // Unique identifier for the auction\n    }\n\n    event AuctionItemCreated(\n        uint indexed tokenId,\n        address seller,\n        address owner,\n        uint price,\n        bool sold\n    );\n\n    function createAuction(\n        uint tokenId,\n        uint price,\n        uint duration\n    ) public nonReentrant {\n        // get token info from NFTAuction contract\n        NFTAuction.ListedToken memory tokenInfo = nftContract.getListedTokenForId(tokenId);\n\n        // Check if token is currently listed in NFTAuction\n        // require(tokenInfo.currentlyListed, \"Token is not listed for sale\");\n        \n        // Check if caller is the seller or the owner of the NFTAuction contract\n        require(\n            tokenInfo.seller == msg.sender || \n            msg.sender == address(nftContract) ||\n            nftContract.getApproved(tokenId) == address(this),\n            \"Not authorized to auction this token\"\n        );\n        \n        require(price > 0 ether, \"Price must not be negative\");\n        require(duration > 0, \"Auction duration must be greater than 0\");\n        \n        // Check if this token already has an active auction\n        require(!auctionedItemExists[tokenId] || !auctionedItem[tokenId].live, \n                \"Token already has an active auction\");\n\n        AuctionStruct memory item;\n        item.tokenId = tokenId;\n        item.seller = payable(tokenInfo.seller);\n        item.owner = payable(address(nftContract));\n        item.price = price;\n        item.duration = duration;\n        item.endTime = block.timestamp + duration;\n        item.auctionId = tokenId;  // Using tokenId as the auctionId for simplicity\n\n        auctionedItem[tokenId] = item;\n        auctionedItemExists[tokenId] = true;\n\n        // Check if the auction is not already live\n        if(!auctionedItem[tokenId].live) {\n            // Transfer the token to this contract\n            IERC721(address(nftContract)).transferFrom(\n                address(nftContract),\n                address(this),\n                tokenId\n            );\n            \n            auctionedItem[tokenId].bids = 0;\n            auctionedItem[tokenId].live = true;\n            auctionedItem[tokenId].biddable = true;\n            \n            // Add to active auctions list\n            activeAuctionIds.push(tokenId);\n        }\n\n        emit AuctionItemCreated(\n            tokenId,\n            tokenInfo.seller,\n            address(nftContract),\n            price,\n            false\n        );\n    }\n\n    function placeBid(uint tokenId) public payable nonReentrant {\n        require(auctionedItemExists[tokenId], \"Auction does not exist\");\n        require(auctionedItem[tokenId].live, \"Auction is not live\");\n        require(auctionedItem[tokenId].biddable, \"Bidding is not allowed for this auction\");\n        require(block.timestamp < auctionedItem[tokenId].endTime, \"Auction has ended\");\n        require(msg.sender != auctionedItem[tokenId].seller, \"Seller cannot bid on their own auction\");\n        require(msg.value > auctionedItem[tokenId].price, \"Bid must be higher than current price\");\n\n        // Store the previous highest bidder to refund them\n        address previousBidder = auctionedItem[tokenId].winner;\n        uint previousBid = auctionedItem[tokenId].price;\n\n        // Create and store the new bid\n        BidderStruct memory bidder;\n        bidder.bidder = msg.sender;\n        bidder.bidAmount = msg.value;\n        bidder.timestamp = block.timestamp;\n        bidder.refunded = false;\n        bidder.won = false;\n\n        biddersOf[tokenId].push(bidder);\n        \n        // Update auction details\n        auctionedItem[tokenId].bids += 1;\n        auctionedItem[tokenId].price = msg.value;\n        auctionedItem[tokenId].winner = msg.sender;\n        \n        // If there was a previous bidder, refund them\n        if (previousBidder != address(0) && previousBid > 0) {\n            // Find the previous bidder in the array and mark as refunded\n            for (uint i = 0; i < biddersOf[tokenId].length - 1; i++) {\n                if (biddersOf[tokenId][i].bidder == previousBidder && \n                    biddersOf[tokenId][i].bidAmount == previousBid &&\n                    !biddersOf[tokenId][i].refunded) {\n                    biddersOf[tokenId][i].refunded = true;\n                    break;\n                }\n            }\n            \n            // Refund the previous bidder\n            (bool success, ) = payable(previousBidder).call{value: previousBid}(\"\");\n            require(success, \"Failed to refund previous bidder\");\n        }\n        \n        // Extend auction time if bid is placed in the last 5 minutes (anti-sniping)\n        // if (auctionedItem[tokenId].endTime - block.timestamp < 5 minutes) {\n        //     auctionedItem[tokenId].endTime += 5 minutes;\n        // }\n        \n        emit NewBid(tokenId, msg.sender, msg.value);\n    }\n\n    // claimPrize function to finalize the auction and transfer the NFT to the winner\n    function claimPrize(uint tokenId) public nonReentrant {\n        require(auctionedItemExists[tokenId], \"Auction does not exist\");\n        // require(block.timestamp > auctionedItem[tokenId].endTime, \"Auction is still live\");\n        require(auctionedItem[tokenId].live, \"Auction is not active or already claimed\");\n        require(auctionedItem[tokenId].winner == msg.sender, \"You are not the winner of this auction\");\n        require(auctionedItem[tokenId].winner != address(0), \"No winner for this auction\");\n\n        // Get auction details before updating state\n        uint price = auctionedItem[tokenId].price;\n        address payable seller = auctionedItem[tokenId].seller;\n        address payable originalOwner = auctionedItem[tokenId].owner;\n        \n        // Update state before external calls to prevent reentrancy\n        auctionedItem[tokenId].live = false;\n        auctionedItem[tokenId].sold = true;\n        auctionedItem[tokenId].biddable = false;\n        \n        // Remove from active auctions list\n        removeFromActiveAuctions(tokenId);\n        // Add to auctioned token IDs list\n        // This is to keep track of all auctioned tokens, even if they are not live anymore\n        auctionedTokenIds.push(tokenId);\n        \n        // Mark the winning bid\n        for (uint i = 0; i < biddersOf[tokenId].length; i++) {\n            if (biddersOf[tokenId][i].bidder == msg.sender && \n                biddersOf[tokenId][i].bidAmount == price) {\n                biddersOf[tokenId][i].won = true;\n                break;\n            }\n        }\n        \n        // Calculate royalties\n        uint royalty = (price * royaltyFee) / 100;\n        uint sellerAmount = price - royalty;\n\n        // Verify NFT ownership and approval\n        try IERC721(address(nftContract)).ownerOf(tokenId) returns (address currentOwner) {\n            require(currentOwner == address(this), \"Auction contract doesn't own the NFT\");\n        } catch {\n            revert(\"NFT ownership verification failed\");\n        }\n\n        // Transfer the NFT to the winner\n        try IERC721(address(nftContract)).transferFrom(address(this), msg.sender, tokenId) {\n            // Update auction owner to winner\n            auctionedItem[tokenId].owner = payable(msg.sender);\n            // Update the NFTAuction contract with the new owner\n            nftContract.updateOwner(tokenId, msg.sender);\n            // Update the NFTAuction contract with the new price\n            nftContract.updatePrice(tokenId, price);\n            \n            // Send payments\n            (bool successSeller, ) = seller.call{value: sellerAmount}(\"\");\n            require(successSeller, \"Failed to pay seller\");\n            \n            if (royalty > 0 && originalOwner != address(0)) {\n                (bool successRoyalty, ) = originalOwner.call{value: royalty}(\"\");\n                require(successRoyalty, \"Failed to pay royalties\");\n            }\n            \n            emit AuctionEnded(tokenId, msg.sender, price);\n        } catch {\n            // Revert the state changes if the transfer fails\n            auctionedItem[tokenId].live = true;\n            auctionedItem[tokenId].sold = false;\n            auctionedItem[tokenId].biddable = true;\n            \n            // Add back to active auctions if needed\n            bool found = false;\n            for (uint i = 0; i < activeAuctionIds.length; i++) {\n                if (activeAuctionIds[i] == tokenId) {\n                    found = true;\n                    break;\n                }\n            }\n            if (!found) {\n                activeAuctionIds.push(tokenId);\n            }\n            \n            revert(\"NFT transfer failed\");\n        }\n    }\n\n    // Helper function to get the current timestamp\n    function getAuctionStatus(uint tokenId) public view returns (\n        bool isLive,\n        bool isSold,\n        uint currentPrice,\n        address currentWinner,\n        uint timeRemaining,\n        uint totalBids\n    ) {\n        require(auctionedItemExists[tokenId], \"Auction does not exist\");\n        \n        AuctionStruct storage auction = auctionedItem[tokenId];\n        \n        isLive = auction.live;\n        isSold = auction.sold;\n        currentPrice = auction.price;\n        currentWinner = auction.winner;\n        timeRemaining = block.timestamp >= auction.endTime ? 0 : auction.endTime - block.timestamp;\n        totalBids = auction.bids;\n    }\n\n    // Events for tracking auction activity\n    event NewBid(uint tokenId, address bidder, uint amount);\n    event AuctionEnded(uint tokenId, address winner, uint finalPrice);\n\n    // Helper function to remove an auction from active auctions array\n    function removeFromActiveAuctions(uint tokenId) internal {\n        for (uint i = 0; i < activeAuctionIds.length; i++) {\n            if (activeAuctionIds[i] == tokenId) {\n                // Move the last element to this position and pop the last element\n                activeAuctionIds[i] = activeAuctionIds[activeAuctionIds.length - 1];\n                activeAuctionIds.pop();\n                break;\n            }\n        }\n    }\n\n    // Update getActiveAuctions to use the activeAuctionIds array\n    function getActiveAuctions() public view returns (AuctionStruct[] memory) {\n        uint count = 0;\n        \n        // Count actual live auctions (some might have expired but not yet claimed)\n        for (uint i = 0; i < activeAuctionIds.length; i++) {\n            uint tokenId = activeAuctionIds[i];\n            if (auctionedItemExists[tokenId] && auctionedItem[tokenId].live) {\n                count++;\n            }\n        }\n        \n        AuctionStruct[] memory ret = new AuctionStruct[](count);\n        uint j = 0;\n        \n        // Populate the array with active auctions\n        for (uint i = 0; i < activeAuctionIds.length && j < count; i++) {\n            uint tokenId = activeAuctionIds[i];\n            if (auctionedItemExists[tokenId] && auctionedItem[tokenId].live) {\n                ret[j] = auctionedItem[tokenId];\n                j++;\n            }\n        }\n        \n        return ret;\n    }\n\n    // get specific auction details\n    function getAuctionDetails(uint tokenId) public view returns (AuctionStruct memory) {\n        require(auctionedItemExists[tokenId], \"Auction does not exist\");\n        return auctionedItem[tokenId];\n    }\n\n    // get all bidders for a specific auction\n    function getBidders(uint tokenId) public view returns (BidderStruct[] memory) {\n        require(auctionedItemExists[tokenId], \"Auction does not exist\");\n        return biddersOf[tokenId];\n    }\n\n    // get all completed auctions\n    function getCompletedAuctions() public view returns (AuctionStruct[] memory) {\n        uint count = 0;\n        \n        // First, count completed auctions\n        for (uint i = 0; i < auctionedTokenIds.length; i++) {\n            if (auctionedItemExists[i] && auctionedItem[i].sold) {\n                count++;\n            }\n        }\n        \n        AuctionStruct[] memory ret = new AuctionStruct[](count);\n        uint j = 0;\n        \n        // Populate array with completed auctions\n        for (uint i = 0; i < auctionedTokenIds.length && j < count; i++) {\n            if (auctionedItemExists[i] && auctionedItem[i].sold) {\n                ret[j] = auctionedItem[i];\n                j++;\n            }\n        }\n        \n        return ret;\n    }\n}\n\n",
  "sourcePath": "/Users/padmapriyavijayaragavarengaraj/Documents/GitHub/Auction-DApp/contracts/Auction.sol",
  "compiler": {
    "name": "solc",
    "version": "0.8.19+commit.7dd6d404.Emscripten.clang"
  },
  "schemaVersion": "3.4.16",
  "updatedAt": "2025-05-04T18:03:50.662Z",
  "devdoc": {
    "kind": "dev",
    "methods": {},
    "version": 1
  },
  "userdoc": {
    "kind": "user",
    "methods": {},
    "version": 1
  }
}