{
  "contractName": "Auction",
  "abi": [
    {
      "inputs": [],
      "stateMutability": "nonpayable",
      "type": "constructor"
    },
    {
      "anonymous": false,
      "inputs": [
        {
          "indexed": true,
          "internalType": "address",
          "name": "owner",
          "type": "address"
        },
        {
          "indexed": true,
          "internalType": "address",
          "name": "approved",
          "type": "address"
        },
        {
          "indexed": true,
          "internalType": "uint256",
          "name": "tokenId",
          "type": "uint256"
        }
      ],
      "name": "Approval",
      "type": "event"
    },
    {
      "anonymous": false,
      "inputs": [
        {
          "indexed": true,
          "internalType": "address",
          "name": "owner",
          "type": "address"
        },
        {
          "indexed": true,
          "internalType": "address",
          "name": "operator",
          "type": "address"
        },
        {
          "indexed": false,
          "internalType": "bool",
          "name": "approved",
          "type": "bool"
        }
      ],
      "name": "ApprovalForAll",
      "type": "event"
    },
    {
      "anonymous": false,
      "inputs": [
        {
          "indexed": true,
          "internalType": "uint256",
          "name": "tokenId",
          "type": "uint256"
        },
        {
          "indexed": true,
          "internalType": "address",
          "name": "seller",
          "type": "address"
        },
        {
          "indexed": false,
          "internalType": "uint256",
          "name": "startingPrice",
          "type": "uint256"
        },
        {
          "indexed": false,
          "internalType": "uint256",
          "name": "endTime",
          "type": "uint256"
        }
      ],
      "name": "AuctionCreated",
      "type": "event"
    },
    {
      "anonymous": false,
      "inputs": [
        {
          "indexed": true,
          "internalType": "uint256",
          "name": "tokenId",
          "type": "uint256"
        },
        {
          "indexed": true,
          "internalType": "address",
          "name": "winner",
          "type": "address"
        },
        {
          "indexed": false,
          "internalType": "uint256",
          "name": "winningBid",
          "type": "uint256"
        }
      ],
      "name": "AuctionEnded",
      "type": "event"
    },
    {
      "anonymous": false,
      "inputs": [
        {
          "indexed": false,
          "internalType": "uint256",
          "name": "_fromTokenId",
          "type": "uint256"
        },
        {
          "indexed": false,
          "internalType": "uint256",
          "name": "_toTokenId",
          "type": "uint256"
        }
      ],
      "name": "BatchMetadataUpdate",
      "type": "event"
    },
    {
      "anonymous": false,
      "inputs": [
        {
          "indexed": true,
          "internalType": "uint256",
          "name": "tokenId",
          "type": "uint256"
        },
        {
          "indexed": true,
          "internalType": "address",
          "name": "bidder",
          "type": "address"
        },
        {
          "indexed": false,
          "internalType": "uint256",
          "name": "bidAmount",
          "type": "uint256"
        }
      ],
      "name": "BidPlaced",
      "type": "event"
    },
    {
      "anonymous": false,
      "inputs": [
        {
          "indexed": false,
          "internalType": "uint256",
          "name": "_tokenId",
          "type": "uint256"
        }
      ],
      "name": "MetadataUpdate",
      "type": "event"
    },
    {
      "anonymous": false,
      "inputs": [
        {
          "indexed": true,
          "internalType": "address",
          "name": "from",
          "type": "address"
        },
        {
          "indexed": true,
          "internalType": "address",
          "name": "to",
          "type": "address"
        },
        {
          "indexed": true,
          "internalType": "uint256",
          "name": "tokenId",
          "type": "uint256"
        }
      ],
      "name": "Transfer",
      "type": "event"
    },
    {
      "inputs": [
        {
          "internalType": "address",
          "name": "to",
          "type": "address"
        },
        {
          "internalType": "uint256",
          "name": "tokenId",
          "type": "uint256"
        }
      ],
      "name": "approve",
      "outputs": [],
      "stateMutability": "nonpayable",
      "type": "function"
    },
    {
      "inputs": [
        {
          "internalType": "uint256",
          "name": "",
          "type": "uint256"
        },
        {
          "internalType": "uint256",
          "name": "",
          "type": "uint256"
        }
      ],
      "name": "auctionBids",
      "outputs": [
        {
          "internalType": "address",
          "name": "bidder",
          "type": "address"
        },
        {
          "internalType": "uint256",
          "name": "amount",
          "type": "uint256"
        }
      ],
      "stateMutability": "view",
      "type": "function"
    },
    {
      "inputs": [
        {
          "internalType": "uint256",
          "name": "",
          "type": "uint256"
        }
      ],
      "name": "auctions",
      "outputs": [
        {
          "internalType": "uint256",
          "name": "tokenId",
          "type": "uint256"
        },
        {
          "internalType": "address payable",
          "name": "seller",
          "type": "address"
        },
        {
          "internalType": "uint256",
          "name": "startingPrice",
          "type": "uint256"
        },
        {
          "internalType": "uint256",
          "name": "highestBid",
          "type": "uint256"
        },
        {
          "internalType": "address payable",
          "name": "highestBidder",
          "type": "address"
        },
        {
          "internalType": "uint256",
          "name": "endTime",
          "type": "uint256"
        },
        {
          "internalType": "bool",
          "name": "isLive",
          "type": "bool"
        },
        {
          "internalType": "bool",
          "name": "isSold",
          "type": "bool"
        }
      ],
      "stateMutability": "view",
      "type": "function"
    },
    {
      "inputs": [
        {
          "internalType": "address",
          "name": "owner",
          "type": "address"
        }
      ],
      "name": "balanceOf",
      "outputs": [
        {
          "internalType": "uint256",
          "name": "",
          "type": "uint256"
        }
      ],
      "stateMutability": "view",
      "type": "function"
    },
    {
      "inputs": [
        {
          "internalType": "uint256",
          "name": "",
          "type": "uint256"
        }
      ],
      "name": "bidHistory",
      "outputs": [
        {
          "internalType": "address",
          "name": "bidder",
          "type": "address"
        },
        {
          "internalType": "uint256",
          "name": "amount",
          "type": "uint256"
        }
      ],
      "stateMutability": "view",
      "type": "function"
    },
    {
      "inputs": [
        {
          "internalType": "uint256",
          "name": "tokenId",
          "type": "uint256"
        }
      ],
      "name": "getApproved",
      "outputs": [
        {
          "internalType": "address",
          "name": "",
          "type": "address"
        }
      ],
      "stateMutability": "view",
      "type": "function"
    },
    {
      "inputs": [
        {
          "internalType": "address",
          "name": "owner",
          "type": "address"
        },
        {
          "internalType": "address",
          "name": "operator",
          "type": "address"
        }
      ],
      "name": "isApprovedForAll",
      "outputs": [
        {
          "internalType": "bool",
          "name": "",
          "type": "bool"
        }
      ],
      "stateMutability": "view",
      "type": "function"
    },
    {
      "inputs": [],
      "name": "name",
      "outputs": [
        {
          "internalType": "string",
          "name": "",
          "type": "string"
        }
      ],
      "stateMutability": "view",
      "type": "function"
    },
    {
      "inputs": [
        {
          "internalType": "uint256",
          "name": "tokenId",
          "type": "uint256"
        }
      ],
      "name": "ownerOf",
      "outputs": [
        {
          "internalType": "address",
          "name": "",
          "type": "address"
        }
      ],
      "stateMutability": "view",
      "type": "function"
    },
    {
      "inputs": [
        {
          "internalType": "address",
          "name": "",
          "type": "address"
        }
      ],
      "name": "pendingReturns",
      "outputs": [
        {
          "internalType": "uint256",
          "name": "",
          "type": "uint256"
        }
      ],
      "stateMutability": "view",
      "type": "function"
    },
    {
      "inputs": [
        {
          "internalType": "address",
          "name": "from",
          "type": "address"
        },
        {
          "internalType": "address",
          "name": "to",
          "type": "address"
        },
        {
          "internalType": "uint256",
          "name": "tokenId",
          "type": "uint256"
        }
      ],
      "name": "safeTransferFrom",
      "outputs": [],
      "stateMutability": "nonpayable",
      "type": "function"
    },
    {
      "inputs": [
        {
          "internalType": "address",
          "name": "from",
          "type": "address"
        },
        {
          "internalType": "address",
          "name": "to",
          "type": "address"
        },
        {
          "internalType": "uint256",
          "name": "tokenId",
          "type": "uint256"
        },
        {
          "internalType": "bytes",
          "name": "data",
          "type": "bytes"
        }
      ],
      "name": "safeTransferFrom",
      "outputs": [],
      "stateMutability": "nonpayable",
      "type": "function"
    },
    {
      "inputs": [
        {
          "internalType": "address",
          "name": "operator",
          "type": "address"
        },
        {
          "internalType": "bool",
          "name": "approved",
          "type": "bool"
        }
      ],
      "name": "setApprovalForAll",
      "outputs": [],
      "stateMutability": "nonpayable",
      "type": "function"
    },
    {
      "inputs": [
        {
          "internalType": "bytes4",
          "name": "interfaceId",
          "type": "bytes4"
        }
      ],
      "name": "supportsInterface",
      "outputs": [
        {
          "internalType": "bool",
          "name": "",
          "type": "bool"
        }
      ],
      "stateMutability": "view",
      "type": "function"
    },
    {
      "inputs": [],
      "name": "symbol",
      "outputs": [
        {
          "internalType": "string",
          "name": "",
          "type": "string"
        }
      ],
      "stateMutability": "view",
      "type": "function"
    },
    {
      "inputs": [
        {
          "internalType": "uint256",
          "name": "tokenId",
          "type": "uint256"
        }
      ],
      "name": "tokenURI",
      "outputs": [
        {
          "internalType": "string",
          "name": "",
          "type": "string"
        }
      ],
      "stateMutability": "view",
      "type": "function"
    },
    {
      "inputs": [
        {
          "internalType": "address",
          "name": "from",
          "type": "address"
        },
        {
          "internalType": "address",
          "name": "to",
          "type": "address"
        },
        {
          "internalType": "uint256",
          "name": "tokenId",
          "type": "uint256"
        }
      ],
      "name": "transferFrom",
      "outputs": [],
      "stateMutability": "nonpayable",
      "type": "function"
    },
    {
      "inputs": [
        {
          "internalType": "string",
          "name": "tokenURI",
          "type": "string"
        },
        {
          "internalType": "uint256",
          "name": "startingPrice",
          "type": "uint256"
        },
        {
          "internalType": "uint256",
          "name": "durationInSeconds",
          "type": "uint256"
        }
      ],
      "name": "createAuction",
      "outputs": [],
      "stateMutability": "nonpayable",
      "type": "function"
    },
    {
      "inputs": [
        {
          "internalType": "uint256",
          "name": "tokenId",
          "type": "uint256"
        }
      ],
      "name": "placeBid",
      "outputs": [],
      "stateMutability": "payable",
      "type": "function"
    },
    {
      "inputs": [],
      "name": "withdraw",
      "outputs": [],
      "stateMutability": "nonpayable",
      "type": "function"
    },
    {
      "inputs": [
        {
          "internalType": "uint256",
          "name": "tokenId",
          "type": "uint256"
        }
      ],
      "name": "endAuction",
      "outputs": [],
      "stateMutability": "nonpayable",
      "type": "function"
    },
    {
      "inputs": [
        {
          "internalType": "uint256",
          "name": "tokenId",
          "type": "uint256"
        }
      ],
      "name": "getAuction",
      "outputs": [
        {
          "components": [
            {
              "internalType": "uint256",
              "name": "tokenId",
              "type": "uint256"
            },
            {
              "internalType": "address payable",
              "name": "seller",
              "type": "address"
            },
            {
              "internalType": "uint256",
              "name": "startingPrice",
              "type": "uint256"
            },
            {
              "internalType": "uint256",
              "name": "highestBid",
              "type": "uint256"
            },
            {
              "internalType": "address payable",
              "name": "highestBidder",
              "type": "address"
            },
            {
              "internalType": "uint256",
              "name": "endTime",
              "type": "uint256"
            },
            {
              "internalType": "bool",
              "name": "isLive",
              "type": "bool"
            },
            {
              "internalType": "bool",
              "name": "isSold",
              "type": "bool"
            }
          ],
          "internalType": "struct Auction.AuctionItem",
          "name": "",
          "type": "tuple"
        }
      ],
      "stateMutability": "view",
      "type": "function"
    },
    {
      "inputs": [],
      "name": "getContractBalance",
      "outputs": [
        {
          "internalType": "uint256",
          "name": "",
          "type": "uint256"
        }
      ],
      "stateMutability": "view",
      "type": "function"
    },
    {
      "inputs": [
        {
          "internalType": "uint256",
          "name": "tokenId",
          "type": "uint256"
        }
      ],
      "name": "isAuctionEnded",
      "outputs": [
        {
          "internalType": "bool",
          "name": "",
          "type": "bool"
        }
      ],
      "stateMutability": "view",
      "type": "function"
    },
    {
      "inputs": [
        {
          "internalType": "uint256",
          "name": "tokenId",
          "type": "uint256"
        }
      ],
      "name": "getBids",
      "outputs": [
        {
          "components": [
            {
              "internalType": "address",
              "name": "bidder",
              "type": "address"
            },
            {
              "internalType": "uint256",
              "name": "amount",
              "type": "uint256"
            }
          ],
          "internalType": "struct Auction.Bid[]",
          "name": "",
          "type": "tuple[]"
        }
      ],
      "stateMutability": "view",
      "type": "function"
    }
  ],
  "bytecode": "0x608060405260016007553480156200001657600080fd5b506040518060400160405280600c81526020017f41756374696f6e546f6b656e00000000000000000000000000000000000000008152506040518060400160405280600381526020017f41544b0000000000000000000000000000000000000000000000000000000000815250816000908162000094919062000329565b508060019081620000a6919062000329565b50505062000410565b600081519050919050565b7f4e487b7100000000000000000000000000000000000000000000000000000000600052604160045260246000fd5b7f4e487b7100000000000000000000000000000000000000000000000000000000600052602260045260246000fd5b600060028204905060018216806200013157607f821691505b602082108103620001475762000146620000e9565b5b50919050565b60008190508160005260206000209050919050565b60006020601f8301049050919050565b600082821b905092915050565b600060088302620001b17fffffffffffffffffffffffffffffffffffffffffffffffffffffffffffffffff8262000172565b620001bd868362000172565b95508019841693508086168417925050509392505050565b6000819050919050565b6000819050919050565b60006200020a62000204620001fe84620001d5565b620001df565b620001d5565b9050919050565b6000819050919050565b6200022683620001e9565b6200023e620002358262000211565b8484546200017f565b825550505050565b600090565b6200025562000246565b620002628184846200021b565b505050565b5b818110156200028a576200027e6000826200024b565b60018101905062000268565b5050565b601f821115620002d957620002a3816200014d565b620002ae8462000162565b81016020851015620002be578190505b620002d6620002cd8562000162565b83018262000267565b50505b505050565b600082821c905092915050565b6000620002fe60001984600802620002de565b1980831691505092915050565b6000620003198383620002eb565b9150826002028217905092915050565b6200033482620000af565b67ffffffffffffffff81111562000350576200034f620000ba565b5b6200035c825462000118565b620003698282856200028e565b600060209050601f831160018114620003a157600084156200038c578287015190505b6200039885826200030b565b86555062000408565b601f198416620003b1866200014d565b60005b82811015620003db57848901518255600182019150602085019450602081019050620003b4565b86831015620003fb5784890151620003f7601f891682620002eb565b8355505b6001600288020188555050505b505050505050565b6141be80620004206000396000f3fe6080604052600436106101665760003560e01c80636352211e116100d1578063998f1b871161008a578063b9a2de3a11610064578063b9a2de3a1461057f578063c87b56dd146105a8578063e985e9c5146105e5578063ecde973d1461062257610166565b8063998f1b87146104f0578063a22cb4651461052d578063b88d4fde1461055657610166565b80636352211e146103c75780636f9fb98a1461040457806370a082311461042f57806378bd79351461046c57806395d89b41146104a95780639979ef45146104d457610166565b806326b387bb1161012357806326b387bb1461029f5780632dbddb41146102dc5780633ccfd60b1461030557806342842e0e1461031c578063571a26a0146103455780635f93de491461038957610166565b806301ffc9a71461016b57806306fdde03146101a8578063081812fc146101d3578063095ea7b314610210578063131d9a271461023957806323b872dd14610276575b600080fd5b34801561017757600080fd5b50610192600480360381019061018d9190612a3c565b610660565b60405161019f9190612a84565b60405180910390f35b3480156101b457600080fd5b506101bd6106c1565b6040516101ca9190612b2f565b60405180910390f35b3480156101df57600080fd5b506101fa60048036038101906101f59190612b87565b610753565b6040516102079190612bf5565b60405180910390f35b34801561021c57600080fd5b5061023760048036038101906102329190612c3c565b610799565b005b34801561024557600080fd5b50610260600480360381019061025b9190612b87565b6108b0565b60405161026d9190612d78565b60405180910390f35b34801561028257600080fd5b5061029d60048036038101906102989190612d9a565b610982565b005b3480156102ab57600080fd5b506102c660048036038101906102c19190612ded565b6109e2565b6040516102d39190612e29565b60405180910390f35b3480156102e857600080fd5b5061030360048036038101906102fe9190612f79565b6109fa565b005b34801561031157600080fd5b5061031a610bf9565b005b34801561032857600080fd5b50610343600480360381019061033e9190612d9a565b610d0f565b005b34801561035157600080fd5b5061036c60048036038101906103679190612b87565b610d2f565b604051610380989796959493929190613009565b60405180910390f35b34801561039557600080fd5b506103b060048036038101906103ab9190613087565b610dd1565b6040516103be9291906130c7565b60405180910390f35b3480156103d357600080fd5b506103ee60048036038101906103e99190612b87565b610e32565b6040516103fb9190612bf5565b60405180910390f35b34801561041057600080fd5b50610419610eb8565b6040516104269190612e29565b60405180910390f35b34801561043b57600080fd5b5061045660048036038101906104519190612ded565b610ec0565b6040516104639190612e29565b60405180910390f35b34801561047857600080fd5b50610493600480360381019061048e9190612b87565b610f77565b6040516104a091906131b0565b60405180910390f35b3480156104b557600080fd5b506104be6110af565b6040516104cb9190612b2f565b60405180910390f35b6104ee60048036038101906104e99190612b87565b611141565b005b3480156104fc57600080fd5b5061051760048036038101906105129190612b87565b611465565b6040516105249190612a84565b60405180910390f35b34801561053957600080fd5b50610554600480360381019061054f91906131f8565b611488565b005b34801561056257600080fd5b5061057d600480360381019061057891906132d9565b61149e565b005b34801561058b57600080fd5b506105a660048036038101906105a19190612b87565b611500565b005b3480156105b457600080fd5b506105cf60048036038101906105ca9190612b87565b6117e1565b6040516105dc9190612b2f565b60405180910390f35b3480156105f157600080fd5b5061060c6004803603810190610607919061335c565b6118f3565b6040516106199190612a84565b60405180910390f35b34801561062e57600080fd5b5061064960048036038101906106449190612b87565b611987565b6040516106579291906130c7565b60405180910390f35b6000634906490660e01b7bffffffffffffffffffffffffffffffffffffffffffffffffffffffff1916827bffffffffffffffffffffffffffffffffffffffffffffffffffffffff191614806106ba57506106b9826119db565b5b9050919050565b6060600080546106d0906133cb565b80601f01602080910402602001604051908101604052809291908181526020018280546106fc906133cb565b80156107495780601f1061071e57610100808354040283529160200191610749565b820191906000526020600020905b81548152906001019060200180831161072c57829003601f168201915b5050505050905090565b600061075e82611abd565b6004600083815260200190815260200160002060009054906101000a900473ffffffffffffffffffffffffffffffffffffffff169050919050565b60006107a482610e32565b90508073ffffffffffffffffffffffffffffffffffffffff168373ffffffffffffffffffffffffffffffffffffffff1603610814576040517f08c379a000000000000000000000000000000000000000000000000000000000815260040161080b9061346e565b60405180910390fd5b8073ffffffffffffffffffffffffffffffffffffffff16610833611b08565b73ffffffffffffffffffffffffffffffffffffffff16148061086257506108618161085c611b08565b6118f3565b5b6108a1576040517f08c379a000000000000000000000000000000000000000000000000000000000815260040161089890613500565b60405180910390fd5b6108ab8383611b10565b505050565b6060600b6000838152602001908152602001600020805480602002602001604051908101604052809291908181526020016000905b8282101561097757838290600052602060002090600202016040518060400160405290816000820160009054906101000a900473ffffffffffffffffffffffffffffffffffffffff1673ffffffffffffffffffffffffffffffffffffffff1673ffffffffffffffffffffffffffffffffffffffff168152602001600182015481525050815260200190600101906108e5565b505050509050919050565b61099361098d611b08565b82611bc9565b6109d2576040517f08c379a00000000000000000000000000000000000000000000000000000000081526004016109c990613592565b60405180910390fd5b6109dd838383611c5e565b505050565b60096020528060005260406000206000915090505481565b6000610a0584611f57565b90506040518061010001604052808281526020013373ffffffffffffffffffffffffffffffffffffffff16815260200184815260200160008152602001600073ffffffffffffffffffffffffffffffffffffffff1681526020018342610a6b91906135e1565b815260200160011515815260200160001515815250600860008381526020019081526020016000206000820151816000015560208201518160010160006101000a81548173ffffffffffffffffffffffffffffffffffffffff021916908373ffffffffffffffffffffffffffffffffffffffff160217905550604082015181600201556060820151816003015560808201518160040160006101000a81548173ffffffffffffffffffffffffffffffffffffffff021916908373ffffffffffffffffffffffffffffffffffffffff16021790555060a0820151816005015560c08201518160060160006101000a81548160ff02191690831515021790555060e08201518160060160016101000a81548160ff021916908315150217905550905050610b97333083611c5e565b3373ffffffffffffffffffffffffffffffffffffffff16817fc9050d42180a61cb0d9ebb8ad118b62fe6eab12cf12ff752c4a0cc7da9ddf627858542610bdd91906135e1565b604051610beb929190613615565b60405180910390a350505050565b6000600960003373ffffffffffffffffffffffffffffffffffffffff1673ffffffffffffffffffffffffffffffffffffffff16815260200190815260200160002054905060008111610c80576040517f08c379a0000000000000000000000000000000000000000000000000000000008152600401610c779061368a565b60405180910390fd5b6000600960003373ffffffffffffffffffffffffffffffffffffffff1673ffffffffffffffffffffffffffffffffffffffff168152602001908152602001600020819055503373ffffffffffffffffffffffffffffffffffffffff166108fc829081150290604051600060405180830381858888f19350505050158015610d0b573d6000803e3d6000fd5b5050565b610d2a8383836040518060200160405280600081525061149e565b505050565b60086020528060005260406000206000915090508060000154908060010160009054906101000a900473ffffffffffffffffffffffffffffffffffffffff16908060020154908060030154908060040160009054906101000a900473ffffffffffffffffffffffffffffffffffffffff16908060050154908060060160009054906101000a900460ff16908060060160019054906101000a900460ff16905088565b600b6020528160005260406000208181548110610ded57600080fd5b9060005260206000209060020201600091509150508060000160009054906101000a900473ffffffffffffffffffffffffffffffffffffffff16908060010154905082565b600080610e3e83611f94565b9050600073ffffffffffffffffffffffffffffffffffffffff168173ffffffffffffffffffffffffffffffffffffffff1603610eaf576040517f08c379a0000000000000000000000000000000000000000000000000000000008152600401610ea6906136f6565b60405180910390fd5b80915050919050565b600047905090565b60008073ffffffffffffffffffffffffffffffffffffffff168273ffffffffffffffffffffffffffffffffffffffff1603610f30576040517f08c379a0000000000000000000000000000000000000000000000000000000008152600401610f2790613788565b60405180910390fd5b600360008373ffffffffffffffffffffffffffffffffffffffff1673ffffffffffffffffffffffffffffffffffffffff168152602001908152602001600020549050919050565b610f7f61295b565b6008600083815260200190815260200160002060405180610100016040529081600082015481526020016001820160009054906101000a900473ffffffffffffffffffffffffffffffffffffffff1673ffffffffffffffffffffffffffffffffffffffff1673ffffffffffffffffffffffffffffffffffffffff16815260200160028201548152602001600382015481526020016004820160009054906101000a900473ffffffffffffffffffffffffffffffffffffffff1673ffffffffffffffffffffffffffffffffffffffff1673ffffffffffffffffffffffffffffffffffffffff168152602001600582015481526020016006820160009054906101000a900460ff161515151581526020016006820160019054906101000a900460ff1615151515815250509050919050565b6060600180546110be906133cb565b80601f01602080910402602001604051908101604052809291908181526020018280546110ea906133cb565b80156111375780601f1061110c57610100808354040283529160200191611137565b820191906000526020600020905b81548152906001019060200180831161111a57829003601f168201915b5050505050905090565b60006008600083815260200190815260200160002090508060060160009054906101000a900460ff166111a9576040517f08c379a00000000000000000000000000000000000000000000000000000000081526004016111a0906137f4565b60405180910390fd5b806005015442106111ef576040517f08c379a00000000000000000000000000000000000000000000000000000000081526004016111e690613860565b60405180910390fd5b80600301543411611235576040517f08c379a000000000000000000000000000000000000000000000000000000000815260040161122c906138cc565b60405180910390fd5b600073ffffffffffffffffffffffffffffffffffffffff168160040160009054906101000a900473ffffffffffffffffffffffffffffffffffffffff1673ffffffffffffffffffffffffffffffffffffffff161461130c578060030154600960008360040160009054906101000a900473ffffffffffffffffffffffffffffffffffffffff1673ffffffffffffffffffffffffffffffffffffffff1673ffffffffffffffffffffffffffffffffffffffff168152602001908152602001600020600082825461130491906135e1565b925050819055505b348160030181905550338160040160006101000a81548173ffffffffffffffffffffffffffffffffffffffff021916908373ffffffffffffffffffffffffffffffffffffffff160217905550600b600083815260200190815260200160002060405180604001604052803373ffffffffffffffffffffffffffffffffffffffff16815260200134815250908060018154018082558091505060019003906000526020600020906002020160009091909190915060008201518160000160006101000a81548173ffffffffffffffffffffffffffffffffffffffff021916908373ffffffffffffffffffffffffffffffffffffffff1602179055506020820151816001015550503373ffffffffffffffffffffffffffffffffffffffff16827f0e54eff26401bf69b81b26f60bd85ef47f5d85275c1d268d84f68d6897431c47346040516114599190612e29565b60405180910390a35050565b600060086000838152602001908152602001600020600501544210159050919050565b61149a611493611b08565b8383611fd1565b5050565b6114af6114a9611b08565b83611bc9565b6114ee576040517f08c379a00000000000000000000000000000000000000000000000000000000081526004016114e590613592565b60405180910390fd5b6114fa8484848461213d565b50505050565b60006008600083815260200190815260200160002090508060060160009054906101000a900460ff16611568576040517f08c379a000000000000000000000000000000000000000000000000000000000815260040161155f906137f4565b60405180910390fd5b80600501544210156115af576040517f08c379a00000000000000000000000000000000000000000000000000000000081526004016115a690613938565b60405180910390fd5b8060060160019054906101000a900460ff1615611601576040517f08c379a00000000000000000000000000000000000000000000000000000000081526004016115f8906139a4565b60405180910390fd5b60008160060160006101000a81548160ff02191690831515021790555060018160060160016101000a81548160ff021916908315150217905550600073ffffffffffffffffffffffffffffffffffffffff168160040160009054906101000a900473ffffffffffffffffffffffffffffffffffffffff1673ffffffffffffffffffffffffffffffffffffffff16146117ad576116c2308260040160009054906101000a900473ffffffffffffffffffffffffffffffffffffffff1684611c5e565b8060010160009054906101000a900473ffffffffffffffffffffffffffffffffffffffff1673ffffffffffffffffffffffffffffffffffffffff166108fc82600301549081150290604051600060405180830381858888f19350505050158015611730573d6000803e3d6000fd5b508060040160009054906101000a900473ffffffffffffffffffffffffffffffffffffffff1673ffffffffffffffffffffffffffffffffffffffff16827fd2aa34a4fdbbc6dff6a3e56f46e0f3ae2a31d7785ff3487aa5c95c642acea50183600301546040516117a09190612e29565b60405180910390a36117dd565b6117dc308260010160009054906101000a900473ffffffffffffffffffffffffffffffffffffffff1684611c5e565b5b5050565b60606117ec82611abd565b600060066000848152602001908152602001600020805461180c906133cb565b80601f0160208091040260200160405190810160405280929190818152602001828054611838906133cb565b80156118855780601f1061185a57610100808354040283529160200191611885565b820191906000526020600020905b81548152906001019060200180831161186857829003601f168201915b505050505090506000611896612199565b905060008151036118ab5781925050506118ee565b6000825111156118e05780826040516020016118c8929190613a00565b604051602081830303815290604052925050506118ee565b6118e9846121b0565b925050505b919050565b6000600560008473ffffffffffffffffffffffffffffffffffffffff1673ffffffffffffffffffffffffffffffffffffffff16815260200190815260200160002060008373ffffffffffffffffffffffffffffffffffffffff1673ffffffffffffffffffffffffffffffffffffffff16815260200190815260200160002060009054906101000a900460ff16905092915050565b600a818154811061199757600080fd5b90600052602060002090600202016000915090508060000160009054906101000a900473ffffffffffffffffffffffffffffffffffffffff16908060010154905082565b60007f80ac58cd000000000000000000000000000000000000000000000000000000007bffffffffffffffffffffffffffffffffffffffffffffffffffffffff1916827bffffffffffffffffffffffffffffffffffffffffffffffffffffffff19161480611aa657507f5b5e139f000000000000000000000000000000000000000000000000000000007bffffffffffffffffffffffffffffffffffffffffffffffffffffffff1916827bffffffffffffffffffffffffffffffffffffffffffffffffffffffff1916145b80611ab65750611ab582612218565b5b9050919050565b611ac681612282565b611b05576040517f08c379a0000000000000000000000000000000000000000000000000000000008152600401611afc906136f6565b60405180910390fd5b50565b600033905090565b816004600083815260200190815260200160002060006101000a81548173ffffffffffffffffffffffffffffffffffffffff021916908373ffffffffffffffffffffffffffffffffffffffff160217905550808273ffffffffffffffffffffffffffffffffffffffff16611b8383610e32565b73ffffffffffffffffffffffffffffffffffffffff167f8c5be1e5ebec7d5bd14f71427d1e84f3dd0314c0f7b2291e5b200ac8c7c3b92560405160405180910390a45050565b600080611bd583610e32565b90508073ffffffffffffffffffffffffffffffffffffffff168473ffffffffffffffffffffffffffffffffffffffff161480611c175750611c1681856118f3565b5b80611c5557508373ffffffffffffffffffffffffffffffffffffffff16611c3d84610753565b73ffffffffffffffffffffffffffffffffffffffff16145b91505092915050565b8273ffffffffffffffffffffffffffffffffffffffff16611c7e82610e32565b73ffffffffffffffffffffffffffffffffffffffff1614611cd4576040517f08c379a0000000000000000000000000000000000000000000000000000000008152600401611ccb90613a96565b60405180910390fd5b600073ffffffffffffffffffffffffffffffffffffffff168273ffffffffffffffffffffffffffffffffffffffff1603611d43576040517f08c379a0000000000000000000000000000000000000000000000000000000008152600401611d3a90613b28565b60405180910390fd5b611d5083838360016122c3565b8273ffffffffffffffffffffffffffffffffffffffff16611d7082610e32565b73ffffffffffffffffffffffffffffffffffffffff1614611dc6576040517f08c379a0000000000000000000000000000000000000000000000000000000008152600401611dbd90613a96565b60405180910390fd5b6004600082815260200190815260200160002060006101000a81549073ffffffffffffffffffffffffffffffffffffffff02191690556001600360008573ffffffffffffffffffffffffffffffffffffffff1673ffffffffffffffffffffffffffffffffffffffff168152602001908152602001600020600082825403925050819055506001600360008473ffffffffffffffffffffffffffffffffffffffff1673ffffffffffffffffffffffffffffffffffffffff16815260200190815260200160002060008282540192505081905550816002600083815260200190815260200160002060006101000a81548173ffffffffffffffffffffffffffffffffffffffff021916908373ffffffffffffffffffffffffffffffffffffffff160217905550808273ffffffffffffffffffffffffffffffffffffffff168473ffffffffffffffffffffffffffffffffffffffff167fddf252ad1be2c89b69c2b068fc378daa952ba7f163c4a11628f55a4df523b3ef60405160405180910390a4611f5283838360016122c9565b505050565b6000806007549050611f6933826122cf565b611f7381846124ec565b60076000815480929190611f8690613b48565b919050555080915050919050565b60006002600083815260200190815260200160002060009054906101000a900473ffffffffffffffffffffffffffffffffffffffff169050919050565b8173ffffffffffffffffffffffffffffffffffffffff168373ffffffffffffffffffffffffffffffffffffffff160361203f576040517f08c379a000000000000000000000000000000000000000000000000000000000815260040161203690613bdc565b60405180910390fd5b80600560008573ffffffffffffffffffffffffffffffffffffffff1673ffffffffffffffffffffffffffffffffffffffff16815260200190815260200160002060008473ffffffffffffffffffffffffffffffffffffffff1673ffffffffffffffffffffffffffffffffffffffff16815260200190815260200160002060006101000a81548160ff0219169083151502179055508173ffffffffffffffffffffffffffffffffffffffff168373ffffffffffffffffffffffffffffffffffffffff167f17307eab39ab6107e8899845ad3d59bd9653f200f220920489ca2b5937696c31836040516121309190612a84565b60405180910390a3505050565b612148848484611c5e565b61215484848484612590565b612193576040517f08c379a000000000000000000000000000000000000000000000000000000000815260040161218a90613c6e565b60405180910390fd5b50505050565b606060405180602001604052806000815250905090565b60606121bb82611abd565b60006121c5612199565b905060008151116121e55760405180602001604052806000815250612210565b806121ef84612717565b604051602001612200929190613a00565b6040516020818303038152906040525b915050919050565b60007f01ffc9a7000000000000000000000000000000000000000000000000000000007bffffffffffffffffffffffffffffffffffffffffffffffffffffffff1916827bffffffffffffffffffffffffffffffffffffffffffffffffffffffff1916149050919050565b60008073ffffffffffffffffffffffffffffffffffffffff166122a483611f94565b73ffffffffffffffffffffffffffffffffffffffff1614159050919050565b50505050565b50505050565b600073ffffffffffffffffffffffffffffffffffffffff168273ffffffffffffffffffffffffffffffffffffffff160361233e576040517f08c379a000000000000000000000000000000000000000000000000000000000815260040161233590613cda565b60405180910390fd5b61234781612282565b15612387576040517f08c379a000000000000000000000000000000000000000000000000000000000815260040161237e90613d46565b60405180910390fd5b6123956000838360016122c3565b61239e81612282565b156123de576040517f08c379a00000000000000000000000000000000000000000000000000000000081526004016123d590613d46565b60405180910390fd5b6001600360008473ffffffffffffffffffffffffffffffffffffffff1673ffffffffffffffffffffffffffffffffffffffff16815260200190815260200160002060008282540192505081905550816002600083815260200190815260200160002060006101000a81548173ffffffffffffffffffffffffffffffffffffffff021916908373ffffffffffffffffffffffffffffffffffffffff160217905550808273ffffffffffffffffffffffffffffffffffffffff16600073ffffffffffffffffffffffffffffffffffffffff167fddf252ad1be2c89b69c2b068fc378daa952ba7f163c4a11628f55a4df523b3ef60405160405180910390a46124e86000838360016122c9565b5050565b6124f582612282565b612534576040517f08c379a000000000000000000000000000000000000000000000000000000000815260040161252b90613dd8565b60405180910390fd5b806006600084815260200190815260200160002090816125549190613fa4565b507ff8e1a15aba9398e019f0b49df1a4fde98ee17ae345cb5f6b5e2c27f5033e8ce7826040516125849190612e29565b60405180910390a15050565b60006125b18473ffffffffffffffffffffffffffffffffffffffff166127e5565b1561270a578373ffffffffffffffffffffffffffffffffffffffff1663150b7a026125da611b08565b8786866040518563ffffffff1660e01b81526004016125fc94939291906140cb565b6020604051808303816000875af192505050801561263857506040513d601f19601f82011682018060405250810190612635919061412c565b60015b6126ba573d8060008114612668576040519150601f19603f3d011682016040523d82523d6000602084013e61266d565b606091505b5060008151036126b2576040517f08c379a00000000000000000000000000000000000000000000000000000000081526004016126a990613c6e565b60405180910390fd5b805181602001fd5b63150b7a0260e01b7bffffffffffffffffffffffffffffffffffffffffffffffffffffffff1916817bffffffffffffffffffffffffffffffffffffffffffffffffffffffff19161491505061270f565b600190505b949350505050565b60606000600161272684612808565b01905060008167ffffffffffffffff81111561274557612744612e4e565b5b6040519080825280601f01601f1916602001820160405280156127775781602001600182028036833780820191505090505b509050600082602001820190505b6001156127da578080600190039150507f3031323334353637383961626364656600000000000000000000000000000000600a86061a8153600a85816127ce576127cd614159565b5b04945060008503612785575b819350505050919050565b6000808273ffffffffffffffffffffffffffffffffffffffff163b119050919050565b600080600090507a184f03e93ff9f4daa797ed6e38ed64bf6a1f0100000000000000008310612866577a184f03e93ff9f4daa797ed6e38ed64bf6a1f010000000000000000838161285c5761285b614159565b5b0492506040810190505b6d04ee2d6d415b85acef810000000083106128a3576d04ee2d6d415b85acef8100000000838161289957612898614159565b5b0492506020810190505b662386f26fc1000083106128d257662386f26fc1000083816128c8576128c7614159565b5b0492506010810190505b6305f5e10083106128fb576305f5e10083816128f1576128f0614159565b5b0492506008810190505b612710831061292057612710838161291657612915614159565b5b0492506004810190505b60648310612943576064838161293957612938614159565b5b0492506002810190505b600a8310612952576001810190505b80915050919050565b60405180610100016040528060008152602001600073ffffffffffffffffffffffffffffffffffffffff1681526020016000815260200160008152602001600073ffffffffffffffffffffffffffffffffffffffff168152602001600081526020016000151581526020016000151581525090565b6000604051905090565b600080fd5b600080fd5b60007fffffffff0000000000000000000000000000000000000000000000000000000082169050919050565b612a19816129e4565b8114612a2457600080fd5b50565b600081359050612a3681612a10565b92915050565b600060208284031215612a5257612a516129da565b5b6000612a6084828501612a27565b91505092915050565b60008115159050919050565b612a7e81612a69565b82525050565b6000602082019050612a996000830184612a75565b92915050565b600081519050919050565b600082825260208201905092915050565b60005b83811015612ad9578082015181840152602081019050612abe565b60008484015250505050565b6000601f19601f8301169050919050565b6000612b0182612a9f565b612b0b8185612aaa565b9350612b1b818560208601612abb565b612b2481612ae5565b840191505092915050565b60006020820190508181036000830152612b498184612af6565b905092915050565b6000819050919050565b612b6481612b51565b8114612b6f57600080fd5b50565b600081359050612b8181612b5b565b92915050565b600060208284031215612b9d57612b9c6129da565b5b6000612bab84828501612b72565b91505092915050565b600073ffffffffffffffffffffffffffffffffffffffff82169050919050565b6000612bdf82612bb4565b9050919050565b612bef81612bd4565b82525050565b6000602082019050612c0a6000830184612be6565b92915050565b612c1981612bd4565b8114612c2457600080fd5b50565b600081359050612c3681612c10565b92915050565b60008060408385031215612c5357612c526129da565b5b6000612c6185828601612c27565b9250506020612c7285828601612b72565b9150509250929050565b600081519050919050565b600082825260208201905092915050565b6000819050602082019050919050565b612cb181612bd4565b82525050565b612cc081612b51565b82525050565b604082016000820151612cdc6000850182612ca8565b506020820151612cef6020850182612cb7565b50505050565b6000612d018383612cc6565b60408301905092915050565b6000602082019050919050565b6000612d2582612c7c565b612d2f8185612c87565b9350612d3a83612c98565b8060005b83811015612d6b578151612d528882612cf5565b9750612d5d83612d0d565b925050600181019050612d3e565b5085935050505092915050565b60006020820190508181036000830152612d928184612d1a565b905092915050565b600080600060608486031215612db357612db26129da565b5b6000612dc186828701612c27565b9350506020612dd286828701612c27565b9250506040612de386828701612b72565b9150509250925092565b600060208284031215612e0357612e026129da565b5b6000612e1184828501612c27565b91505092915050565b612e2381612b51565b82525050565b6000602082019050612e3e6000830184612e1a565b92915050565b600080fd5b600080fd5b7f4e487b7100000000000000000000000000000000000000000000000000000000600052604160045260246000fd5b612e8682612ae5565b810181811067ffffffffffffffff82111715612ea557612ea4612e4e565b5b80604052505050565b6000612eb86129d0565b9050612ec48282612e7d565b919050565b600067ffffffffffffffff821115612ee457612ee3612e4e565b5b612eed82612ae5565b9050602081019050919050565b82818337600083830152505050565b6000612f1c612f1784612ec9565b612eae565b905082815260208101848484011115612f3857612f37612e49565b5b612f43848285612efa565b509392505050565b600082601f830112612f6057612f5f612e44565b5b8135612f70848260208601612f09565b91505092915050565b600080600060608486031215612f9257612f916129da565b5b600084013567ffffffffffffffff811115612fb057612faf6129df565b5b612fbc86828701612f4b565b9350506020612fcd86828701612b72565b9250506040612fde86828701612b72565b9150509250925092565b6000612ff382612bb4565b9050919050565b61300381612fe8565b82525050565b60006101008201905061301f600083018b612e1a565b61302c602083018a612ffa565b6130396040830189612e1a565b6130466060830188612e1a565b6130536080830187612ffa565b61306060a0830186612e1a565b61306d60c0830185612a75565b61307a60e0830184612a75565b9998505050505050505050565b6000806040838503121561309e5761309d6129da565b5b60006130ac85828601612b72565b92505060206130bd85828601612b72565b9150509250929050565b60006040820190506130dc6000830185612be6565b6130e96020830184612e1a565b9392505050565b6130f981612fe8565b82525050565b61310881612a69565b82525050565b610100820160008201516131256000850182612cb7565b50602082015161313860208501826130f0565b50604082015161314b6040850182612cb7565b50606082015161315e6060850182612cb7565b50608082015161317160808501826130f0565b5060a082015161318460a0850182612cb7565b5060c082015161319760c08501826130ff565b5060e08201516131aa60e08501826130ff565b50505050565b6000610100820190506131c6600083018461310e565b92915050565b6131d581612a69565b81146131e057600080fd5b50565b6000813590506131f2816131cc565b92915050565b6000806040838503121561320f5761320e6129da565b5b600061321d85828601612c27565b925050602061322e858286016131e3565b9150509250929050565b600067ffffffffffffffff82111561325357613252612e4e565b5b61325c82612ae5565b9050602081019050919050565b600061327c61327784613238565b612eae565b90508281526020810184848401111561329857613297612e49565b5b6132a3848285612efa565b509392505050565b600082601f8301126132c0576132bf612e44565b5b81356132d0848260208601613269565b91505092915050565b600080600080608085870312156132f3576132f26129da565b5b600061330187828801612c27565b945050602061331287828801612c27565b935050604061332387828801612b72565b925050606085013567ffffffffffffffff811115613344576133436129df565b5b613350878288016132ab565b91505092959194509250565b60008060408385031215613373576133726129da565b5b600061338185828601612c27565b925050602061339285828601612c27565b9150509250929050565b7f4e487b7100000000000000000000000000000000000000000000000000000000600052602260045260246000fd5b600060028204905060018216806133e357607f821691505b6020821081036133f6576133f561339c565b5b50919050565b7f4552433732313a20617070726f76616c20746f2063757272656e74206f776e6560008201527f7200000000000000000000000000000000000000000000000000000000000000602082015250565b6000613458602183612aaa565b9150613463826133fc565b604082019050919050565b600060208201905081810360008301526134878161344b565b9050919050565b7f4552433732313a20617070726f76652063616c6c6572206973206e6f7420746f60008201527f6b656e206f776e6572206f7220617070726f76656420666f7220616c6c000000602082015250565b60006134ea603d83612aaa565b91506134f58261348e565b604082019050919050565b60006020820190508181036000830152613519816134dd565b9050919050565b7f4552433732313a2063616c6c6572206973206e6f7420746f6b656e206f776e6560008201527f72206f7220617070726f76656400000000000000000000000000000000000000602082015250565b600061357c602d83612aaa565b915061358782613520565b604082019050919050565b600060208201905081810360008301526135ab8161356f565b9050919050565b7f4e487b7100000000000000000000000000000000000000000000000000000000600052601160045260246000fd5b60006135ec82612b51565b91506135f783612b51565b925082820190508082111561360f5761360e6135b2565b5b92915050565b600060408201905061362a6000830185612e1a565b6136376020830184612e1a565b9392505050565b7f4e6f2066756e6473000000000000000000000000000000000000000000000000600082015250565b6000613674600883612aaa565b915061367f8261363e565b602082019050919050565b600060208201905081810360008301526136a381613667565b9050919050565b7f4552433732313a20696e76616c696420746f6b656e2049440000000000000000600082015250565b60006136e0601883612aaa565b91506136eb826136aa565b602082019050919050565b6000602082019050818103600083015261370f816136d3565b9050919050565b7f4552433732313a2061646472657373207a65726f206973206e6f74206120766160008201527f6c6964206f776e65720000000000000000000000000000000000000000000000602082015250565b6000613772602983612aaa565b915061377d82613716565b604082019050919050565b600060208201905081810360008301526137a181613765565b9050919050565b7f41756374696f6e206e6f74206c69766500000000000000000000000000000000600082015250565b60006137de601083612aaa565b91506137e9826137a8565b602082019050919050565b6000602082019050818103600083015261380d816137d1565b9050919050565b7f41756374696f6e20656e64656400000000000000000000000000000000000000600082015250565b600061384a600d83612aaa565b915061385582613814565b602082019050919050565b600060208201905081810360008301526138798161383d565b9050919050565b7f42696420746f6f206c6f77000000000000000000000000000000000000000000600082015250565b60006138b6600b83612aaa565b91506138c182613880565b602082019050919050565b600060208201905081810360008301526138e5816138a9565b9050919050565b7f41756374696f6e207374696c6c20616374697665000000000000000000000000600082015250565b6000613922601483612aaa565b915061392d826138ec565b602082019050919050565b6000602082019050818103600083015261395181613915565b9050919050565b7f41756374696f6e20616c726561647920656e6465640000000000000000000000600082015250565b600061398e601583612aaa565b915061399982613958565b602082019050919050565b600060208201905081810360008301526139bd81613981565b9050919050565b600081905092915050565b60006139da82612a9f565b6139e481856139c4565b93506139f4818560208601612abb565b80840191505092915050565b6000613a0c82856139cf565b9150613a1882846139cf565b91508190509392505050565b7f4552433732313a207472616e736665722066726f6d20696e636f72726563742060008201527f6f776e6572000000000000000000000000000000000000000000000000000000602082015250565b6000613a80602583612aaa565b9150613a8b82613a24565b604082019050919050565b60006020820190508181036000830152613aaf81613a73565b9050919050565b7f4552433732313a207472616e7366657220746f20746865207a65726f2061646460008201527f7265737300000000000000000000000000000000000000000000000000000000602082015250565b6000613b12602483612aaa565b9150613b1d82613ab6565b604082019050919050565b60006020820190508181036000830152613b4181613b05565b9050919050565b6000613b5382612b51565b91507fffffffffffffffffffffffffffffffffffffffffffffffffffffffffffffffff8203613b8557613b846135b2565b5b600182019050919050565b7f4552433732313a20617070726f766520746f2063616c6c657200000000000000600082015250565b6000613bc6601983612aaa565b9150613bd182613b90565b602082019050919050565b60006020820190508181036000830152613bf581613bb9565b9050919050565b7f4552433732313a207472616e7366657220746f206e6f6e20455243373231526560008201527f63656976657220696d706c656d656e7465720000000000000000000000000000602082015250565b6000613c58603283612aaa565b9150613c6382613bfc565b604082019050919050565b60006020820190508181036000830152613c8781613c4b565b9050919050565b7f4552433732313a206d696e7420746f20746865207a65726f2061646472657373600082015250565b6000613cc4602083612aaa565b9150613ccf82613c8e565b602082019050919050565b60006020820190508181036000830152613cf381613cb7565b9050919050565b7f4552433732313a20746f6b656e20616c7265616479206d696e74656400000000600082015250565b6000613d30601c83612aaa565b9150613d3b82613cfa565b602082019050919050565b60006020820190508181036000830152613d5f81613d23565b9050919050565b7f45524337323155524953746f726167653a2055524920736574206f66206e6f6e60008201527f6578697374656e7420746f6b656e000000000000000000000000000000000000602082015250565b6000613dc2602e83612aaa565b9150613dcd82613d66565b604082019050919050565b60006020820190508181036000830152613df181613db5565b9050919050565b60008190508160005260206000209050919050565b60006020601f8301049050919050565b600082821b905092915050565b600060088302613e5a7fffffffffffffffffffffffffffffffffffffffffffffffffffffffffffffffff82613e1d565b613e648683613e1d565b95508019841693508086168417925050509392505050565b6000819050919050565b6000613ea1613e9c613e9784612b51565b613e7c565b612b51565b9050919050565b6000819050919050565b613ebb83613e86565b613ecf613ec782613ea8565b848454613e2a565b825550505050565b600090565b613ee4613ed7565b613eef818484613eb2565b505050565b5b81811015613f1357613f08600082613edc565b600181019050613ef5565b5050565b601f821115613f5857613f2981613df8565b613f3284613e0d565b81016020851015613f41578190505b613f55613f4d85613e0d565b830182613ef4565b50505b505050565b600082821c905092915050565b6000613f7b60001984600802613f5d565b1980831691505092915050565b6000613f948383613f6a565b9150826002028217905092915050565b613fad82612a9f565b67ffffffffffffffff811115613fc657613fc5612e4e565b5b613fd082546133cb565b613fdb828285613f17565b600060209050601f83116001811461400e5760008415613ffc578287015190505b6140068582613f88565b86555061406e565b601f19841661401c86613df8565b60005b828110156140445784890151825560018201915060208501945060208101905061401f565b86831015614061578489015161405d601f891682613f6a565b8355505b6001600288020188555050505b505050505050565b600081519050919050565b600082825260208201905092915050565b600061409d82614076565b6140a78185614081565b93506140b7818560208601612abb565b6140c081612ae5565b840191505092915050565b60006080820190506140e06000830187612be6565b6140ed6020830186612be6565b6140fa6040830185612e1a565b818103606083015261410c8184614092565b905095945050505050565b60008151905061412681612a10565b92915050565b600060208284031215614142576141416129da565b5b600061415084828501614117565b91505092915050565b7f4e487b7100000000000000000000000000000000000000000000000000000000600052601260045260246000fdfea2646970667358221220035e6ecd4f1918773bd9d2f9aba923082a14e12c84fd93d0f61f3846d189fe3464736f6c63430008130033",
  "immutableReferences": {},
  "source": "// SPDX-License-Identifier: MIT\npragma solidity 0.8.19;\n\nimport \"@openzeppelin/contracts/token/ERC721/ERC721.sol\";\nimport \"@openzeppelin/contracts/token/ERC721/extensions/ERC721URIStorage.sol\";\n\ncontract Auction is ERC721URIStorage {\n    uint256 private _tokenId = 1;\n\n    struct AuctionItem {\n    uint256 tokenId;\n    address payable seller;\n    uint256 startingPrice;\n    uint256 highestBid;\n    address payable highestBidder;\n    uint256 endTime;\n    bool isLive;\n    bool isSold;\n    }\n\n    mapping(uint256 => AuctionItem) public auctions;\n\n    event AuctionCreated(\n        uint256 indexed tokenId,\n        address indexed seller,\n        uint256 startingPrice,\n        uint256 endTime\n    );\n    \n    event BidPlaced(\n        uint256 indexed tokenId,\n        address indexed bidder,\n        uint256 bidAmount\n    );\n\n    event AuctionEnded(\n        uint256 indexed tokenId,\n        address indexed winner,\n        uint256 winningBid\n    );\n\n    constructor() ERC721(\"AuctionToken\", \"ATK\") {}\n\n    function mintToken(string memory tokenURI) internal returns (uint256) {\n        uint256 currentId = _tokenId;\n        _mint(msg.sender, currentId);\n        _setTokenURI(currentId, tokenURI);\n        _tokenId++;\n        return currentId;\n    }\n\n   // Create Auction\n    function createAuction(string memory tokenURI, uint256 startingPrice, uint256 durationInSeconds) public {\n        uint256 tokenId = mintToken(tokenURI);\n\n        auctions[tokenId] = AuctionItem({\n            tokenId: tokenId,\n            seller: payable(msg.sender),\n            startingPrice: startingPrice,\n            highestBid: 0,\n            highestBidder: payable(address(0)),\n            endTime: block.timestamp + durationInSeconds,\n            isLive: true,\n            isSold: false\n        });\n\n        // Transfer NFT to contract\n        _transfer(msg.sender, address(this), tokenId);\n\n        emit AuctionCreated(tokenId, msg.sender, startingPrice, block.timestamp + durationInSeconds);\n    }\n\n    mapping(address => uint256) public pendingReturns;\n\nfunction placeBid(uint256 tokenId) public payable {\n    AuctionItem storage auction = auctions[tokenId];\n\n    require(auction.isLive, \"Auction not live\");\n    require(block.timestamp < auction.endTime, \"Auction ended\");\n    require(msg.value > auction.highestBid, \"Bid too low\");\n\n    if (auction.highestBidder != address(0)) {\n        // store funds instead of sending immediately\n        pendingReturns[auction.highestBidder] += auction.highestBid;\n    }\n\n    auction.highestBid = msg.value;\n    auction.highestBidder = payable(msg.sender);\n    auctionBids[tokenId].push(Bid({\n    bidder: msg.sender,\n    amount: msg.value\n}));\n\n    emit BidPlaced(tokenId, msg.sender, msg.value);\n}\n\nfunction withdraw() public {\n    uint amount = pendingReturns[msg.sender];\n    require(amount > 0, \"No funds\");\n\n    pendingReturns[msg.sender] = 0;\n    payable(msg.sender).transfer(amount);\n}\n\n\n    // End Auction and claim item\n    function endAuction(uint256 tokenId) public {\n        AuctionItem storage auction = auctions[tokenId];\n\n        require(auction.isLive, \"Auction not live\");\n        require(block.timestamp >= auction.endTime, \"Auction still active\");\n        require(!auction.isSold, \"Auction already ended\");\n\n        auction.isLive = false;\n        auction.isSold = true;\n\n        if (auction.highestBidder != address(0)) {\n            // Winner  Transfer NFT\n            _transfer(address(this), auction.highestBidder, tokenId);\n            // Send ETH to seller\n            auction.seller.transfer(auction.highestBid);\n            emit AuctionEnded(tokenId, auction.highestBidder, auction.highestBid);\n        } else {\n            // No bids  return NFT to seller\n            _transfer(address(this), auction.seller, tokenId);\n        }\n    }\n\n    // Get Auction Details\n    function getAuction(uint256 tokenId) public view returns (AuctionItem memory) {\n        return auctions[tokenId];\n    }\n\n    // Get contract balance (optional utility)\n    function getContractBalance() public view returns (uint256) {\n        return address(this).balance;\n    }\n\n    function isAuctionEnded(uint256 tokenId) public view returns (bool) {\n    return block.timestamp >= auctions[tokenId].endTime;\n}\nstruct Bid {\n    address bidder;\n    uint256 amount;\n}\n\nBid[] public bidHistory;\nmapping(uint256 => Bid[]) public auctionBids;\n\nfunction getBids(uint256 tokenId) public view returns (Bid[] memory) {\n    return auctionBids[tokenId];\n}\n\n}",
  "sourcePath": "/Users/padmapriyavijayaragavarengaraj/Documents/GitHub/Auction-DApp/contracts/Auction.sol",
  "compiler": {
    "name": "solc",
    "version": "0.8.19+commit.7dd6d404.Emscripten.clang"
  },
  "schemaVersion": "3.4.16",
  "updatedAt": "2025-05-01T09:00:59.455Z",
  "devdoc": {
    "events": {
      "Approval(address,address,uint256)": {
        "details": "Emitted when `owner` enables `approved` to manage the `tokenId` token."
      },
      "ApprovalForAll(address,address,bool)": {
        "details": "Emitted when `owner` enables or disables (`approved`) `operator` to manage all of its assets."
      },
      "BatchMetadataUpdate(uint256,uint256)": {
        "details": "This event emits when the metadata of a range of tokens is changed. So that the third-party platforms such as NFT market could timely update the images and related attributes of the NFTs."
      },
      "MetadataUpdate(uint256)": {
        "details": "This event emits when the metadata of a token is changed. So that the third-party platforms such as NFT market could timely update the images and related attributes of the NFT."
      },
      "Transfer(address,address,uint256)": {
        "details": "Emitted when `tokenId` token is transferred from `from` to `to`."
      }
    },
    "kind": "dev",
    "methods": {
      "approve(address,uint256)": {
        "details": "See {IERC721-approve}."
      },
      "balanceOf(address)": {
        "details": "See {IERC721-balanceOf}."
      },
      "getApproved(uint256)": {
        "details": "See {IERC721-getApproved}."
      },
      "isApprovedForAll(address,address)": {
        "details": "See {IERC721-isApprovedForAll}."
      },
      "name()": {
        "details": "See {IERC721Metadata-name}."
      },
      "ownerOf(uint256)": {
        "details": "See {IERC721-ownerOf}."
      },
      "safeTransferFrom(address,address,uint256)": {
        "details": "See {IERC721-safeTransferFrom}."
      },
      "safeTransferFrom(address,address,uint256,bytes)": {
        "details": "See {IERC721-safeTransferFrom}."
      },
      "setApprovalForAll(address,bool)": {
        "details": "See {IERC721-setApprovalForAll}."
      },
      "supportsInterface(bytes4)": {
        "details": "See {IERC165-supportsInterface}"
      },
      "symbol()": {
        "details": "See {IERC721Metadata-symbol}."
      },
      "tokenURI(uint256)": {
        "details": "See {IERC721Metadata-tokenURI}."
      },
      "transferFrom(address,address,uint256)": {
        "details": "See {IERC721-transferFrom}."
      }
    },
    "version": 1
  },
  "userdoc": {
    "kind": "user",
    "methods": {},
    "version": 1
  }
}