{
  "contractName": "NFTAuction",
  "abi": [
    {
      "inputs": [],
      "stateMutability": "nonpayable",
      "type": "constructor"
    },
    {
      "anonymous": false,
      "inputs": [
        {
          "indexed": true,
          "internalType": "address",
          "name": "owner",
          "type": "address"
        },
        {
          "indexed": true,
          "internalType": "address",
          "name": "approved",
          "type": "address"
        },
        {
          "indexed": true,
          "internalType": "uint256",
          "name": "tokenId",
          "type": "uint256"
        }
      ],
      "name": "Approval",
      "type": "event"
    },
    {
      "anonymous": false,
      "inputs": [
        {
          "indexed": true,
          "internalType": "address",
          "name": "owner",
          "type": "address"
        },
        {
          "indexed": true,
          "internalType": "address",
          "name": "operator",
          "type": "address"
        },
        {
          "indexed": false,
          "internalType": "bool",
          "name": "approved",
          "type": "bool"
        }
      ],
      "name": "ApprovalForAll",
      "type": "event"
    },
    {
      "anonymous": false,
      "inputs": [
        {
          "indexed": false,
          "internalType": "uint256",
          "name": "_fromTokenId",
          "type": "uint256"
        },
        {
          "indexed": false,
          "internalType": "uint256",
          "name": "_toTokenId",
          "type": "uint256"
        }
      ],
      "name": "BatchMetadataUpdate",
      "type": "event"
    },
    {
      "anonymous": false,
      "inputs": [
        {
          "indexed": false,
          "internalType": "uint256",
          "name": "_tokenId",
          "type": "uint256"
        }
      ],
      "name": "MetadataUpdate",
      "type": "event"
    },
    {
      "anonymous": false,
      "inputs": [
        {
          "indexed": true,
          "internalType": "address",
          "name": "from",
          "type": "address"
        },
        {
          "indexed": true,
          "internalType": "address",
          "name": "to",
          "type": "address"
        },
        {
          "indexed": true,
          "internalType": "uint256",
          "name": "tokenId",
          "type": "uint256"
        }
      ],
      "name": "Transfer",
      "type": "event"
    },
    {
      "inputs": [
        {
          "internalType": "address",
          "name": "to",
          "type": "address"
        },
        {
          "internalType": "uint256",
          "name": "tokenId",
          "type": "uint256"
        }
      ],
      "name": "approve",
      "outputs": [],
      "stateMutability": "nonpayable",
      "type": "function"
    },
    {
      "inputs": [
        {
          "internalType": "address",
          "name": "owner",
          "type": "address"
        }
      ],
      "name": "balanceOf",
      "outputs": [
        {
          "internalType": "uint256",
          "name": "",
          "type": "uint256"
        }
      ],
      "stateMutability": "view",
      "type": "function",
      "constant": true
    },
    {
      "inputs": [
        {
          "internalType": "uint256",
          "name": "tokenId",
          "type": "uint256"
        }
      ],
      "name": "getApproved",
      "outputs": [
        {
          "internalType": "address",
          "name": "",
          "type": "address"
        }
      ],
      "stateMutability": "view",
      "type": "function",
      "constant": true
    },
    {
      "inputs": [
        {
          "internalType": "address",
          "name": "owner",
          "type": "address"
        },
        {
          "internalType": "address",
          "name": "operator",
          "type": "address"
        }
      ],
      "name": "isApprovedForAll",
      "outputs": [
        {
          "internalType": "bool",
          "name": "",
          "type": "bool"
        }
      ],
      "stateMutability": "view",
      "type": "function",
      "constant": true
    },
    {
      "inputs": [],
      "name": "name",
      "outputs": [
        {
          "internalType": "string",
          "name": "",
          "type": "string"
        }
      ],
      "stateMutability": "view",
      "type": "function",
      "constant": true
    },
    {
      "inputs": [
        {
          "internalType": "uint256",
          "name": "tokenId",
          "type": "uint256"
        }
      ],
      "name": "ownerOf",
      "outputs": [
        {
          "internalType": "address",
          "name": "",
          "type": "address"
        }
      ],
      "stateMutability": "view",
      "type": "function",
      "constant": true
    },
    {
      "inputs": [
        {
          "internalType": "address",
          "name": "from",
          "type": "address"
        },
        {
          "internalType": "address",
          "name": "to",
          "type": "address"
        },
        {
          "internalType": "uint256",
          "name": "tokenId",
          "type": "uint256"
        }
      ],
      "name": "safeTransferFrom",
      "outputs": [],
      "stateMutability": "nonpayable",
      "type": "function"
    },
    {
      "inputs": [
        {
          "internalType": "address",
          "name": "from",
          "type": "address"
        },
        {
          "internalType": "address",
          "name": "to",
          "type": "address"
        },
        {
          "internalType": "uint256",
          "name": "tokenId",
          "type": "uint256"
        },
        {
          "internalType": "bytes",
          "name": "data",
          "type": "bytes"
        }
      ],
      "name": "safeTransferFrom",
      "outputs": [],
      "stateMutability": "nonpayable",
      "type": "function"
    },
    {
      "inputs": [
        {
          "internalType": "address",
          "name": "operator",
          "type": "address"
        },
        {
          "internalType": "bool",
          "name": "approved",
          "type": "bool"
        }
      ],
      "name": "setApprovalForAll",
      "outputs": [],
      "stateMutability": "nonpayable",
      "type": "function"
    },
    {
      "inputs": [
        {
          "internalType": "bytes4",
          "name": "interfaceId",
          "type": "bytes4"
        }
      ],
      "name": "supportsInterface",
      "outputs": [
        {
          "internalType": "bool",
          "name": "",
          "type": "bool"
        }
      ],
      "stateMutability": "view",
      "type": "function",
      "constant": true
    },
    {
      "inputs": [],
      "name": "symbol",
      "outputs": [
        {
          "internalType": "string",
          "name": "",
          "type": "string"
        }
      ],
      "stateMutability": "view",
      "type": "function",
      "constant": true
    },
    {
      "inputs": [
        {
          "internalType": "uint256",
          "name": "tokenId",
          "type": "uint256"
        }
      ],
      "name": "tokenURI",
      "outputs": [
        {
          "internalType": "string",
          "name": "",
          "type": "string"
        }
      ],
      "stateMutability": "view",
      "type": "function",
      "constant": true
    },
    {
      "inputs": [
        {
          "internalType": "address",
          "name": "from",
          "type": "address"
        },
        {
          "internalType": "address",
          "name": "to",
          "type": "address"
        },
        {
          "internalType": "uint256",
          "name": "tokenId",
          "type": "uint256"
        }
      ],
      "name": "transferFrom",
      "outputs": [],
      "stateMutability": "nonpayable",
      "type": "function"
    },
    {
      "inputs": [
        {
          "internalType": "uint256",
          "name": "_listPrice",
          "type": "uint256"
        }
      ],
      "name": "updateListPrice",
      "outputs": [],
      "stateMutability": "payable",
      "type": "function",
      "payable": true
    },
    {
      "inputs": [],
      "name": "getListPrice",
      "outputs": [
        {
          "internalType": "uint256",
          "name": "",
          "type": "uint256"
        }
      ],
      "stateMutability": "view",
      "type": "function",
      "constant": true
    },
    {
      "inputs": [],
      "name": "getLatestIdToListedToken",
      "outputs": [
        {
          "components": [
            {
              "internalType": "uint256",
              "name": "tokenId",
              "type": "uint256"
            },
            {
              "internalType": "address payable",
              "name": "owner",
              "type": "address"
            },
            {
              "internalType": "address payable",
              "name": "seller",
              "type": "address"
            },
            {
              "internalType": "uint256",
              "name": "price",
              "type": "uint256"
            },
            {
              "internalType": "bool",
              "name": "currentlyListed",
              "type": "bool"
            }
          ],
          "internalType": "struct NFTAuction.ListedToken",
          "name": "",
          "type": "tuple"
        }
      ],
      "stateMutability": "view",
      "type": "function",
      "constant": true
    },
    {
      "inputs": [
        {
          "internalType": "uint256",
          "name": "tokenId",
          "type": "uint256"
        }
      ],
      "name": "getListedTokenForId",
      "outputs": [
        {
          "components": [
            {
              "internalType": "uint256",
              "name": "tokenId",
              "type": "uint256"
            },
            {
              "internalType": "address payable",
              "name": "owner",
              "type": "address"
            },
            {
              "internalType": "address payable",
              "name": "seller",
              "type": "address"
            },
            {
              "internalType": "uint256",
              "name": "price",
              "type": "uint256"
            },
            {
              "internalType": "bool",
              "name": "currentlyListed",
              "type": "bool"
            }
          ],
          "internalType": "struct NFTAuction.ListedToken",
          "name": "",
          "type": "tuple"
        }
      ],
      "stateMutability": "view",
      "type": "function",
      "constant": true
    },
    {
      "inputs": [],
      "name": "getCurrentToken",
      "outputs": [
        {
          "internalType": "uint256",
          "name": "",
          "type": "uint256"
        }
      ],
      "stateMutability": "view",
      "type": "function",
      "constant": true
    },
    {
      "inputs": [
        {
          "internalType": "string",
          "name": "tokenURI",
          "type": "string"
        },
        {
          "internalType": "uint256",
          "name": "price",
          "type": "uint256"
        }
      ],
      "name": "createToken",
      "outputs": [
        {
          "internalType": "uint256",
          "name": "",
          "type": "uint256"
        }
      ],
      "stateMutability": "payable",
      "type": "function",
      "payable": true
    },
    {
      "inputs": [],
      "name": "getAllNFTs",
      "outputs": [
        {
          "components": [
            {
              "internalType": "uint256",
              "name": "tokenId",
              "type": "uint256"
            },
            {
              "internalType": "address payable",
              "name": "owner",
              "type": "address"
            },
            {
              "internalType": "address payable",
              "name": "seller",
              "type": "address"
            },
            {
              "internalType": "uint256",
              "name": "price",
              "type": "uint256"
            },
            {
              "internalType": "bool",
              "name": "currentlyListed",
              "type": "bool"
            }
          ],
          "internalType": "struct NFTAuction.ListedToken[]",
          "name": "",
          "type": "tuple[]"
        }
      ],
      "stateMutability": "view",
      "type": "function",
      "constant": true
    },
    {
      "inputs": [],
      "name": "getMyNFTs",
      "outputs": [
        {
          "components": [
            {
              "internalType": "uint256",
              "name": "tokenId",
              "type": "uint256"
            },
            {
              "internalType": "address payable",
              "name": "owner",
              "type": "address"
            },
            {
              "internalType": "address payable",
              "name": "seller",
              "type": "address"
            },
            {
              "internalType": "uint256",
              "name": "price",
              "type": "uint256"
            },
            {
              "internalType": "bool",
              "name": "currentlyListed",
              "type": "bool"
            }
          ],
          "internalType": "struct NFTAuction.ListedToken[]",
          "name": "",
          "type": "tuple[]"
        }
      ],
      "stateMutability": "view",
      "type": "function",
      "constant": true
    },
    {
      "inputs": [
        {
          "internalType": "uint256",
          "name": "tokenId",
          "type": "uint256"
        }
      ],
      "name": "executeSale",
      "outputs": [],
      "stateMutability": "payable",
      "type": "function",
      "payable": true
    }
  ],
  "bytecode": "0x6080604052662386f26fc10000600a553480156200001c57600080fd5b506040518060400160405280600c81526020017f41756374696f6e546f6b656e00000000000000000000000000000000000000008152506040518060400160405280600681526020017f415543544b4e000000000000000000000000000000000000000000000000000081525081600090816200009a919062000370565b508060019081620000ac919062000370565b50505033600960006101000a81548173ffffffffffffffffffffffffffffffffffffffff021916908373ffffffffffffffffffffffffffffffffffffffff16021790555062000457565b600081519050919050565b7f4e487b7100000000000000000000000000000000000000000000000000000000600052604160045260246000fd5b7f4e487b7100000000000000000000000000000000000000000000000000000000600052602260045260246000fd5b600060028204905060018216806200017857607f821691505b6020821081036200018e576200018d62000130565b5b50919050565b60008190508160005260206000209050919050565b60006020601f8301049050919050565b600082821b905092915050565b600060088302620001f87fffffffffffffffffffffffffffffffffffffffffffffffffffffffffffffffff82620001b9565b620002048683620001b9565b95508019841693508086168417925050509392505050565b6000819050919050565b6000819050919050565b6000620002516200024b62000245846200021c565b62000226565b6200021c565b9050919050565b6000819050919050565b6200026d8362000230565b620002856200027c8262000258565b848454620001c6565b825550505050565b600090565b6200029c6200028d565b620002a981848462000262565b505050565b5b81811015620002d157620002c560008262000292565b600181019050620002af565b5050565b601f8211156200032057620002ea8162000194565b620002f584620001a9565b8101602085101562000305578190505b6200031d6200031485620001a9565b830182620002ae565b50505b505050565b600082821c905092915050565b6000620003456000198460080262000325565b1980831691505092915050565b600062000360838362000332565b9150826002028217905092915050565b6200037b82620000f6565b67ffffffffffffffff81111562000397576200039662000101565b5b620003a382546200015f565b620003b0828285620002d5565b600060209050601f831160018114620003e85760008415620003d3578287015190505b620003df858262000352565b8655506200044f565b601f198416620003f88662000194565b60005b828110156200042257848901518255600182019150602085019450602081019050620003fb565b868310156200044257848901516200043e601f89168262000332565b8355505b6001600288020188555050505b505050505050565b61400680620004676000396000f3fe6080604052600436106101355760003560e01c80638e264590116100ab578063c322579c1161006f578063c322579c14610430578063c87b56dd1461044c578063d1a88ae514610489578063e0391b09146104b4578063e985e9c5146104df578063ef2d17461461051c57610135565b80638e2645901461035a57806395d89b41146103975780639b1225c4146103c2578063a22cb465146103de578063b88d4fde1461040757610135565b806342842e0e116100fd57806342842e0e14610231578063629cb2e41461025a5780636352211e1461028557806368f1945f146102c257806370a08231146102ed57806372b3b6201461032a57610135565b806301ffc9a71461013a57806306fdde0314610177578063081812fc146101a2578063095ea7b3146101df57806323b872dd14610208575b600080fd5b34801561014657600080fd5b50610161600480360381019061015c919061296c565b610547565b60405161016e91906129b4565b60405180910390f35b34801561018357600080fd5b5061018c6105a8565b6040516101999190612a5f565b60405180910390f35b3480156101ae57600080fd5b506101c960048036038101906101c49190612ab7565b61063a565b6040516101d69190612b25565b60405180910390f35b3480156101eb57600080fd5b5061020660048036038101906102019190612b6c565b610680565b005b34801561021457600080fd5b5061022f600480360381019061022a9190612bac565b610797565b005b34801561023d57600080fd5b5061025860048036038101906102539190612bac565b6107f7565b005b34801561026657600080fd5b5061026f610817565b60405161027c9190612d55565b60405180910390f35b34801561029157600080fd5b506102ac60048036038101906102a79190612ab7565b610bf8565b6040516102b99190612b25565b60405180910390f35b3480156102ce57600080fd5b506102d7610c7e565b6040516102e49190612d86565b60405180910390f35b3480156102f957600080fd5b50610314600480360381019061030f9190612da1565b610c88565b6040516103219190612d86565b60405180910390f35b610344600480360381019061033f9190612f03565b610d3f565b6040516103519190612d86565b60405180910390f35b34801561036657600080fd5b50610381600480360381019061037c9190612ab7565b610dc3565b60405161038e9190612fc7565b60405180910390f35b3480156103a357600080fd5b506103ac610ecb565b6040516103b99190612a5f565b60405180910390f35b6103dc60048036038101906103d79190612ab7565b610f5d565b005b3480156103ea57600080fd5b506104056004803603810190610400919061300e565b61114f565b005b34801561041357600080fd5b5061042e600480360381019061042991906130ef565b611165565b005b61044a60048036038101906104459190612ab7565b6111c7565b005b34801561045857600080fd5b50610473600480360381019061046e9190612ab7565b611261565b6040516104809190612a5f565b60405180910390f35b34801561049557600080fd5b5061049e611373565b6040516104ab9190612fc7565b60405180910390f35b3480156104c057600080fd5b506104c9611488565b6040516104d69190612d55565b60405180910390f35b3480156104eb57600080fd5b5061050660048036038101906105019190613172565b61165a565b60405161051391906129b4565b60405180910390f35b34801561052857600080fd5b506105316116ee565b60405161053e9190612d86565b60405180910390f35b6000634906490660e01b7bffffffffffffffffffffffffffffffffffffffffffffffffffffffff1916827bffffffffffffffffffffffffffffffffffffffffffffffffffffffff191614806105a157506105a0826116ff565b5b9050919050565b6060600080546105b7906131e1565b80601f01602080910402602001604051908101604052809291908181526020018280546105e3906131e1565b80156106305780601f1061060557610100808354040283529160200191610630565b820191906000526020600020905b81548152906001019060200180831161061357829003601f168201915b5050505050905090565b6000610645826117e1565b6004600083815260200190815260200160002060009054906101000a900473ffffffffffffffffffffffffffffffffffffffff169050919050565b600061068b82610bf8565b90508073ffffffffffffffffffffffffffffffffffffffff168373ffffffffffffffffffffffffffffffffffffffff16036106fb576040517f08c379a00000000000000000000000000000000000000000000000000000000081526004016106f290613284565b60405180910390fd5b8073ffffffffffffffffffffffffffffffffffffffff1661071a61182c565b73ffffffffffffffffffffffffffffffffffffffff16148061074957506107488161074361182c565b61165a565b5b610788576040517f08c379a000000000000000000000000000000000000000000000000000000000815260040161077f90613316565b60405180910390fd5b6107928383611834565b505050565b6107a86107a261182c565b826118ed565b6107e7576040517f08c379a00000000000000000000000000000000000000000000000000000000081526004016107de906133a8565b60405180910390fd5b6107f2838383611982565b505050565b61081283838360405180602001604052806000815250611165565b505050565b606060006108256007611c7b565b9050600080600080600090505b8481101561094b573373ffffffffffffffffffffffffffffffffffffffff16600b600060018461086291906133f7565b815260200190815260200160002060010160009054906101000a900473ffffffffffffffffffffffffffffffffffffffff1673ffffffffffffffffffffffffffffffffffffffff16148061092357503373ffffffffffffffffffffffffffffffffffffffff16600b60006001846108d991906133f7565b815260200190815260200160002060020160009054906101000a900473ffffffffffffffffffffffffffffffffffffffff1673ffffffffffffffffffffffffffffffffffffffff16145b156109385760018461093591906133f7565b93505b80806109439061342b565b915050610832565b5060008367ffffffffffffffff81111561096857610967612dd8565b5b6040519080825280602002602001820160405280156109a157816020015b61098e6128a3565b8152602001906001900390816109865790505b50905060005b85811015610bec573373ffffffffffffffffffffffffffffffffffffffff16600b60006001846109d791906133f7565b815260200190815260200160002060010160009054906101000a900473ffffffffffffffffffffffffffffffffffffffff1673ffffffffffffffffffffffffffffffffffffffff161480610a9857503373ffffffffffffffffffffffffffffffffffffffff16600b6000600184610a4e91906133f7565b815260200190815260200160002060020160009054906101000a900473ffffffffffffffffffffffffffffffffffffffff1673ffffffffffffffffffffffffffffffffffffffff16145b15610bd957600181610aaa91906133f7565b92506000600b60008581526020019081526020016000209050806040518060a0016040529081600082015481526020016001820160009054906101000a900473ffffffffffffffffffffffffffffffffffffffff1673ffffffffffffffffffffffffffffffffffffffff1673ffffffffffffffffffffffffffffffffffffffff1681526020016002820160009054906101000a900473ffffffffffffffffffffffffffffffffffffffff1673ffffffffffffffffffffffffffffffffffffffff1673ffffffffffffffffffffffffffffffffffffffff168152602001600382015481526020016004820160009054906101000a900460ff161515151581525050838681518110610bbd57610bbc613473565b5b6020026020010181905250600185610bd591906133f7565b9450505b8080610be49061342b565b9150506109a7565b50809550505050505090565b600080610c0483611c89565b9050600073ffffffffffffffffffffffffffffffffffffffff168173ffffffffffffffffffffffffffffffffffffffff1603610c75576040517f08c379a0000000000000000000000000000000000000000000000000000000008152600401610c6c906134ee565b60405180910390fd5b80915050919050565b6000600a54905090565b60008073ffffffffffffffffffffffffffffffffffffffff168273ffffffffffffffffffffffffffffffffffffffff1603610cf8576040517f08c379a0000000000000000000000000000000000000000000000000000000008152600401610cef90613580565b60405180910390fd5b600360008373ffffffffffffffffffffffffffffffffffffffff1673ffffffffffffffffffffffffffffffffffffffff168152602001908152602001600020549050919050565b6000808211610d83576040517f08c379a0000000000000000000000000000000000000000000000000000000008152600401610d7a906135ec565b60405180910390fd5b610d8d6007611cc6565b6000610d996007611c7b565b9050610da53382611cdc565b610daf8185611cfa565b610db98184611d9e565b8091505092915050565b610dcb6128a3565b600b60008381526020019081526020016000206040518060a0016040529081600082015481526020016001820160009054906101000a900473ffffffffffffffffffffffffffffffffffffffff1673ffffffffffffffffffffffffffffffffffffffff1673ffffffffffffffffffffffffffffffffffffffff1681526020016002820160009054906101000a900473ffffffffffffffffffffffffffffffffffffffff1673ffffffffffffffffffffffffffffffffffffffff1673ffffffffffffffffffffffffffffffffffffffff168152602001600382015481526020016004820160009054906101000a900460ff1615151515815250509050919050565b606060018054610eda906131e1565b80601f0160208091040260200160405190810160405280929190818152602001828054610f06906131e1565b8015610f535780601f10610f2857610100808354040283529160200191610f53565b820191906000526020600020905b815481529060010190602001808311610f3657829003601f168201915b5050505050905090565b6000600b60008381526020019081526020016000206003015490506000600b600084815260200190815260200160002060020160009054906101000a900473ffffffffffffffffffffffffffffffffffffffff169050813414610ff5576040517f08c379a0000000000000000000000000000000000000000000000000000000008152600401610fec9061367e565b60405180910390fd5b6001600b600085815260200190815260200160002060040160006101000a81548160ff02191690831515021790555033600b600085815260200190815260200160002060020160006101000a81548173ffffffffffffffffffffffffffffffffffffffff021916908373ffffffffffffffffffffffffffffffffffffffff1602179055506110836008611cc6565b61108e303385611982565b6110983084610680565b600960009054906101000a900473ffffffffffffffffffffffffffffffffffffffff1673ffffffffffffffffffffffffffffffffffffffff166108fc600a549081150290604051600060405180830381858888f19350505050158015611102573d6000803e3d6000fd5b508073ffffffffffffffffffffffffffffffffffffffff166108fc349081150290604051600060405180830381858888f19350505050158015611149573d6000803e3d6000fd5b50505050565b61116161115a61182c565b8383611f62565b5050565b61117661117061182c565b836118ed565b6111b5576040517f08c379a00000000000000000000000000000000000000000000000000000000081526004016111ac906133a8565b60405180910390fd5b6111c1848484846120ce565b50505050565b3373ffffffffffffffffffffffffffffffffffffffff16600960009054906101000a900473ffffffffffffffffffffffffffffffffffffffff1673ffffffffffffffffffffffffffffffffffffffff1614611257576040517f08c379a000000000000000000000000000000000000000000000000000000000815260040161124e90613710565b60405180910390fd5b80600a8190555050565b606061126c826117e1565b600060066000848152602001908152602001600020805461128c906131e1565b80601f01602080910402602001604051908101604052809291908181526020018280546112b8906131e1565b80156113055780601f106112da57610100808354040283529160200191611305565b820191906000526020600020905b8154815290600101906020018083116112e857829003601f168201915b50505050509050600061131661212a565b9050600081510361132b57819250505061136e565b60008251111561136057808260405160200161134892919061376c565b6040516020818303038152906040529250505061136e565b61136984612141565b925050505b919050565b61137b6128a3565b60006113876007611c7b565b9050600b60008281526020019081526020016000206040518060a0016040529081600082015481526020016001820160009054906101000a900473ffffffffffffffffffffffffffffffffffffffff1673ffffffffffffffffffffffffffffffffffffffff1673ffffffffffffffffffffffffffffffffffffffff1681526020016002820160009054906101000a900473ffffffffffffffffffffffffffffffffffffffff1673ffffffffffffffffffffffffffffffffffffffff1673ffffffffffffffffffffffffffffffffffffffff168152602001600382015481526020016004820160009054906101000a900460ff16151515158152505091505090565b606060006114966007611c7b565b905060008167ffffffffffffffff8111156114b4576114b3612dd8565b5b6040519080825280602002602001820160405280156114ed57816020015b6114da6128a3565b8152602001906001900390816114d25790505b50905060008080600090505b8481101561164f5760018161150e91906133f7565b91506000600b60008481526020019081526020016000209050806040518060a0016040529081600082015481526020016001820160009054906101000a900473ffffffffffffffffffffffffffffffffffffffff1673ffffffffffffffffffffffffffffffffffffffff1673ffffffffffffffffffffffffffffffffffffffff1681526020016002820160009054906101000a900473ffffffffffffffffffffffffffffffffffffffff1673ffffffffffffffffffffffffffffffffffffffff1673ffffffffffffffffffffffffffffffffffffffff168152602001600382015481526020016004820160009054906101000a900460ff16151515158152505085858151811061162157611620613473565b5b602002602001018190525060018461163991906133f7565b93505080806116479061342b565b9150506114f9565b508294505050505090565b6000600560008473ffffffffffffffffffffffffffffffffffffffff1673ffffffffffffffffffffffffffffffffffffffff16815260200190815260200160002060008373ffffffffffffffffffffffffffffffffffffffff1673ffffffffffffffffffffffffffffffffffffffff16815260200190815260200160002060009054906101000a900460ff16905092915050565b60006116fa6007611c7b565b905090565b60007f80ac58cd000000000000000000000000000000000000000000000000000000007bffffffffffffffffffffffffffffffffffffffffffffffffffffffff1916827bffffffffffffffffffffffffffffffffffffffffffffffffffffffff191614806117ca57507f5b5e139f000000000000000000000000000000000000000000000000000000007bffffffffffffffffffffffffffffffffffffffffffffffffffffffff1916827bffffffffffffffffffffffffffffffffffffffffffffffffffffffff1916145b806117da57506117d9826121a9565b5b9050919050565b6117ea81612213565b611829576040517f08c379a0000000000000000000000000000000000000000000000000000000008152600401611820906134ee565b60405180910390fd5b50565b600033905090565b816004600083815260200190815260200160002060006101000a81548173ffffffffffffffffffffffffffffffffffffffff021916908373ffffffffffffffffffffffffffffffffffffffff160217905550808273ffffffffffffffffffffffffffffffffffffffff166118a783610bf8565b73ffffffffffffffffffffffffffffffffffffffff167f8c5be1e5ebec7d5bd14f71427d1e84f3dd0314c0f7b2291e5b200ac8c7c3b92560405160405180910390a45050565b6000806118f983610bf8565b90508073ffffffffffffffffffffffffffffffffffffffff168473ffffffffffffffffffffffffffffffffffffffff16148061193b575061193a818561165a565b5b8061197957508373ffffffffffffffffffffffffffffffffffffffff166119618461063a565b73ffffffffffffffffffffffffffffffffffffffff16145b91505092915050565b8273ffffffffffffffffffffffffffffffffffffffff166119a282610bf8565b73ffffffffffffffffffffffffffffffffffffffff16146119f8576040517f08c379a00000000000000000000000000000000000000000000000000000000081526004016119ef90613802565b60405180910390fd5b600073ffffffffffffffffffffffffffffffffffffffff168273ffffffffffffffffffffffffffffffffffffffff1603611a67576040517f08c379a0000000000000000000000000000000000000000000000000000000008152600401611a5e90613894565b60405180910390fd5b611a748383836001612254565b8273ffffffffffffffffffffffffffffffffffffffff16611a9482610bf8565b73ffffffffffffffffffffffffffffffffffffffff1614611aea576040517f08c379a0000000000000000000000000000000000000000000000000000000008152600401611ae190613802565b60405180910390fd5b6004600082815260200190815260200160002060006101000a81549073ffffffffffffffffffffffffffffffffffffffff02191690556001600360008573ffffffffffffffffffffffffffffffffffffffff1673ffffffffffffffffffffffffffffffffffffffff168152602001908152602001600020600082825403925050819055506001600360008473ffffffffffffffffffffffffffffffffffffffff1673ffffffffffffffffffffffffffffffffffffffff16815260200190815260200160002060008282540192505081905550816002600083815260200190815260200160002060006101000a81548173ffffffffffffffffffffffffffffffffffffffff021916908373ffffffffffffffffffffffffffffffffffffffff160217905550808273ffffffffffffffffffffffffffffffffffffffff168473ffffffffffffffffffffffffffffffffffffffff167fddf252ad1be2c89b69c2b068fc378daa952ba7f163c4a11628f55a4df523b3ef60405160405180910390a4611c76838383600161225a565b505050565b600081600001549050919050565b60006002600083815260200190815260200160002060009054906101000a900473ffffffffffffffffffffffffffffffffffffffff169050919050565b6001816000016000828254019250508190555050565b611cf6828260405180602001604052806000815250612260565b5050565b611d0382612213565b611d42576040517f08c379a0000000000000000000000000000000000000000000000000000000008152600401611d3990613926565b60405180910390fd5b80600660008481526020019081526020016000209081611d629190613af2565b507ff8e1a15aba9398e019f0b49df1a4fde98ee17ae345cb5f6b5e2c27f5033e8ce782604051611d929190612d86565b60405180910390a15050565b600a543414611de2576040517f08c379a0000000000000000000000000000000000000000000000000000000008152600401611dd990613c36565b60405180910390fd5b60008111611e25576040517f08c379a0000000000000000000000000000000000000000000000000000000008152600401611e1c90613cc8565b60405180910390fd5b6040518060a001604052808381526020013073ffffffffffffffffffffffffffffffffffffffff1681526020013373ffffffffffffffffffffffffffffffffffffffff16815260200182815260200160011515815250600b60008481526020019081526020016000206000820151816000015560208201518160010160006101000a81548173ffffffffffffffffffffffffffffffffffffffff021916908373ffffffffffffffffffffffffffffffffffffffff16021790555060408201518160020160006101000a81548173ffffffffffffffffffffffffffffffffffffffff021916908373ffffffffffffffffffffffffffffffffffffffff1602179055506060820151816003015560808201518160040160006101000a81548160ff021916908315150217905550905050611f5e333084611982565b5050565b8173ffffffffffffffffffffffffffffffffffffffff168373ffffffffffffffffffffffffffffffffffffffff1603611fd0576040517f08c379a0000000000000000000000000000000000000000000000000000000008152600401611fc790613d34565b60405180910390fd5b80600560008573ffffffffffffffffffffffffffffffffffffffff1673ffffffffffffffffffffffffffffffffffffffff16815260200190815260200160002060008473ffffffffffffffffffffffffffffffffffffffff1673ffffffffffffffffffffffffffffffffffffffff16815260200190815260200160002060006101000a81548160ff0219169083151502179055508173ffffffffffffffffffffffffffffffffffffffff168373ffffffffffffffffffffffffffffffffffffffff167f17307eab39ab6107e8899845ad3d59bd9653f200f220920489ca2b5937696c31836040516120c191906129b4565b60405180910390a3505050565b6120d9848484611982565b6120e5848484846122bb565b612124576040517f08c379a000000000000000000000000000000000000000000000000000000000815260040161211b90613dc6565b60405180910390fd5b50505050565b606060405180602001604052806000815250905090565b606061214c826117e1565b600061215661212a565b9050600081511161217657604051806020016040528060008152506121a1565b8061218084612442565b60405160200161219192919061376c565b6040516020818303038152906040525b915050919050565b60007f01ffc9a7000000000000000000000000000000000000000000000000000000007bffffffffffffffffffffffffffffffffffffffffffffffffffffffff1916827bffffffffffffffffffffffffffffffffffffffffffffffffffffffff1916149050919050565b60008073ffffffffffffffffffffffffffffffffffffffff1661223583611c89565b73ffffffffffffffffffffffffffffffffffffffff1614159050919050565b50505050565b50505050565b61226a8383612510565b61227760008484846122bb565b6122b6576040517f08c379a00000000000000000000000000000000000000000000000000000000081526004016122ad90613dc6565b60405180910390fd5b505050565b60006122dc8473ffffffffffffffffffffffffffffffffffffffff1661272d565b15612435578373ffffffffffffffffffffffffffffffffffffffff1663150b7a0261230561182c565b8786866040518563ffffffff1660e01b81526004016123279493929190613e3b565b6020604051808303816000875af192505050801561236357506040513d601f19601f820116820180604052508101906123609190613e9c565b60015b6123e5573d8060008114612393576040519150601f19603f3d011682016040523d82523d6000602084013e612398565b606091505b5060008151036123dd576040517f08c379a00000000000000000000000000000000000000000000000000000000081526004016123d490613dc6565b60405180910390fd5b805181602001fd5b63150b7a0260e01b7bffffffffffffffffffffffffffffffffffffffffffffffffffffffff1916817bffffffffffffffffffffffffffffffffffffffffffffffffffffffff19161491505061243a565b600190505b949350505050565b60606000600161245184612750565b01905060008167ffffffffffffffff8111156124705761246f612dd8565b5b6040519080825280601f01601f1916602001820160405280156124a25781602001600182028036833780820191505090505b509050600082602001820190505b600115612505578080600190039150507f3031323334353637383961626364656600000000000000000000000000000000600a86061a8153600a85816124f9576124f8613ec9565b5b049450600085036124b0575b819350505050919050565b600073ffffffffffffffffffffffffffffffffffffffff168273ffffffffffffffffffffffffffffffffffffffff160361257f576040517f08c379a000000000000000000000000000000000000000000000000000000000815260040161257690613f44565b60405180910390fd5b61258881612213565b156125c8576040517f08c379a00000000000000000000000000000000000000000000000000000000081526004016125bf90613fb0565b60405180910390fd5b6125d6600083836001612254565b6125df81612213565b1561261f576040517f08c379a000000000000000000000000000000000000000000000000000000000815260040161261690613fb0565b60405180910390fd5b6001600360008473ffffffffffffffffffffffffffffffffffffffff1673ffffffffffffffffffffffffffffffffffffffff16815260200190815260200160002060008282540192505081905550816002600083815260200190815260200160002060006101000a81548173ffffffffffffffffffffffffffffffffffffffff021916908373ffffffffffffffffffffffffffffffffffffffff160217905550808273ffffffffffffffffffffffffffffffffffffffff16600073ffffffffffffffffffffffffffffffffffffffff167fddf252ad1be2c89b69c2b068fc378daa952ba7f163c4a11628f55a4df523b3ef60405160405180910390a461272960008383600161225a565b5050565b6000808273ffffffffffffffffffffffffffffffffffffffff163b119050919050565b600080600090507a184f03e93ff9f4daa797ed6e38ed64bf6a1f01000000000000000083106127ae577a184f03e93ff9f4daa797ed6e38ed64bf6a1f01000000000000000083816127a4576127a3613ec9565b5b0492506040810190505b6d04ee2d6d415b85acef810000000083106127eb576d04ee2d6d415b85acef810000000083816127e1576127e0613ec9565b5b0492506020810190505b662386f26fc10000831061281a57662386f26fc1000083816128105761280f613ec9565b5b0492506010810190505b6305f5e1008310612843576305f5e100838161283957612838613ec9565b5b0492506008810190505b612710831061286857612710838161285e5761285d613ec9565b5b0492506004810190505b6064831061288b576064838161288157612880613ec9565b5b0492506002810190505b600a831061289a576001810190505b80915050919050565b6040518060a0016040528060008152602001600073ffffffffffffffffffffffffffffffffffffffff168152602001600073ffffffffffffffffffffffffffffffffffffffff168152602001600081526020016000151581525090565b6000604051905090565b600080fd5b600080fd5b60007fffffffff0000000000000000000000000000000000000000000000000000000082169050919050565b61294981612914565b811461295457600080fd5b50565b60008135905061296681612940565b92915050565b6000602082840312156129825761298161290a565b5b600061299084828501612957565b91505092915050565b60008115159050919050565b6129ae81612999565b82525050565b60006020820190506129c960008301846129a5565b92915050565b600081519050919050565b600082825260208201905092915050565b60005b83811015612a095780820151818401526020810190506129ee565b60008484015250505050565b6000601f19601f8301169050919050565b6000612a31826129cf565b612a3b81856129da565b9350612a4b8185602086016129eb565b612a5481612a15565b840191505092915050565b60006020820190508181036000830152612a798184612a26565b905092915050565b6000819050919050565b612a9481612a81565b8114612a9f57600080fd5b50565b600081359050612ab181612a8b565b92915050565b600060208284031215612acd57612acc61290a565b5b6000612adb84828501612aa2565b91505092915050565b600073ffffffffffffffffffffffffffffffffffffffff82169050919050565b6000612b0f82612ae4565b9050919050565b612b1f81612b04565b82525050565b6000602082019050612b3a6000830184612b16565b92915050565b612b4981612b04565b8114612b5457600080fd5b50565b600081359050612b6681612b40565b92915050565b60008060408385031215612b8357612b8261290a565b5b6000612b9185828601612b57565b9250506020612ba285828601612aa2565b9150509250929050565b600080600060608486031215612bc557612bc461290a565b5b6000612bd386828701612b57565b9350506020612be486828701612b57565b9250506040612bf586828701612aa2565b9150509250925092565b600081519050919050565b600082825260208201905092915050565b6000819050602082019050919050565b612c3481612a81565b82525050565b6000612c4582612ae4565b9050919050565b612c5581612c3a565b82525050565b612c6481612999565b82525050565b60a082016000820151612c806000850182612c2b565b506020820151612c936020850182612c4c565b506040820151612ca66040850182612c4c565b506060820151612cb96060850182612c2b565b506080820151612ccc6080850182612c5b565b50505050565b6000612cde8383612c6a565b60a08301905092915050565b6000602082019050919050565b6000612d0282612bff565b612d0c8185612c0a565b9350612d1783612c1b565b8060005b83811015612d48578151612d2f8882612cd2565b9750612d3a83612cea565b925050600181019050612d1b565b5085935050505092915050565b60006020820190508181036000830152612d6f8184612cf7565b905092915050565b612d8081612a81565b82525050565b6000602082019050612d9b6000830184612d77565b92915050565b600060208284031215612db757612db661290a565b5b6000612dc584828501612b57565b91505092915050565b600080fd5b600080fd5b7f4e487b7100000000000000000000000000000000000000000000000000000000600052604160045260246000fd5b612e1082612a15565b810181811067ffffffffffffffff82111715612e2f57612e2e612dd8565b5b80604052505050565b6000612e42612900565b9050612e4e8282612e07565b919050565b600067ffffffffffffffff821115612e6e57612e6d612dd8565b5b612e7782612a15565b9050602081019050919050565b82818337600083830152505050565b6000612ea6612ea184612e53565b612e38565b905082815260208101848484011115612ec257612ec1612dd3565b5b612ecd848285612e84565b509392505050565b600082601f830112612eea57612ee9612dce565b5b8135612efa848260208601612e93565b91505092915050565b60008060408385031215612f1a57612f1961290a565b5b600083013567ffffffffffffffff811115612f3857612f3761290f565b5b612f4485828601612ed5565b9250506020612f5585828601612aa2565b9150509250929050565b60a082016000820151612f756000850182612c2b565b506020820151612f886020850182612c4c565b506040820151612f9b6040850182612c4c565b506060820151612fae6060850182612c2b565b506080820151612fc16080850182612c5b565b50505050565b600060a082019050612fdc6000830184612f5f565b92915050565b612feb81612999565b8114612ff657600080fd5b50565b60008135905061300881612fe2565b92915050565b600080604083850312156130255761302461290a565b5b600061303385828601612b57565b925050602061304485828601612ff9565b9150509250929050565b600067ffffffffffffffff82111561306957613068612dd8565b5b61307282612a15565b9050602081019050919050565b600061309261308d8461304e565b612e38565b9050828152602081018484840111156130ae576130ad612dd3565b5b6130b9848285612e84565b509392505050565b600082601f8301126130d6576130d5612dce565b5b81356130e684826020860161307f565b91505092915050565b600080600080608085870312156131095761310861290a565b5b600061311787828801612b57565b945050602061312887828801612b57565b935050604061313987828801612aa2565b925050606085013567ffffffffffffffff81111561315a5761315961290f565b5b613166878288016130c1565b91505092959194509250565b600080604083850312156131895761318861290a565b5b600061319785828601612b57565b92505060206131a885828601612b57565b9150509250929050565b7f4e487b7100000000000000000000000000000000000000000000000000000000600052602260045260246000fd5b600060028204905060018216806131f957607f821691505b60208210810361320c5761320b6131b2565b5b50919050565b7f4552433732313a20617070726f76616c20746f2063757272656e74206f776e6560008201527f7200000000000000000000000000000000000000000000000000000000000000602082015250565b600061326e6021836129da565b915061327982613212565b604082019050919050565b6000602082019050818103600083015261329d81613261565b9050919050565b7f4552433732313a20617070726f76652063616c6c6572206973206e6f7420746f60008201527f6b656e206f776e6572206f7220617070726f76656420666f7220616c6c000000602082015250565b6000613300603d836129da565b915061330b826132a4565b604082019050919050565b6000602082019050818103600083015261332f816132f3565b9050919050565b7f4552433732313a2063616c6c6572206973206e6f7420746f6b656e206f776e6560008201527f72206f7220617070726f76656400000000000000000000000000000000000000602082015250565b6000613392602d836129da565b915061339d82613336565b604082019050919050565b600060208201905081810360008301526133c181613385565b9050919050565b7f4e487b7100000000000000000000000000000000000000000000000000000000600052601160045260246000fd5b600061340282612a81565b915061340d83612a81565b9250828201905080821115613425576134246133c8565b5b92915050565b600061343682612a81565b91507fffffffffffffffffffffffffffffffffffffffffffffffffffffffffffffffff8203613468576134676133c8565b5b600182019050919050565b7f4e487b7100000000000000000000000000000000000000000000000000000000600052603260045260246000fd5b7f4552433732313a20696e76616c696420746f6b656e2049440000000000000000600082015250565b60006134d86018836129da565b91506134e3826134a2565b602082019050919050565b60006020820190508181036000830152613507816134cb565b9050919050565b7f4552433732313a2061646472657373207a65726f206973206e6f74206120766160008201527f6c6964206f776e65720000000000000000000000000000000000000000000000602082015250565b600061356a6029836129da565b91506135758261350e565b604082019050919050565b600060208201905081810360008301526135998161355d565b9050919050565b7f5072696365206d757374206e6f74206265206e65676174697665000000000000600082015250565b60006135d6601a836129da565b91506135e1826135a0565b602082019050919050565b60006020820190508181036000830152613605816135c9565b9050919050565b7f506c65617365207375626d6974207468652061736b696e67207072696365206960008201527f6e206f7264657220746f20636f6d706c65746520746865207075726368617365602082015250565b60006136686040836129da565b91506136738261360c565b604082019050919050565b600060208201905081810360008301526136978161365b565b9050919050565b7f4f6e6c79206f776e65722063616e20757064617465206c697374696e6720707260008201527f6963650000000000000000000000000000000000000000000000000000000000602082015250565b60006136fa6023836129da565b91506137058261369e565b604082019050919050565b60006020820190508181036000830152613729816136ed565b9050919050565b600081905092915050565b6000613746826129cf565b6137508185613730565b93506137608185602086016129eb565b80840191505092915050565b6000613778828561373b565b9150613784828461373b565b91508190509392505050565b7f4552433732313a207472616e736665722066726f6d20696e636f72726563742060008201527f6f776e6572000000000000000000000000000000000000000000000000000000602082015250565b60006137ec6025836129da565b91506137f782613790565b604082019050919050565b6000602082019050818103600083015261381b816137df565b9050919050565b7f4552433732313a207472616e7366657220746f20746865207a65726f2061646460008201527f7265737300000000000000000000000000000000000000000000000000000000602082015250565b600061387e6024836129da565b915061388982613822565b604082019050919050565b600060208201905081810360008301526138ad81613871565b9050919050565b7f45524337323155524953746f726167653a2055524920736574206f66206e6f6e60008201527f6578697374656e7420746f6b656e000000000000000000000000000000000000602082015250565b6000613910602e836129da565b915061391b826138b4565b604082019050919050565b6000602082019050818103600083015261393f81613903565b9050919050565b60008190508160005260206000209050919050565b60006020601f8301049050919050565b600082821b905092915050565b6000600883026139a87fffffffffffffffffffffffffffffffffffffffffffffffffffffffffffffffff8261396b565b6139b2868361396b565b95508019841693508086168417925050509392505050565b6000819050919050565b60006139ef6139ea6139e584612a81565b6139ca565b612a81565b9050919050565b6000819050919050565b613a09836139d4565b613a1d613a15826139f6565b848454613978565b825550505050565b600090565b613a32613a25565b613a3d818484613a00565b505050565b5b81811015613a6157613a56600082613a2a565b600181019050613a43565b5050565b601f821115613aa657613a7781613946565b613a808461395b565b81016020851015613a8f578190505b613aa3613a9b8561395b565b830182613a42565b50505b505050565b600082821c905092915050565b6000613ac960001984600802613aab565b1980831691505092915050565b6000613ae28383613ab8565b9150826002028217905092915050565b613afb826129cf565b67ffffffffffffffff811115613b1457613b13612dd8565b5b613b1e82546131e1565b613b29828285613a65565b600060209050601f831160018114613b5c5760008415613b4a578287015190505b613b548582613ad6565b865550613bbc565b601f198416613b6a86613946565b60005b82811015613b9257848901518255600182019150602085019450602081019050613b6d565b86831015613baf5784890151613bab601f891682613ab8565b8355505b6001600288020188555050505b505050505050565b7f486f706566756c6c792073656e64696e672074686520636f727265637420707260008201527f6963650000000000000000000000000000000000000000000000000000000000602082015250565b6000613c206023836129da565b9150613c2b82613bc4565b604082019050919050565b60006020820190508181036000830152613c4f81613c13565b9050919050565b7f4d616b652073757265207468652070726963652069736e2774206e656761746960008201527f7665000000000000000000000000000000000000000000000000000000000000602082015250565b6000613cb26022836129da565b9150613cbd82613c56565b604082019050919050565b60006020820190508181036000830152613ce181613ca5565b9050919050565b7f4552433732313a20617070726f766520746f2063616c6c657200000000000000600082015250565b6000613d1e6019836129da565b9150613d2982613ce8565b602082019050919050565b60006020820190508181036000830152613d4d81613d11565b9050919050565b7f4552433732313a207472616e7366657220746f206e6f6e20455243373231526560008201527f63656976657220696d706c656d656e7465720000000000000000000000000000602082015250565b6000613db06032836129da565b9150613dbb82613d54565b604082019050919050565b60006020820190508181036000830152613ddf81613da3565b9050919050565b600081519050919050565b600082825260208201905092915050565b6000613e0d82613de6565b613e178185613df1565b9350613e278185602086016129eb565b613e3081612a15565b840191505092915050565b6000608082019050613e506000830187612b16565b613e5d6020830186612b16565b613e6a6040830185612d77565b8181036060830152613e7c8184613e02565b905095945050505050565b600081519050613e9681612940565b92915050565b600060208284031215613eb257613eb161290a565b5b6000613ec084828501613e87565b91505092915050565b7f4e487b7100000000000000000000000000000000000000000000000000000000600052601260045260246000fd5b7f4552433732313a206d696e7420746f20746865207a65726f2061646472657373600082015250565b6000613f2e6020836129da565b9150613f3982613ef8565b602082019050919050565b60006020820190508181036000830152613f5d81613f21565b9050919050565b7f4552433732313a20746f6b656e20616c7265616479206d696e74656400000000600082015250565b6000613f9a601c836129da565b9150613fa582613f64565b602082019050919050565b60006020820190508181036000830152613fc981613f8d565b905091905056fea264697066735822122056bb1898ee7fc973ceac70f4f7433ece5acd17ac2941c459c934cbbf1d132e9264736f6c63430008130033",
  "immutableReferences": {},
  "source": "// SPDX-License-Identifier: MIT\r\npragma solidity 0.8.19;\r\n\r\nimport \"@openzeppelin/contracts/utils/Counters.sol\";\r\nimport \"@openzeppelin/contracts/token/ERC721/extensions/ERC721URIStorage.sol\";\r\nimport \"@openzeppelin/contracts/token/ERC721/ERC721.sol\";\r\n\r\ncontract NFTAuction is ERC721URIStorage{\r\n\r\n    using Counters for Counters.Counter;\r\n    //_tokenIds variable has the most recent minted tokenId\r\n    Counters.Counter private _tokenIds;\r\n    //Keeps track of the number of items sold on the marketplace\r\n    Counters.Counter private _itemsSold;\r\n    //owner is the contract address that created the smart contract\r\n    address payable owner;\r\n    //The fee charged by the marketplace to be allowed to list an NFT\r\n    uint256 listPrice = 0.01 ether;\r\n    \r\n    constructor () ERC721(\"AuctionToken\", \"AUCTKN\"){\r\n        owner = payable(msg.sender);\r\n    }\r\n\r\n    //The structure to store info about a listed token\r\n    struct ListedToken {\r\n        uint256 tokenId;\r\n        address payable owner;\r\n        address payable seller;\r\n        uint256 price;\r\n        bool currentlyListed;\r\n    }\r\n\r\n    //This mapping maps tokenId to token info and is helpful when retrieving details about a tokenId\r\n    mapping(uint256 => ListedToken) private idToListedToken;\r\n\r\n    function updateListPrice(uint256 _listPrice) public payable {\r\n        require(owner == msg.sender, \"Only owner can update listing price\");\r\n        listPrice = _listPrice;\r\n    }\r\n\r\n     function getListPrice() public view returns (uint256) {\r\n        return listPrice;\r\n    }\r\n\r\n    function getLatestIdToListedToken() public view returns (ListedToken memory) {\r\n        uint256 currentTokenId = _tokenIds.current();\r\n        return idToListedToken[currentTokenId];\r\n    }\r\n\r\n    function getListedTokenForId(uint256 tokenId) public view returns (ListedToken memory) {\r\n        return idToListedToken[tokenId];\r\n    }\r\n\r\n    function getCurrentToken() public view returns (uint256) {\r\n        return _tokenIds.current();\r\n    }\r\n\r\n    //The first time a token is created, it is listed here\r\n    function createToken(string memory tokenURI, uint256 price) public payable returns (uint) {\r\n        require(price > 0, \"Price must not be negative\");\r\n\r\n        //Increment the tokenId counter, which is keeping track of the number of minted NFTs\r\n        _tokenIds.increment();\r\n        uint256 newTokenId = _tokenIds.current();\r\n\r\n        //Mint the NFT with tokenId newTokenId to the address who called createToken\r\n        _safeMint(msg.sender, newTokenId);\r\n\r\n        //Map the tokenId to the tokenURI (which is an IPFS URL with the NFT metadata)\r\n        _setTokenURI(newTokenId, tokenURI);\r\n\r\n        //Helper function to update Global variables and emit an event\r\n        createListedToken(newTokenId, price);\r\n\r\n        return newTokenId;\r\n    }\r\n\r\n    function createListedToken(uint256 tokenId, uint256 price) private {\r\n        //Make sure the sender sent enough ETH to pay for listing\r\n        require(msg.value == listPrice, \"Hopefully sending the correct price\");\r\n        //Just sanity check\r\n        require(price > 0, \"Make sure the price isn't negative\");\r\n\r\n        //Update the mapping of tokenId's to Token details, useful for retrieval functions\r\n        idToListedToken[tokenId] = ListedToken(\r\n            tokenId,\r\n            payable(address(this)),\r\n            payable(msg.sender),\r\n            price,\r\n            true\r\n        );\r\n\r\n        _transfer(msg.sender, address(this), tokenId);\r\n        //Emit the event for successful transfer. The frontend parses this message and updates the end user\r\n        // emit TokenListedSuccess(\r\n        //     tokenId,\r\n        //     address(this),\r\n        //     msg.sender,\r\n        //     price,\r\n        //     true\r\n        // );\r\n    }\r\n\r\n    //This will return all the NFTs currently listed to be sold on the marketplace\r\n    function getAllNFTs() public view returns (ListedToken[] memory) {\r\n        uint nftCount = _tokenIds.current();\r\n        ListedToken[] memory tokens = new ListedToken[](nftCount);\r\n        uint currentIndex = 0;\r\n        uint currentId;\r\n        //at the moment currentlyListed is true for all, if it becomes false in the future we will \r\n        //filter out currentlyListed == false over here\r\n        for(uint i=0;i<nftCount;i++)\r\n        {\r\n            currentId = i + 1;\r\n            ListedToken storage currentItem = idToListedToken[currentId];\r\n            tokens[currentIndex] = currentItem;\r\n            currentIndex += 1;\r\n        }\r\n        //the array 'tokens' has the list of all NFTs in the marketplace\r\n        return tokens;\r\n    }\r\n\r\n    //Returns all the NFTs that the current user is owner or seller in\r\n    function getMyNFTs() public view returns (ListedToken[] memory) {\r\n        uint totalItemCount = _tokenIds.current();\r\n        uint itemCount = 0;\r\n        uint currentIndex = 0;\r\n        uint currentId;\r\n        //Important to get a count of all the NFTs that belong to the user before we can make an array for them\r\n        for(uint i=0; i < totalItemCount; i++)\r\n        {\r\n            if(idToListedToken[i+1].owner == msg.sender || idToListedToken[i+1].seller == msg.sender){\r\n                itemCount += 1;\r\n            }\r\n        }\r\n\r\n        //Once you have the count of relevant NFTs, create an array then store all the NFTs in it\r\n        ListedToken[] memory items = new ListedToken[](itemCount);\r\n        for(uint i=0; i < totalItemCount; i++) {\r\n            if(idToListedToken[i+1].owner == msg.sender || idToListedToken[i+1].seller == msg.sender) {\r\n                currentId = i+1;\r\n                ListedToken storage currentItem = idToListedToken[currentId];\r\n                items[currentIndex] = currentItem;\r\n                currentIndex += 1;\r\n            }\r\n        }\r\n        return items;\r\n    }\r\n\r\n    function executeSale(uint256 tokenId) public payable {\r\n        uint price = idToListedToken[tokenId].price;\r\n        address seller = idToListedToken[tokenId].seller;\r\n        require(msg.value == price, \"Please submit the asking price in order to complete the purchase\");\r\n\r\n        //update the details of the token\r\n        idToListedToken[tokenId].currentlyListed = true;\r\n        idToListedToken[tokenId].seller = payable(msg.sender);\r\n        _itemsSold.increment();\r\n\r\n        //Actually transfer the token to the new owner\r\n        _transfer(address(this), msg.sender, tokenId);\r\n        //approve the marketplace to sell NFTs on your behalf\r\n        approve(address(this), tokenId);\r\n\r\n        //Transfer the listing fee to the marketplace creator\r\n        payable(owner).transfer(listPrice);\r\n        //Transfer the proceeds from the sale to the seller of the NFT\r\n        payable(seller).transfer(msg.value);\r\n    }\r\n\r\n    //We might add a resell token function in the future\r\n    //In that case, tokens won't be listed by default but users can send a request to actually list a token\r\n    //Currently NFTs are listed by default\r\n\r\n\r\n    \r\n}",
  "sourcePath": "D:\\CSUF\\AdvBlockchain\\Auction-DApp\\new-auction\\contracts\\NFTAuction.sol",
  "compiler": {
    "name": "solc",
    "version": "0.8.19+commit.7dd6d404.Emscripten.clang"
  },
  "schemaVersion": "3.4.16",
  "updatedAt": "2025-04-18T21:17:54.058Z",
  "networkType": "ethereum",
  "devdoc": {
    "events": {
      "Approval(address,address,uint256)": {
        "details": "Emitted when `owner` enables `approved` to manage the `tokenId` token."
      },
      "ApprovalForAll(address,address,bool)": {
        "details": "Emitted when `owner` enables or disables (`approved`) `operator` to manage all of its assets."
      },
      "BatchMetadataUpdate(uint256,uint256)": {
        "details": "This event emits when the metadata of a range of tokens is changed. So that the third-party platforms such as NFT market could timely update the images and related attributes of the NFTs."
      },
      "MetadataUpdate(uint256)": {
        "details": "This event emits when the metadata of a token is changed. So that the third-party platforms such as NFT market could timely update the images and related attributes of the NFT."
      },
      "Transfer(address,address,uint256)": {
        "details": "Emitted when `tokenId` token is transferred from `from` to `to`."
      }
    },
    "kind": "dev",
    "methods": {
      "approve(address,uint256)": {
        "details": "See {IERC721-approve}."
      },
      "balanceOf(address)": {
        "details": "See {IERC721-balanceOf}."
      },
      "getApproved(uint256)": {
        "details": "See {IERC721-getApproved}."
      },
      "isApprovedForAll(address,address)": {
        "details": "See {IERC721-isApprovedForAll}."
      },
      "name()": {
        "details": "See {IERC721Metadata-name}."
      },
      "ownerOf(uint256)": {
        "details": "See {IERC721-ownerOf}."
      },
      "safeTransferFrom(address,address,uint256)": {
        "details": "See {IERC721-safeTransferFrom}."
      },
      "safeTransferFrom(address,address,uint256,bytes)": {
        "details": "See {IERC721-safeTransferFrom}."
      },
      "setApprovalForAll(address,bool)": {
        "details": "See {IERC721-setApprovalForAll}."
      },
      "supportsInterface(bytes4)": {
        "details": "See {IERC165-supportsInterface}"
      },
      "symbol()": {
        "details": "See {IERC721Metadata-symbol}."
      },
      "tokenURI(uint256)": {
        "details": "See {IERC721Metadata-tokenURI}."
      },
      "transferFrom(address,address,uint256)": {
        "details": "See {IERC721-transferFrom}."
      }
    },
    "version": 1
  },
  "userdoc": {
    "kind": "user",
    "methods": {},
    "version": 1
  }
}