{
  "contractName": "Auction",
  "abi": [
    {
      "inputs": [
        {
          "internalType": "uint256",
          "name": "_royaltyFee",
          "type": "uint256"
        }
      ],
      "stateMutability": "nonpayable",
      "type": "constructor"
    },
    {
      "anonymous": false,
      "inputs": [
        {
          "indexed": true,
          "internalType": "address",
          "name": "owner",
          "type": "address"
        },
        {
          "indexed": true,
          "internalType": "address",
          "name": "approved",
          "type": "address"
        },
        {
          "indexed": true,
          "internalType": "uint256",
          "name": "tokenId",
          "type": "uint256"
        }
      ],
      "name": "Approval",
      "type": "event"
    },
    {
      "anonymous": false,
      "inputs": [
        {
          "indexed": true,
          "internalType": "address",
          "name": "owner",
          "type": "address"
        },
        {
          "indexed": true,
          "internalType": "address",
          "name": "operator",
          "type": "address"
        },
        {
          "indexed": false,
          "internalType": "bool",
          "name": "approved",
          "type": "bool"
        }
      ],
      "name": "ApprovalForAll",
      "type": "event"
    },
    {
      "anonymous": false,
      "inputs": [
        {
          "indexed": true,
          "internalType": "uint256",
          "name": "tokenId",
          "type": "uint256"
        },
        {
          "indexed": false,
          "internalType": "address",
          "name": "seller",
          "type": "address"
        },
        {
          "indexed": false,
          "internalType": "address",
          "name": "owner",
          "type": "address"
        },
        {
          "indexed": false,
          "internalType": "uint256",
          "name": "price",
          "type": "uint256"
        },
        {
          "indexed": false,
          "internalType": "bool",
          "name": "sold",
          "type": "bool"
        }
      ],
      "name": "AuctionItemCreated",
      "type": "event"
    },
    {
      "anonymous": false,
      "inputs": [
        {
          "indexed": false,
          "internalType": "uint256",
          "name": "_fromTokenId",
          "type": "uint256"
        },
        {
          "indexed": false,
          "internalType": "uint256",
          "name": "_toTokenId",
          "type": "uint256"
        }
      ],
      "name": "BatchMetadataUpdate",
      "type": "event"
    },
    {
      "anonymous": false,
      "inputs": [
        {
          "indexed": false,
          "internalType": "uint256",
          "name": "_tokenId",
          "type": "uint256"
        }
      ],
      "name": "MetadataUpdate",
      "type": "event"
    },
    {
      "anonymous": false,
      "inputs": [
        {
          "indexed": true,
          "internalType": "address",
          "name": "from",
          "type": "address"
        },
        {
          "indexed": true,
          "internalType": "address",
          "name": "to",
          "type": "address"
        },
        {
          "indexed": true,
          "internalType": "uint256",
          "name": "tokenId",
          "type": "uint256"
        }
      ],
      "name": "Transfer",
      "type": "event"
    },
    {
      "inputs": [
        {
          "internalType": "address",
          "name": "to",
          "type": "address"
        },
        {
          "internalType": "uint256",
          "name": "tokenId",
          "type": "uint256"
        }
      ],
      "name": "approve",
      "outputs": [],
      "stateMutability": "nonpayable",
      "type": "function"
    },
    {
      "inputs": [
        {
          "internalType": "address",
          "name": "owner",
          "type": "address"
        }
      ],
      "name": "balanceOf",
      "outputs": [
        {
          "internalType": "uint256",
          "name": "",
          "type": "uint256"
        }
      ],
      "stateMutability": "view",
      "type": "function"
    },
    {
      "inputs": [
        {
          "internalType": "uint256",
          "name": "tokenId",
          "type": "uint256"
        }
      ],
      "name": "getApproved",
      "outputs": [
        {
          "internalType": "address",
          "name": "",
          "type": "address"
        }
      ],
      "stateMutability": "view",
      "type": "function"
    },
    {
      "inputs": [
        {
          "internalType": "address",
          "name": "owner",
          "type": "address"
        },
        {
          "internalType": "address",
          "name": "operator",
          "type": "address"
        }
      ],
      "name": "isApprovedForAll",
      "outputs": [
        {
          "internalType": "bool",
          "name": "",
          "type": "bool"
        }
      ],
      "stateMutability": "view",
      "type": "function"
    },
    {
      "inputs": [],
      "name": "name",
      "outputs": [
        {
          "internalType": "string",
          "name": "",
          "type": "string"
        }
      ],
      "stateMutability": "view",
      "type": "function"
    },
    {
      "inputs": [
        {
          "internalType": "uint256",
          "name": "tokenId",
          "type": "uint256"
        }
      ],
      "name": "ownerOf",
      "outputs": [
        {
          "internalType": "address",
          "name": "",
          "type": "address"
        }
      ],
      "stateMutability": "view",
      "type": "function"
    },
    {
      "inputs": [
        {
          "internalType": "address",
          "name": "from",
          "type": "address"
        },
        {
          "internalType": "address",
          "name": "to",
          "type": "address"
        },
        {
          "internalType": "uint256",
          "name": "tokenId",
          "type": "uint256"
        }
      ],
      "name": "safeTransferFrom",
      "outputs": [],
      "stateMutability": "nonpayable",
      "type": "function"
    },
    {
      "inputs": [
        {
          "internalType": "address",
          "name": "from",
          "type": "address"
        },
        {
          "internalType": "address",
          "name": "to",
          "type": "address"
        },
        {
          "internalType": "uint256",
          "name": "tokenId",
          "type": "uint256"
        },
        {
          "internalType": "bytes",
          "name": "data",
          "type": "bytes"
        }
      ],
      "name": "safeTransferFrom",
      "outputs": [],
      "stateMutability": "nonpayable",
      "type": "function"
    },
    {
      "inputs": [
        {
          "internalType": "address",
          "name": "operator",
          "type": "address"
        },
        {
          "internalType": "bool",
          "name": "approved",
          "type": "bool"
        }
      ],
      "name": "setApprovalForAll",
      "outputs": [],
      "stateMutability": "nonpayable",
      "type": "function"
    },
    {
      "inputs": [
        {
          "internalType": "bytes4",
          "name": "interfaceId",
          "type": "bytes4"
        }
      ],
      "name": "supportsInterface",
      "outputs": [
        {
          "internalType": "bool",
          "name": "",
          "type": "bool"
        }
      ],
      "stateMutability": "view",
      "type": "function"
    },
    {
      "inputs": [],
      "name": "symbol",
      "outputs": [
        {
          "internalType": "string",
          "name": "",
          "type": "string"
        }
      ],
      "stateMutability": "view",
      "type": "function"
    },
    {
      "inputs": [
        {
          "internalType": "uint256",
          "name": "tokenId",
          "type": "uint256"
        }
      ],
      "name": "tokenURI",
      "outputs": [
        {
          "internalType": "string",
          "name": "",
          "type": "string"
        }
      ],
      "stateMutability": "view",
      "type": "function"
    },
    {
      "inputs": [
        {
          "internalType": "address",
          "name": "from",
          "type": "address"
        },
        {
          "internalType": "address",
          "name": "to",
          "type": "address"
        },
        {
          "internalType": "uint256",
          "name": "tokenId",
          "type": "uint256"
        }
      ],
      "name": "transferFrom",
      "outputs": [],
      "stateMutability": "nonpayable",
      "type": "function"
    },
    {
      "inputs": [],
      "name": "getListingPrice",
      "outputs": [
        {
          "internalType": "uint256",
          "name": "",
          "type": "uint256"
        }
      ],
      "stateMutability": "view",
      "type": "function"
    },
    {
      "inputs": [
        {
          "internalType": "uint256",
          "name": "_price",
          "type": "uint256"
        }
      ],
      "name": "setListingPrice",
      "outputs": [],
      "stateMutability": "nonpayable",
      "type": "function"
    },
    {
      "inputs": [
        {
          "internalType": "uint256",
          "name": "tokenId",
          "type": "uint256"
        },
        {
          "internalType": "uint256",
          "name": "price",
          "type": "uint256"
        }
      ],
      "name": "changePrice",
      "outputs": [],
      "stateMutability": "nonpayable",
      "type": "function"
    },
    {
      "inputs": [
        {
          "internalType": "string",
          "name": "name",
          "type": "string"
        },
        {
          "internalType": "string",
          "name": "description",
          "type": "string"
        },
        {
          "internalType": "string",
          "name": "image",
          "type": "string"
        },
        {
          "internalType": "string",
          "name": "tokenURI",
          "type": "string"
        },
        {
          "internalType": "uint256",
          "name": "price",
          "type": "uint256"
        }
      ],
      "name": "createAuction",
      "outputs": [],
      "stateMutability": "payable",
      "type": "function"
    },
    {
      "inputs": [
        {
          "internalType": "uint256",
          "name": "tokenId",
          "type": "uint256"
        },
        {
          "internalType": "bool",
          "name": "biddable",
          "type": "bool"
        },
        {
          "internalType": "uint256",
          "name": "sec",
          "type": "uint256"
        },
        {
          "internalType": "uint256",
          "name": "min",
          "type": "uint256"
        },
        {
          "internalType": "uint256",
          "name": "hour",
          "type": "uint256"
        },
        {
          "internalType": "uint256",
          "name": "day",
          "type": "uint256"
        }
      ],
      "name": "offerAuction",
      "outputs": [],
      "stateMutability": "nonpayable",
      "type": "function"
    },
    {
      "inputs": [
        {
          "internalType": "uint256",
          "name": "tokenId",
          "type": "uint256"
        }
      ],
      "name": "placeBid",
      "outputs": [],
      "stateMutability": "payable",
      "type": "function"
    },
    {
      "inputs": [
        {
          "internalType": "uint256",
          "name": "tokenId",
          "type": "uint256"
        },
        {
          "internalType": "uint256",
          "name": "bid",
          "type": "uint256"
        }
      ],
      "name": "claimPrize",
      "outputs": [],
      "stateMutability": "nonpayable",
      "type": "function"
    },
    {
      "inputs": [
        {
          "internalType": "uint256",
          "name": "tokenId",
          "type": "uint256"
        }
      ],
      "name": "buyAuctionedItem",
      "outputs": [],
      "stateMutability": "payable",
      "type": "function"
    },
    {
      "inputs": [
        {
          "internalType": "uint256",
          "name": "id",
          "type": "uint256"
        }
      ],
      "name": "getAuction",
      "outputs": [
        {
          "components": [
            {
              "internalType": "string",
              "name": "name",
              "type": "string"
            },
            {
              "internalType": "string",
              "name": "description",
              "type": "string"
            },
            {
              "internalType": "string",
              "name": "image",
              "type": "string"
            },
            {
              "internalType": "uint256",
              "name": "tokenId",
              "type": "uint256"
            },
            {
              "internalType": "address",
              "name": "seller",
              "type": "address"
            },
            {
              "internalType": "address",
              "name": "owner",
              "type": "address"
            },
            {
              "internalType": "address",
              "name": "winner",
              "type": "address"
            },
            {
              "internalType": "uint256",
              "name": "price",
              "type": "uint256"
            },
            {
              "internalType": "bool",
              "name": "sold",
              "type": "bool"
            },
            {
              "internalType": "bool",
              "name": "live",
              "type": "bool"
            },
            {
              "internalType": "bool",
              "name": "biddable",
              "type": "bool"
            },
            {
              "internalType": "uint256",
              "name": "bids",
              "type": "uint256"
            },
            {
              "internalType": "uint256",
              "name": "duration",
              "type": "uint256"
            }
          ],
          "internalType": "struct Auction.AuctionStruct",
          "name": "",
          "type": "tuple"
        }
      ],
      "stateMutability": "view",
      "type": "function"
    },
    {
      "inputs": [],
      "name": "getAllAuctions",
      "outputs": [
        {
          "components": [
            {
              "internalType": "string",
              "name": "name",
              "type": "string"
            },
            {
              "internalType": "string",
              "name": "description",
              "type": "string"
            },
            {
              "internalType": "string",
              "name": "image",
              "type": "string"
            },
            {
              "internalType": "uint256",
              "name": "tokenId",
              "type": "uint256"
            },
            {
              "internalType": "address",
              "name": "seller",
              "type": "address"
            },
            {
              "internalType": "address",
              "name": "owner",
              "type": "address"
            },
            {
              "internalType": "address",
              "name": "winner",
              "type": "address"
            },
            {
              "internalType": "uint256",
              "name": "price",
              "type": "uint256"
            },
            {
              "internalType": "bool",
              "name": "sold",
              "type": "bool"
            },
            {
              "internalType": "bool",
              "name": "live",
              "type": "bool"
            },
            {
              "internalType": "bool",
              "name": "biddable",
              "type": "bool"
            },
            {
              "internalType": "uint256",
              "name": "bids",
              "type": "uint256"
            },
            {
              "internalType": "uint256",
              "name": "duration",
              "type": "uint256"
            }
          ],
          "internalType": "struct Auction.AuctionStruct[]",
          "name": "Auctions",
          "type": "tuple[]"
        }
      ],
      "stateMutability": "view",
      "type": "function"
    },
    {
      "inputs": [],
      "name": "getUnsoldAuction",
      "outputs": [
        {
          "components": [
            {
              "internalType": "string",
              "name": "name",
              "type": "string"
            },
            {
              "internalType": "string",
              "name": "description",
              "type": "string"
            },
            {
              "internalType": "string",
              "name": "image",
              "type": "string"
            },
            {
              "internalType": "uint256",
              "name": "tokenId",
              "type": "uint256"
            },
            {
              "internalType": "address",
              "name": "seller",
              "type": "address"
            },
            {
              "internalType": "address",
              "name": "owner",
              "type": "address"
            },
            {
              "internalType": "address",
              "name": "winner",
              "type": "address"
            },
            {
              "internalType": "uint256",
              "name": "price",
              "type": "uint256"
            },
            {
              "internalType": "bool",
              "name": "sold",
              "type": "bool"
            },
            {
              "internalType": "bool",
              "name": "live",
              "type": "bool"
            },
            {
              "internalType": "bool",
              "name": "biddable",
              "type": "bool"
            },
            {
              "internalType": "uint256",
              "name": "bids",
              "type": "uint256"
            },
            {
              "internalType": "uint256",
              "name": "duration",
              "type": "uint256"
            }
          ],
          "internalType": "struct Auction.AuctionStruct[]",
          "name": "Auctions",
          "type": "tuple[]"
        }
      ],
      "stateMutability": "view",
      "type": "function"
    },
    {
      "inputs": [],
      "name": "getMyAuctions",
      "outputs": [
        {
          "components": [
            {
              "internalType": "string",
              "name": "name",
              "type": "string"
            },
            {
              "internalType": "string",
              "name": "description",
              "type": "string"
            },
            {
              "internalType": "string",
              "name": "image",
              "type": "string"
            },
            {
              "internalType": "uint256",
              "name": "tokenId",
              "type": "uint256"
            },
            {
              "internalType": "address",
              "name": "seller",
              "type": "address"
            },
            {
              "internalType": "address",
              "name": "owner",
              "type": "address"
            },
            {
              "internalType": "address",
              "name": "winner",
              "type": "address"
            },
            {
              "internalType": "uint256",
              "name": "price",
              "type": "uint256"
            },
            {
              "internalType": "bool",
              "name": "sold",
              "type": "bool"
            },
            {
              "internalType": "bool",
              "name": "live",
              "type": "bool"
            },
            {
              "internalType": "bool",
              "name": "biddable",
              "type": "bool"
            },
            {
              "internalType": "uint256",
              "name": "bids",
              "type": "uint256"
            },
            {
              "internalType": "uint256",
              "name": "duration",
              "type": "uint256"
            }
          ],
          "internalType": "struct Auction.AuctionStruct[]",
          "name": "Auctions",
          "type": "tuple[]"
        }
      ],
      "stateMutability": "view",
      "type": "function"
    },
    {
      "inputs": [],
      "name": "getSoldAuction",
      "outputs": [
        {
          "components": [
            {
              "internalType": "string",
              "name": "name",
              "type": "string"
            },
            {
              "internalType": "string",
              "name": "description",
              "type": "string"
            },
            {
              "internalType": "string",
              "name": "image",
              "type": "string"
            },
            {
              "internalType": "uint256",
              "name": "tokenId",
              "type": "uint256"
            },
            {
              "internalType": "address",
              "name": "seller",
              "type": "address"
            },
            {
              "internalType": "address",
              "name": "owner",
              "type": "address"
            },
            {
              "internalType": "address",
              "name": "winner",
              "type": "address"
            },
            {
              "internalType": "uint256",
              "name": "price",
              "type": "uint256"
            },
            {
              "internalType": "bool",
              "name": "sold",
              "type": "bool"
            },
            {
              "internalType": "bool",
              "name": "live",
              "type": "bool"
            },
            {
              "internalType": "bool",
              "name": "biddable",
              "type": "bool"
            },
            {
              "internalType": "uint256",
              "name": "bids",
              "type": "uint256"
            },
            {
              "internalType": "uint256",
              "name": "duration",
              "type": "uint256"
            }
          ],
          "internalType": "struct Auction.AuctionStruct[]",
          "name": "Auctions",
          "type": "tuple[]"
        }
      ],
      "stateMutability": "view",
      "type": "function"
    },
    {
      "inputs": [],
      "name": "getLiveAuctions",
      "outputs": [
        {
          "components": [
            {
              "internalType": "string",
              "name": "name",
              "type": "string"
            },
            {
              "internalType": "string",
              "name": "description",
              "type": "string"
            },
            {
              "internalType": "string",
              "name": "image",
              "type": "string"
            },
            {
              "internalType": "uint256",
              "name": "tokenId",
              "type": "uint256"
            },
            {
              "internalType": "address",
              "name": "seller",
              "type": "address"
            },
            {
              "internalType": "address",
              "name": "owner",
              "type": "address"
            },
            {
              "internalType": "address",
              "name": "winner",
              "type": "address"
            },
            {
              "internalType": "uint256",
              "name": "price",
              "type": "uint256"
            },
            {
              "internalType": "bool",
              "name": "sold",
              "type": "bool"
            },
            {
              "internalType": "bool",
              "name": "live",
              "type": "bool"
            },
            {
              "internalType": "bool",
              "name": "biddable",
              "type": "bool"
            },
            {
              "internalType": "uint256",
              "name": "bids",
              "type": "uint256"
            },
            {
              "internalType": "uint256",
              "name": "duration",
              "type": "uint256"
            }
          ],
          "internalType": "struct Auction.AuctionStruct[]",
          "name": "Auctions",
          "type": "tuple[]"
        }
      ],
      "stateMutability": "view",
      "type": "function"
    },
    {
      "inputs": [
        {
          "internalType": "uint256",
          "name": "tokenId",
          "type": "uint256"
        }
      ],
      "name": "getBidders",
      "outputs": [
        {
          "components": [
            {
              "internalType": "address",
              "name": "bidder",
              "type": "address"
            },
            {
              "internalType": "uint256",
              "name": "price",
              "type": "uint256"
            },
            {
              "internalType": "uint256",
              "name": "timestamp",
              "type": "uint256"
            },
            {
              "internalType": "bool",
              "name": "refunded",
              "type": "bool"
            },
            {
              "internalType": "bool",
              "name": "won",
              "type": "bool"
            }
          ],
          "internalType": "struct Auction.BidderStruct[]",
          "name": "",
          "type": "tuple[]"
        }
      ],
      "stateMutability": "view",
      "type": "function"
    }
  ],
  "bytecode": "0x608060405266470de4df820000600a553480156200001c57600080fd5b50604051620076b2380380620076b283398181016040528101906200004291906200016b565b6040518060400160405280600e81526020017f41756374696f6e20546f6b656e730000000000000000000000000000000000008152506040518060400160405280600381526020017f41555400000000000000000000000000000000000000000000000000000000008152508160009081620000bf91906200040d565b508060019081620000d191906200040d565b505050600160078190555033600960006101000a81548173ffffffffffffffffffffffffffffffffffffffff021916908373ffffffffffffffffffffffffffffffffffffffff16021790555080600b8190555050620004f4565b600080fd5b6000819050919050565b620001458162000130565b81146200015157600080fd5b50565b60008151905062000165816200013a565b92915050565b6000602082840312156200018457620001836200012b565b5b6000620001948482850162000154565b91505092915050565b600081519050919050565b7f4e487b7100000000000000000000000000000000000000000000000000000000600052604160045260246000fd5b7f4e487b7100000000000000000000000000000000000000000000000000000000600052602260045260246000fd5b600060028204905060018216806200021f57607f821691505b602082108103620002355762000234620001d7565b5b50919050565b60008190508160005260206000209050919050565b60006020601f8301049050919050565b600082821b905092915050565b6000600883026200029f7fffffffffffffffffffffffffffffffffffffffffffffffffffffffffffffffff8262000260565b620002ab868362000260565b95508019841693508086168417925050509392505050565b6000819050919050565b6000620002ee620002e8620002e28462000130565b620002c3565b62000130565b9050919050565b6000819050919050565b6200030a83620002cd565b620003226200031982620002f5565b8484546200026d565b825550505050565b600090565b620003396200032a565b62000346818484620002ff565b505050565b5b818110156200036e57620003626000826200032f565b6001810190506200034c565b5050565b601f821115620003bd5762000387816200023b565b620003928462000250565b81016020851015620003a2578190505b620003ba620003b18562000250565b8301826200034b565b50505b505050565b600082821c905092915050565b6000620003e260001984600802620003c2565b1980831691505092915050565b6000620003fd8383620003cf565b9150826002028217905092915050565b62000418826200019d565b67ffffffffffffffff811115620004345762000433620001a8565b5b62000440825462000206565b6200044d82828562000372565b600060209050601f83116001811462000485576000841562000470578287015190505b6200047c8582620003ef565b865550620004ec565b601f19841662000495866200023b565b60005b82811015620004bf5784890151825560018201915060208501945060208101905062000498565b86831015620004df5784890151620004db601f891682620003cf565b8355505b6001600288020188555050505b505050505050565b6171ae80620005046000396000f3fe6080604052600436106101b75760003560e01c80637c726b69116100ec578063b88d4fde1161008a578063cbd2bdfd11610064578063cbd2bdfd14610612578063db0bd5c91461063d578063e985e9c514610668578063f5a06acf146106a5576101b7565b8063b88d4fde14610581578063bf65a333146105aa578063c87b56dd146105d5576101b7565b80639e78efd6116100c65780639e78efd6146104db578063a22cb46514610506578063a923f18c1461052f578063b3de019c14610558576101b7565b80637c726b691461046b57806395d89b41146104945780639979ef45146104bf576101b7565b806333748dcb116101595780636352211e116101335780636352211e1461038b57806370a08231146103c857806378bd7935146104055780637b15414014610442576101b7565b806333748dcb1461030957806342842e0e146103255780634fa7b5071461034e576101b7565b8063095ea7b311610195578063095ea7b31461026157806312e855851461028a5780631d8df68f146102b557806323b872dd146102e0576101b7565b806301ffc9a7146101bc57806306fdde03146101f9578063081812fc14610224575b600080fd5b3480156101c857600080fd5b506101e360048036038101906101de91906151c6565b6106c1565b6040516101f0919061520e565b60405180910390f35b34801561020557600080fd5b5061020e610722565b60405161021b91906152b9565b60405180910390f35b34801561023057600080fd5b5061024b60048036038101906102469190615311565b6107b4565b604051610258919061537f565b60405180910390f35b34801561026d57600080fd5b50610288600480360381019061028391906153c6565b6107fa565b005b34801561029657600080fd5b5061029f610911565b6040516102ac9190615415565b60405180910390f35b3480156102c157600080fd5b506102ca61091b565b6040516102d79190615690565b60405180910390f35b3480156102ec57600080fd5b50610307600480360381019061030291906156b2565b610dd1565b005b610323600480360381019061031e919061583a565b610e31565b005b34801561033157600080fd5b5061034c600480360381019061034791906156b2565b61123c565b005b34801561035a57600080fd5b5061037560048036038101906103709190615311565b61125c565b6040516103829190615a3c565b60405180910390f35b34801561039757600080fd5b506103b260048036038101906103ad9190615311565b61136e565b6040516103bf919061537f565b60405180910390f35b3480156103d457600080fd5b506103ef60048036038101906103ea9190615a5e565b6113f4565b6040516103fc9190615415565b60405180910390f35b34801561041157600080fd5b5061042c60048036038101906104279190615311565b6114ab565b6040516104399190615bb2565b60405180910390f35b34801561044e57600080fd5b5061046960048036038101906104649190615bd4565b61186a565b005b34801561047757600080fd5b50610492600480360381019061048d9190615311565b611c57565b005b3480156104a057600080fd5b506104a9611cf1565b6040516104b691906152b9565b60405180910390f35b6104d960048036038101906104d49190615311565b611d83565b005b3480156104e757600080fd5b506104f061207f565b6040516104fd9190615690565b60405180910390f35b34801561051257600080fd5b5061052d60048036038101906105289190615c40565b612533565b005b34801561053b57600080fd5b5061055660048036038101906105519190615c80565b612549565b005b34801561056457600080fd5b5061057f600480360381019061057a9190615bd4565b6127bf565b005b34801561058d57600080fd5b506105a860048036038101906105a39190615dae565b61292a565b005b3480156105b657600080fd5b506105bf61298c565b6040516105cc9190615690565b60405180910390f35b3480156105e157600080fd5b506105fc60048036038101906105f79190615311565b612ec2565b60405161060991906152b9565b60405180910390f35b34801561061e57600080fd5b50610627612fd4565b6040516106349190615690565b60405180910390f35b34801561064957600080fd5b506106526133d7565b60405161065f9190615690565b60405180910390f35b34801561067457600080fd5b5061068f600480360381019061068a9190615e31565b613891565b60405161069c919061520e565b60405180910390f35b6106bf60048036038101906106ba9190615311565b613925565b005b6000634906490660e01b7bffffffffffffffffffffffffffffffffffffffffffffffffffffffff1916827bffffffffffffffffffffffffffffffffffffffffffffffffffffffff1916148061071b575061071a82613c86565b5b9050919050565b60606000805461073190615ea0565b80601f016020809104026020016040519081016040528092919081815260200182805461075d90615ea0565b80156107aa5780601f1061077f576101008083540402835291602001916107aa565b820191906000526020600020905b81548152906001019060200180831161078d57829003601f168201915b5050505050905090565b60006107bf82613d68565b6004600083815260200190815260200160002060009054906101000a900473ffffffffffffffffffffffffffffffffffffffff169050919050565b60006108058261136e565b90508073ffffffffffffffffffffffffffffffffffffffff168373ffffffffffffffffffffffffffffffffffffffff1603610875576040517f08c379a000000000000000000000000000000000000000000000000000000000815260040161086c90615f43565b60405180910390fd5b8073ffffffffffffffffffffffffffffffffffffffff16610894613db3565b73ffffffffffffffffffffffffffffffffffffffff1614806108c357506108c2816108bd613db3565b613891565b5b610902576040517f08c379a00000000000000000000000000000000000000000000000000000000081526004016108f990615fd5565b60405180910390fd5b61090c8383613dbb565b505050565b6000600a54905090565b606060006109296008613e74565b9050600080600090505b8281101561099257600c600060018361094c9190616024565b815260200190815260200160002060080160009054906101000a900460ff161561097f57818061097b90616058565b9250505b808061098a90616058565b915050610933565b508067ffffffffffffffff8111156109ad576109ac61570f565b5b6040519080825280602002602001820160405280156109e657816020015b6109d3614fc7565b8152602001906001900390816109cb5790505b509250600080600090505b83811015610dca57600c6000600183610a0a9190616024565b815260200190815260200160002060080160009054906101000a900460ff1615610db757600c6000600183610a3f9190616024565b8152602001908152602001600020604051806101a0016040529081600082018054610a6990615ea0565b80601f0160208091040260200160405190810160405280929190818152602001828054610a9590615ea0565b8015610ae25780601f10610ab757610100808354040283529160200191610ae2565b820191906000526020600020905b815481529060010190602001808311610ac557829003601f168201915b50505050508152602001600182018054610afb90615ea0565b80601f0160208091040260200160405190810160405280929190818152602001828054610b2790615ea0565b8015610b745780601f10610b4957610100808354040283529160200191610b74565b820191906000526020600020905b815481529060010190602001808311610b5757829003601f168201915b50505050508152602001600282018054610b8d90615ea0565b80601f0160208091040260200160405190810160405280929190818152602001828054610bb990615ea0565b8015610c065780601f10610bdb57610100808354040283529160200191610c06565b820191906000526020600020905b815481529060010190602001808311610be957829003601f168201915b50505050508152602001600382015481526020016004820160009054906101000a900473ffffffffffffffffffffffffffffffffffffffff1673ffffffffffffffffffffffffffffffffffffffff1673ffffffffffffffffffffffffffffffffffffffff1681526020016005820160009054906101000a900473ffffffffffffffffffffffffffffffffffffffff1673ffffffffffffffffffffffffffffffffffffffff1673ffffffffffffffffffffffffffffffffffffffff1681526020016006820160009054906101000a900473ffffffffffffffffffffffffffffffffffffffff1673ffffffffffffffffffffffffffffffffffffffff1673ffffffffffffffffffffffffffffffffffffffff168152602001600782015481526020016008820160009054906101000a900460ff161515151581526020016008820160019054906101000a900460ff161515151581526020016008820160029054906101000a900460ff1615151515815260200160098201548152602001600a82015481525050858381518110610d9d57610d9c6160a0565b5b60200260200101819052508180610db390616058565b9250505b8080610dc290616058565b9150506109f1565b5050505090565b610de2610ddc613db3565b82613e82565b610e21576040517f08c379a0000000000000000000000000000000000000000000000000000000008152600401610e1890616141565b60405180910390fd5b610e2c838383613f17565b505050565b610e39614210565b60008111610e7c576040517f08c379a0000000000000000000000000000000000000000000000000000000008152600401610e73906161d3565b60405180910390fd5b600a54341015610ec1576040517f08c379a0000000000000000000000000000000000000000000000000000000008152600401610eb890616265565b60405180910390fd5b610eca8261425f565b610f09576040517f08c379a0000000000000000000000000000000000000000000000000000000008152600401610f00906162d1565b60405180910390fd5b6000610f156008613e74565b9050610f1f614fc7565b81816060018181525050868160000181905250858160200181905250848160400181905250828160e0018181525050610f5c600080600080614297565b8161018001818152505033816080019073ffffffffffffffffffffffffffffffffffffffff16908173ffffffffffffffffffffffffffffffffffffffff1681525050338160a0019073ffffffffffffffffffffffffffffffffffffffff16908173ffffffffffffffffffffffffffffffffffffffff168152505080600c60008481526020019081526020016000206000820151816000019081610fff919061649d565b506020820151816001019081611015919061649d565b50604082015181600201908161102b919061649d565b506060820151816003015560808201518160040160006101000a81548173ffffffffffffffffffffffffffffffffffffffff021916908373ffffffffffffffffffffffffffffffffffffffff16021790555060a08201518160050160006101000a81548173ffffffffffffffffffffffffffffffffffffffff021916908373ffffffffffffffffffffffffffffffffffffffff16021790555060c08201518160060160006101000a81548173ffffffffffffffffffffffffffffffffffffffff021916908373ffffffffffffffffffffffffffffffffffffffff16021790555060e082015181600701556101008201518160080160006101000a81548160ff0219169083151502179055506101208201518160080160016101000a81548160ff0219169083151502179055506101408201518160080160026101000a81548160ff021916908315150217905550610160820151816009015561018082015181600a01559050506001600d600084815260200190815260200160002060006101000a81548160ff0219169083151502179055506111eb600960009054906101000a900473ffffffffffffffffffffffffffffffffffffffff16600a54614303565b817fa693a8f68fe4df789541ddd1b84d32ccaea90adddcc88406b4bbbf6466328d3c336000866000604051611223949392919061656f565b60405180910390a2505061123561437e565b5050505050565b6112578383836040518060200160405280600081525061292a565b505050565b6060600f6000838152602001908152602001600020805480602002602001604051908101604052809291908181526020016000905b8282101561136357838290600052602060002090600402016040518060a00160405290816000820160009054906101000a900473ffffffffffffffffffffffffffffffffffffffff1673ffffffffffffffffffffffffffffffffffffffff1673ffffffffffffffffffffffffffffffffffffffff16815260200160018201548152602001600282015481526020016003820160009054906101000a900460ff161515151581526020016003820160019054906101000a900460ff16151515158152505081526020019060010190611291565b505050509050919050565b60008061137a83614388565b9050600073ffffffffffffffffffffffffffffffffffffffff168173ffffffffffffffffffffffffffffffffffffffff16036113eb576040517f08c379a00000000000000000000000000000000000000000000000000000000081526004016113e290616600565b60405180910390fd5b80915050919050565b60008073ffffffffffffffffffffffffffffffffffffffff168273ffffffffffffffffffffffffffffffffffffffff1603611464576040517f08c379a000000000000000000000000000000000000000000000000000000000815260040161145b90616692565b60405180910390fd5b600360008373ffffffffffffffffffffffffffffffffffffffff1673ffffffffffffffffffffffffffffffffffffffff168152602001908152602001600020549050919050565b6114b3614fc7565b600d600083815260200190815260200160002060009054906101000a900460ff16611513576040517f08c379a000000000000000000000000000000000000000000000000000000000815260040161150a906166fe565b60405180910390fd5b600c6000838152602001908152602001600020604051806101a001604052908160008201805461154290615ea0565b80601f016020809104026020016040519081016040528092919081815260200182805461156e90615ea0565b80156115bb5780601f10611590576101008083540402835291602001916115bb565b820191906000526020600020905b81548152906001019060200180831161159e57829003601f168201915b505050505081526020016001820180546115d490615ea0565b80601f016020809104026020016040519081016040528092919081815260200182805461160090615ea0565b801561164d5780601f106116225761010080835404028352916020019161164d565b820191906000526020600020905b81548152906001019060200180831161163057829003601f168201915b5050505050815260200160028201805461166690615ea0565b80601f016020809104026020016040519081016040528092919081815260200182805461169290615ea0565b80156116df5780601f106116b4576101008083540402835291602001916116df565b820191906000526020600020905b8154815290600101906020018083116116c257829003601f168201915b50505050508152602001600382015481526020016004820160009054906101000a900473ffffffffffffffffffffffffffffffffffffffff1673ffffffffffffffffffffffffffffffffffffffff1673ffffffffffffffffffffffffffffffffffffffff1681526020016005820160009054906101000a900473ffffffffffffffffffffffffffffffffffffffff1673ffffffffffffffffffffffffffffffffffffffff1673ffffffffffffffffffffffffffffffffffffffff1681526020016006820160009054906101000a900473ffffffffffffffffffffffffffffffffffffffff1673ffffffffffffffffffffffffffffffffffffffff1673ffffffffffffffffffffffffffffffffffffffff168152602001600782015481526020016008820160009054906101000a900460ff161515151581526020016008820160019054906101000a900460ff161515151581526020016008820160029054906101000a900460ff1615151515815260200160098201548152602001600a820154815250509050919050565b600c6000838152602001908152602001600020600a015461188f600080600080614297565b116118cf576040517f08c379a00000000000000000000000000000000000000000000000000000000081526004016118c69061676a565b60405180910390fd5b3373ffffffffffffffffffffffffffffffffffffffff16600c600084815260200190815260200160002060060160009054906101000a900473ffffffffffffffffffffffffffffffffffffffff1673ffffffffffffffffffffffffffffffffffffffff1614611973576040517f08c379a000000000000000000000000000000000000000000000000000000000815260040161196a906167d6565b60405180910390fd5b6001600f6000848152602001908152602001600020828154811061199a576119996160a0565b5b906000526020600020906004020160030160016101000a81548160ff0219169083151502179055506000600c60008481526020019081526020016000206007015490506000600c600085815260200190815260200160002060040160009054906101000a900473ffffffffffffffffffffffffffffffffffffffff1690506000600c600086815260200190815260200160002060060160006101000a81548173ffffffffffffffffffffffffffffffffffffffff021916908373ffffffffffffffffffffffffffffffffffffffff1602179055506000600c600086815260200190815260200160002060080160016101000a81548160ff0219169083151502179055506001600c600086815260200190815260200160002060080160006101000a81548160ff0219169083151502179055506000600c600086815260200190815260200160002060090181905550611af6600080600080614297565b600c6000868152602001908152602001600020600a018190555060006064600b5484611b2291906167f6565b611b2c9190616867565b9050611b79600c600087815260200190815260200160002060050160009054906101000a900473ffffffffffffffffffffffffffffffffffffffff168285611b749190616898565b614303565b611b838282614303565b3073ffffffffffffffffffffffffffffffffffffffff166323b872dd3033886040518463ffffffff1660e01b8152600401611bc0939291906168cc565b600060405180830381600087803b158015611bda57600080fd5b505af1158015611bee573d6000803e3d6000fd5b5050505033600c600087815260200190815260200160002060050160006101000a81548173ffffffffffffffffffffffffffffffffffffffff021916908373ffffffffffffffffffffffffffffffffffffffff160217905550611c50856143c5565b5050505050565b600960009054906101000a900473ffffffffffffffffffffffffffffffffffffffff1673ffffffffffffffffffffffffffffffffffffffff163373ffffffffffffffffffffffffffffffffffffffff1614611ce7576040517f08c379a0000000000000000000000000000000000000000000000000000000008152600401611cde9061694f565b60405180910390fd5b80600a8190555050565b606060018054611d0090615ea0565b80601f0160208091040260200160405190810160405280929190818152602001828054611d2c90615ea0565b8015611d795780601f10611d4e57610100808354040283529160200191611d79565b820191906000526020600020905b815481529060010190602001808311611d5c57829003601f168201915b5050505050905090565b600c600082815260200190815260200160002060070154341015611ddc576040517f08c379a0000000000000000000000000000000000000000000000000000000008152600401611dd3906169bb565b60405180910390fd5b611dea600080600080614297565b600c6000838152602001908152602001600020600a015411611e41576040517f08c379a0000000000000000000000000000000000000000000000000000000008152600401611e3890616a27565b60405180910390fd5b600c600082815260200190815260200160002060080160029054906101000a900460ff16611ea4576040517f08c379a0000000000000000000000000000000000000000000000000000000008152600401611e9b90616a93565b60405180910390fd5b611eac615077565b33816000019073ffffffffffffffffffffffffffffffffffffffff16908173ffffffffffffffffffffffffffffffffffffffff168152505034816020018181525050611efc600080600080614297565b816040018181525050600f600083815260200190815260200160002081908060018154018082558091505060019003906000526020600020906004020160009091909190915060008201518160000160006101000a81548173ffffffffffffffffffffffffffffffffffffffff021916908373ffffffffffffffffffffffffffffffffffffffff160217905550602082015181600101556040820151816002015560608201518160030160006101000a81548160ff02191690831515021790555060808201518160030160016101000a81548160ff0219169083151502179055505050600c6000838152602001908152602001600020600901600081548092919061200690616058565b919050555034600c60008481526020019081526020016000206007018190555033600c600084815260200190815260200160002060060160006101000a81548173ffffffffffffffffffffffffffffffffffffffff021916908373ffffffffffffffffffffffffffffffffffffffff1602179055505050565b6060600061208d6008613e74565b9050600080600090505b828110156120f557600c60006001836120b09190616024565b815260200190815260200160002060080160009054906101000a900460ff166120e25781806120de90616058565b9250505b80806120ed90616058565b915050612097565b508067ffffffffffffffff8111156121105761210f61570f565b5b60405190808252806020026020018201604052801561214957816020015b612136614fc7565b81526020019060019003908161212e5790505b509250600080600090505b8381101561252c57600c600060018361216d9190616024565b815260200190815260200160002060080160009054906101000a900460ff1661251957600c60006001836121a19190616024565b8152602001908152602001600020604051806101a00160405290816000820180546121cb90615ea0565b80601f01602080910402602001604051908101604052809291908181526020018280546121f790615ea0565b80156122445780601f1061221957610100808354040283529160200191612244565b820191906000526020600020905b81548152906001019060200180831161222757829003601f168201915b5050505050815260200160018201805461225d90615ea0565b80601f016020809104026020016040519081016040528092919081815260200182805461228990615ea0565b80156122d65780601f106122ab576101008083540402835291602001916122d6565b820191906000526020600020905b8154815290600101906020018083116122b957829003601f168201915b505050505081526020016002820180546122ef90615ea0565b80601f016020809104026020016040519081016040528092919081815260200182805461231b90615ea0565b80156123685780601f1061233d57610100808354040283529160200191612368565b820191906000526020600020905b81548152906001019060200180831161234b57829003601f168201915b50505050508152602001600382015481526020016004820160009054906101000a900473ffffffffffffffffffffffffffffffffffffffff1673ffffffffffffffffffffffffffffffffffffffff1673ffffffffffffffffffffffffffffffffffffffff1681526020016005820160009054906101000a900473ffffffffffffffffffffffffffffffffffffffff1673ffffffffffffffffffffffffffffffffffffffff1673ffffffffffffffffffffffffffffffffffffffff1681526020016006820160009054906101000a900473ffffffffffffffffffffffffffffffffffffffff1673ffffffffffffffffffffffffffffffffffffffff1673ffffffffffffffffffffffffffffffffffffffff168152602001600782015481526020016008820160009054906101000a900460ff161515151581526020016008820160019054906101000a900460ff161515151581526020016008820160029054906101000a900460ff1615151515815260200160098201548152602001600a820154815250508583815181106124ff576124fe6160a0565b5b6020026020010181905250818061251590616058565b9250505b808061252490616058565b915050612154565b5050505090565b61254561253e613db3565b8383614627565b5050565b3373ffffffffffffffffffffffffffffffffffffffff16600c600088815260200190815260200160002060050160009054906101000a900473ffffffffffffffffffffffffffffffffffffffff1673ffffffffffffffffffffffffffffffffffffffff16146125ed576040517f08c379a00000000000000000000000000000000000000000000000000000000081526004016125e49061694f565b60405180910390fd5b6000600c60008881526020019081526020016000206009015414612646576040517f08c379a000000000000000000000000000000000000000000000000000000000815260040161263d90616aff565b60405180910390fd5b600c600087815260200190815260200160002060080160019054906101000a900460ff166126e957612679306001612533565b3073ffffffffffffffffffffffffffffffffffffffff166323b872dd3330896040518463ffffffff1660e01b81526004016126b6939291906168cc565b600060405180830381600087803b1580156126d057600080fd5b505af11580156126e4573d6000803e3d6000fd5b505050505b6000600c6000888152602001908152602001600020600901819055506001600c600088815260200190815260200160002060080160016101000a81548160ff0219169083151502179055506000600c600088815260200190815260200160002060080160006101000a81548160ff02191690831515021790555084600c600088815260200190815260200160002060080160026101000a81548160ff02191690831515021790555061279d84848484614297565b600c6000888152602001908152602001600020600a0181905550505050505050565b3373ffffffffffffffffffffffffffffffffffffffff16600c600084815260200190815260200160002060050160009054906101000a900473ffffffffffffffffffffffffffffffffffffffff1673ffffffffffffffffffffffffffffffffffffffff1614612863576040517f08c379a000000000000000000000000000000000000000000000000000000000815260040161285a9061694f565b60405180910390fd5b600c6000838152602001908152602001600020600a0154612888600080600080614297565b116128c8576040517f08c379a00000000000000000000000000000000000000000000000000000000081526004016128bf9061676a565b60405180910390fd5b6000811161290b576040517f08c379a000000000000000000000000000000000000000000000000000000000815260040161290290616b6b565b60405180910390fd5b80600c6000848152602001908152602001600020600701819055505050565b61293b612935613db3565b83613e82565b61297a576040517f08c379a000000000000000000000000000000000000000000000000000000000815260040161297190616141565b60405180910390fd5b61298684848484614793565b50505050565b6060600061299a6008613e74565b9050600080600090505b82811015612a43573373ffffffffffffffffffffffffffffffffffffffff16600c60006001846129d49190616024565b815260200190815260200160002060050160009054906101000a900473ffffffffffffffffffffffffffffffffffffffff1673ffffffffffffffffffffffffffffffffffffffff1603612a30578180612a2c90616058565b9250505b8080612a3b90616058565b9150506129a4565b508067ffffffffffffffff811115612a5e57612a5d61570f565b5b604051908082528060200260200182016040528015612a9757816020015b612a84614fc7565b815260200190600190039081612a7c5790505b509250600080600090505b83811015612ebb573373ffffffffffffffffffffffffffffffffffffffff16600c6000600184612ad29190616024565b815260200190815260200160002060050160009054906101000a900473ffffffffffffffffffffffffffffffffffffffff1673ffffffffffffffffffffffffffffffffffffffff1603612ea857600c6000600183612b309190616024565b8152602001908152602001600020604051806101a0016040529081600082018054612b5a90615ea0565b80601f0160208091040260200160405190810160405280929190818152602001828054612b8690615ea0565b8015612bd35780601f10612ba857610100808354040283529160200191612bd3565b820191906000526020600020905b815481529060010190602001808311612bb657829003601f168201915b50505050508152602001600182018054612bec90615ea0565b80601f0160208091040260200160405190810160405280929190818152602001828054612c1890615ea0565b8015612c655780601f10612c3a57610100808354040283529160200191612c65565b820191906000526020600020905b815481529060010190602001808311612c4857829003601f168201915b50505050508152602001600282018054612c7e90615ea0565b80601f0160208091040260200160405190810160405280929190818152602001828054612caa90615ea0565b8015612cf75780601f10612ccc57610100808354040283529160200191612cf7565b820191906000526020600020905b815481529060010190602001808311612cda57829003601f168201915b50505050508152602001600382015481526020016004820160009054906101000a900473ffffffffffffffffffffffffffffffffffffffff1673ffffffffffffffffffffffffffffffffffffffff1673ffffffffffffffffffffffffffffffffffffffff1681526020016005820160009054906101000a900473ffffffffffffffffffffffffffffffffffffffff1673ffffffffffffffffffffffffffffffffffffffff1673ffffffffffffffffffffffffffffffffffffffff1681526020016006820160009054906101000a900473ffffffffffffffffffffffffffffffffffffffff1673ffffffffffffffffffffffffffffffffffffffff1673ffffffffffffffffffffffffffffffffffffffff168152602001600782015481526020016008820160009054906101000a900460ff161515151581526020016008820160019054906101000a900460ff161515151581526020016008820160029054906101000a900460ff1615151515815260200160098201548152602001600a82015481525050858381518110612e8e57612e8d6160a0565b5b60200260200101819052508180612ea490616058565b9250505b8080612eb390616058565b915050612aa2565b5050505090565b6060612ecd82613d68565b6000600660008481526020019081526020016000208054612eed90615ea0565b80601f0160208091040260200160405190810160405280929190818152602001828054612f1990615ea0565b8015612f665780601f10612f3b57610100808354040283529160200191612f66565b820191906000526020600020905b815481529060010190602001808311612f4957829003601f168201915b505050505090506000612f776147ef565b90506000815103612f8c578192505050612fcf565b600082511115612fc1578082604051602001612fa9929190616bc7565b60405160208183030381529060405292505050612fcf565b612fca84614806565b925050505b919050565b60606000612fe26008613e74565b90508067ffffffffffffffff811115612ffe57612ffd61570f565b5b60405190808252806020026020018201604052801561303757816020015b613024614fc7565b81526020019060019003908161301c5790505b50915060005b818110156133d257600c60006001836130569190616024565b8152602001908152602001600020604051806101a001604052908160008201805461308090615ea0565b80601f01602080910402602001604051908101604052809291908181526020018280546130ac90615ea0565b80156130f95780601f106130ce576101008083540402835291602001916130f9565b820191906000526020600020905b8154815290600101906020018083116130dc57829003601f168201915b5050505050815260200160018201805461311290615ea0565b80601f016020809104026020016040519081016040528092919081815260200182805461313e90615ea0565b801561318b5780601f106131605761010080835404028352916020019161318b565b820191906000526020600020905b81548152906001019060200180831161316e57829003601f168201915b505050505081526020016002820180546131a490615ea0565b80601f01602080910402602001604051908101604052809291908181526020018280546131d090615ea0565b801561321d5780601f106131f25761010080835404028352916020019161321d565b820191906000526020600020905b81548152906001019060200180831161320057829003601f168201915b50505050508152602001600382015481526020016004820160009054906101000a900473ffffffffffffffffffffffffffffffffffffffff1673ffffffffffffffffffffffffffffffffffffffff1673ffffffffffffffffffffffffffffffffffffffff1681526020016005820160009054906101000a900473ffffffffffffffffffffffffffffffffffffffff1673ffffffffffffffffffffffffffffffffffffffff1673ffffffffffffffffffffffffffffffffffffffff1681526020016006820160009054906101000a900473ffffffffffffffffffffffffffffffffffffffff1673ffffffffffffffffffffffffffffffffffffffff1673ffffffffffffffffffffffffffffffffffffffff168152602001600782015481526020016008820160009054906101000a900460ff161515151581526020016008820160019054906101000a900460ff161515151581526020016008820160029054906101000a900460ff1615151515815260200160098201548152602001600a820154815250508382815181106133b4576133b36160a0565b5b602002602001018190525080806133ca90616058565b91505061303d565b505090565b606060006133e56008613e74565b9050600080600090505b8281101561345057613405600080600080614297565b600c60006001846134169190616024565b8152602001908152602001600020600a0154111561343d57818061343990616058565b9250505b808061344890616058565b9150506133ef565b508067ffffffffffffffff81111561346b5761346a61570f565b5b6040519080825280602002602001820160405280156134a457816020015b613491614fc7565b8152602001906001900390816134895790505b509250600080600090505b8381101561388a576134c5600080600080614297565b600c60006001846134d69190616024565b8152602001908152602001600020600a0154111561387757600c60006001836134ff9190616024565b8152602001908152602001600020604051806101a001604052908160008201805461352990615ea0565b80601f016020809104026020016040519081016040528092919081815260200182805461355590615ea0565b80156135a25780601f10613577576101008083540402835291602001916135a2565b820191906000526020600020905b81548152906001019060200180831161358557829003601f168201915b505050505081526020016001820180546135bb90615ea0565b80601f01602080910402602001604051908101604052809291908181526020018280546135e790615ea0565b80156136345780601f1061360957610100808354040283529160200191613634565b820191906000526020600020905b81548152906001019060200180831161361757829003601f168201915b5050505050815260200160028201805461364d90615ea0565b80601f016020809104026020016040519081016040528092919081815260200182805461367990615ea0565b80156136c65780601f1061369b576101008083540402835291602001916136c6565b820191906000526020600020905b8154815290600101906020018083116136a957829003601f168201915b50505050508152602001600382015481526020016004820160009054906101000a900473ffffffffffffffffffffffffffffffffffffffff1673ffffffffffffffffffffffffffffffffffffffff1673ffffffffffffffffffffffffffffffffffffffff1681526020016005820160009054906101000a900473ffffffffffffffffffffffffffffffffffffffff1673ffffffffffffffffffffffffffffffffffffffff1673ffffffffffffffffffffffffffffffffffffffff1681526020016006820160009054906101000a900473ffffffffffffffffffffffffffffffffffffffff1673ffffffffffffffffffffffffffffffffffffffff1673ffffffffffffffffffffffffffffffffffffffff168152602001600782015481526020016008820160009054906101000a900460ff161515151581526020016008820160019054906101000a900460ff161515151581526020016008820160029054906101000a900460ff1615151515815260200160098201548152602001600a8201548152505085838151811061385d5761385c6160a0565b5b6020026020010181905250818061387390616058565b9250505b808061388290616058565b9150506134af565b5050505090565b6000600560008473ffffffffffffffffffffffffffffffffffffffff1673ffffffffffffffffffffffffffffffffffffffff16815260200190815260200160002060008373ffffffffffffffffffffffffffffffffffffffff1673ffffffffffffffffffffffffffffffffffffffff16815260200190815260200160002060009054906101000a900460ff16905092915050565b61392d614210565b600c600082815260200190815260200160002060070154341015613986576040517f08c379a000000000000000000000000000000000000000000000000000000000815260040161397d906169bb565b60405180910390fd5b613994600080600080614297565b600c6000838152602001908152602001600020600a0154116139eb576040517f08c379a00000000000000000000000000000000000000000000000000000000081526004016139e290616a27565b60405180910390fd5b600c600082815260200190815260200160002060080160029054906101000a900460ff1615613a4f576040517f08c379a0000000000000000000000000000000000000000000000000000000008152600401613a4690616c37565b60405180910390fd5b6000600c600083815260200190815260200160002060040160009054906101000a900473ffffffffffffffffffffffffffffffffffffffff1690506000600c600084815260200190815260200160002060080160016101000a81548160ff0219169083151502179055506001600c600084815260200190815260200160002060080160006101000a81548160ff0219169083151502179055506000600c600084815260200190815260200160002060090181905550613b12600080600080614297565b600c6000848152602001908152602001600020600a018190555060006064600b5434613b3e91906167f6565b613b489190616867565b9050613b95600c600085815260200190815260200160002060050160009054906101000a900473ffffffffffffffffffffffffffffffffffffffff168234613b909190616898565b614303565b613b9f8282614303565b3073ffffffffffffffffffffffffffffffffffffffff166323b872dd3033600c6000888152602001908152602001600020600301546040518463ffffffff1660e01b8152600401613bf2939291906168cc565b600060405180830381600087803b158015613c0c57600080fd5b505af1158015613c20573d6000803e3d6000fd5b5050505033600c600085815260200190815260200160002060050160006101000a81548173ffffffffffffffffffffffffffffffffffffffff021916908373ffffffffffffffffffffffffffffffffffffffff1602179055505050613c8361437e565b50565b60007f80ac58cd000000000000000000000000000000000000000000000000000000007bffffffffffffffffffffffffffffffffffffffffffffffffffffffff1916827bffffffffffffffffffffffffffffffffffffffffffffffffffffffff19161480613d5157507f5b5e139f000000000000000000000000000000000000000000000000000000007bffffffffffffffffffffffffffffffffffffffffffffffffffffffff1916827bffffffffffffffffffffffffffffffffffffffffffffffffffffffff1916145b80613d615750613d608261486e565b5b9050919050565b613d71816148d8565b613db0576040517f08c379a0000000000000000000000000000000000000000000000000000000008152600401613da790616600565b60405180910390fd5b50565b600033905090565b816004600083815260200190815260200160002060006101000a81548173ffffffffffffffffffffffffffffffffffffffff021916908373ffffffffffffffffffffffffffffffffffffffff160217905550808273ffffffffffffffffffffffffffffffffffffffff16613e2e8361136e565b73ffffffffffffffffffffffffffffffffffffffff167f8c5be1e5ebec7d5bd14f71427d1e84f3dd0314c0f7b2291e5b200ac8c7c3b92560405160405180910390a45050565b600081600001549050919050565b600080613e8e8361136e565b90508073ffffffffffffffffffffffffffffffffffffffff168473ffffffffffffffffffffffffffffffffffffffff161480613ed05750613ecf8185613891565b5b80613f0e57508373ffffffffffffffffffffffffffffffffffffffff16613ef6846107b4565b73ffffffffffffffffffffffffffffffffffffffff16145b91505092915050565b8273ffffffffffffffffffffffffffffffffffffffff16613f378261136e565b73ffffffffffffffffffffffffffffffffffffffff1614613f8d576040517f08c379a0000000000000000000000000000000000000000000000000000000008152600401613f8490616cc9565b60405180910390fd5b600073ffffffffffffffffffffffffffffffffffffffff168273ffffffffffffffffffffffffffffffffffffffff1603613ffc576040517f08c379a0000000000000000000000000000000000000000000000000000000008152600401613ff390616d5b565b60405180910390fd5b6140098383836001614919565b8273ffffffffffffffffffffffffffffffffffffffff166140298261136e565b73ffffffffffffffffffffffffffffffffffffffff161461407f576040517f08c379a000000000000000000000000000000000000000000000000000000000815260040161407690616cc9565b60405180910390fd5b6004600082815260200190815260200160002060006101000a81549073ffffffffffffffffffffffffffffffffffffffff02191690556001600360008573ffffffffffffffffffffffffffffffffffffffff1673ffffffffffffffffffffffffffffffffffffffff168152602001908152602001600020600082825403925050819055506001600360008473ffffffffffffffffffffffffffffffffffffffff1673ffffffffffffffffffffffffffffffffffffffff16815260200190815260200160002060008282540192505081905550816002600083815260200190815260200160002060006101000a81548173ffffffffffffffffffffffffffffffffffffffff021916908373ffffffffffffffffffffffffffffffffffffffff160217905550808273ffffffffffffffffffffffffffffffffffffffff168473ffffffffffffffffffffffffffffffffffffffff167fddf252ad1be2c89b69c2b068fc378daa952ba7f163c4a11628f55a4df523b3ef60405160405180910390a461420b838383600161491f565b505050565b600260075403614255576040517f08c379a000000000000000000000000000000000000000000000000000000000815260040161424c90616dc7565b60405180910390fd5b6002600781905550565b600061426b6008614925565b60006142776008613e74565b9050614283338261493b565b61428d8184614b58565b6001915050919050565b600081620151806142a891906167f6565b83610e106142b691906167f6565b85603c6142c391906167f6565b8760016142d091906167f6565b426142db9190616024565b6142e59190616024565b6142ef9190616024565b6142f99190616024565b9050949350505050565b60008273ffffffffffffffffffffffffffffffffffffffff168260405161432990616e18565b60006040518083038185875af1925050503d8060008114614366576040519150601f19603f3d011682016040523d82523d6000602084013e61436b565b606091505b505090508061437957600080fd5b505050565b6001600781905550565b60006002600083815260200190815260200160002060009054906101000a900473ffffffffffffffffffffffffffffffffffffffff169050919050565b60005b600f600083815260200190815260200160002080549050811015614604573373ffffffffffffffffffffffffffffffffffffffff16600f60008481526020019081526020016000208281548110614422576144216160a0565b5b906000526020600020906004020160000160009054906101000a900473ffffffffffffffffffffffffffffffffffffffff1673ffffffffffffffffffffffffffffffffffffffff1614614559576001600f60008481526020019081526020016000208281548110614496576144956160a0565b5b906000526020600020906004020160030160006101000a81548160ff021916908315150217905550614554600f600084815260200190815260200160002082815481106144e6576144e56160a0565b5b906000526020600020906004020160000160009054906101000a900473ffffffffffffffffffffffffffffffffffffffff16600f6000858152602001908152602001600020838154811061453d5761453c6160a0565b5b906000526020600020906004020160010154614303565b6145a9565b6001600f600084815260200190815260200160002082815481106145805761457f6160a0565b5b906000526020600020906004020160030160016101000a81548160ff0219169083151502179055505b6145b7600080600080614297565b600f600084815260200190815260200160002082815481106145dc576145db6160a0565b5b90600052602060002090600402016002018190555080806145fc90616058565b9150506143c8565b50600f6000828152602001908152602001600020600061462491906150c0565b50565b8173ffffffffffffffffffffffffffffffffffffffff168373ffffffffffffffffffffffffffffffffffffffff1603614695576040517f08c379a000000000000000000000000000000000000000000000000000000000815260040161468c90616e79565b60405180910390fd5b80600560008573ffffffffffffffffffffffffffffffffffffffff1673ffffffffffffffffffffffffffffffffffffffff16815260200190815260200160002060008473ffffffffffffffffffffffffffffffffffffffff1673ffffffffffffffffffffffffffffffffffffffff16815260200190815260200160002060006101000a81548160ff0219169083151502179055508173ffffffffffffffffffffffffffffffffffffffff168373ffffffffffffffffffffffffffffffffffffffff167f17307eab39ab6107e8899845ad3d59bd9653f200f220920489ca2b5937696c3183604051614786919061520e565b60405180910390a3505050565b61479e848484613f17565b6147aa84848484614bfc565b6147e9576040517f08c379a00000000000000000000000000000000000000000000000000000000081526004016147e090616f0b565b60405180910390fd5b50505050565b606060405180602001604052806000815250905090565b606061481182613d68565b600061481b6147ef565b9050600081511161483b5760405180602001604052806000815250614866565b8061484584614d83565b604051602001614856929190616bc7565b6040516020818303038152906040525b915050919050565b60007f01ffc9a7000000000000000000000000000000000000000000000000000000007bffffffffffffffffffffffffffffffffffffffffffffffffffffffff1916827bffffffffffffffffffffffffffffffffffffffffffffffffffffffff1916149050919050565b60008073ffffffffffffffffffffffffffffffffffffffff166148fa83614388565b73ffffffffffffffffffffffffffffffffffffffff1614159050919050565b50505050565b50505050565b6001816000016000828254019250508190555050565b600073ffffffffffffffffffffffffffffffffffffffff168273ffffffffffffffffffffffffffffffffffffffff16036149aa576040517f08c379a00000000000000000000000000000000000000000000000000000000081526004016149a190616f77565b60405180910390fd5b6149b3816148d8565b156149f3576040517f08c379a00000000000000000000000000000000000000000000000000000000081526004016149ea90616fe3565b60405180910390fd5b614a01600083836001614919565b614a0a816148d8565b15614a4a576040517f08c379a0000000000000000000000000000000000000000000000000000000008152600401614a4190616fe3565b60405180910390fd5b6001600360008473ffffffffffffffffffffffffffffffffffffffff1673ffffffffffffffffffffffffffffffffffffffff16815260200190815260200160002060008282540192505081905550816002600083815260200190815260200160002060006101000a81548173ffffffffffffffffffffffffffffffffffffffff021916908373ffffffffffffffffffffffffffffffffffffffff160217905550808273ffffffffffffffffffffffffffffffffffffffff16600073ffffffffffffffffffffffffffffffffffffffff167fddf252ad1be2c89b69c2b068fc378daa952ba7f163c4a11628f55a4df523b3ef60405160405180910390a4614b5460008383600161491f565b5050565b614b61826148d8565b614ba0576040517f08c379a0000000000000000000000000000000000000000000000000000000008152600401614b9790617075565b60405180910390fd5b80600660008481526020019081526020016000209081614bc0919061649d565b507ff8e1a15aba9398e019f0b49df1a4fde98ee17ae345cb5f6b5e2c27f5033e8ce782604051614bf09190615415565b60405180910390a15050565b6000614c1d8473ffffffffffffffffffffffffffffffffffffffff16614e51565b15614d76578373ffffffffffffffffffffffffffffffffffffffff1663150b7a02614c46613db3565b8786866040518563ffffffff1660e01b8152600401614c6894939291906170ea565b6020604051808303816000875af1925050508015614ca457506040513d601f19601f82011682018060405250810190614ca1919061714b565b60015b614d26573d8060008114614cd4576040519150601f19603f3d011682016040523d82523d6000602084013e614cd9565b606091505b506000815103614d1e576040517f08c379a0000000000000000000000000000000000000000000000000000000008152600401614d1590616f0b565b60405180910390fd5b805181602001fd5b63150b7a0260e01b7bffffffffffffffffffffffffffffffffffffffffffffffffffffffff1916817bffffffffffffffffffffffffffffffffffffffffffffffffffffffff191614915050614d7b565b600190505b949350505050565b606060006001614d9284614e74565b01905060008167ffffffffffffffff811115614db157614db061570f565b5b6040519080825280601f01601f191660200182016040528015614de35781602001600182028036833780820191505090505b509050600082602001820190505b600115614e46578080600190039150507f3031323334353637383961626364656600000000000000000000000000000000600a86061a8153600a8581614e3a57614e39616838565b5b04945060008503614df1575b819350505050919050565b6000808273ffffffffffffffffffffffffffffffffffffffff163b119050919050565b600080600090507a184f03e93ff9f4daa797ed6e38ed64bf6a1f0100000000000000008310614ed2577a184f03e93ff9f4daa797ed6e38ed64bf6a1f0100000000000000008381614ec857614ec7616838565b5b0492506040810190505b6d04ee2d6d415b85acef81000000008310614f0f576d04ee2d6d415b85acef81000000008381614f0557614f04616838565b5b0492506020810190505b662386f26fc100008310614f3e57662386f26fc100008381614f3457614f33616838565b5b0492506010810190505b6305f5e1008310614f67576305f5e1008381614f5d57614f5c616838565b5b0492506008810190505b6127108310614f8c576127108381614f8257614f81616838565b5b0492506004810190505b60648310614faf5760648381614fa557614fa4616838565b5b0492506002810190505b600a8310614fbe576001810190505b80915050919050565b604051806101a0016040528060608152602001606081526020016060815260200160008152602001600073ffffffffffffffffffffffffffffffffffffffff168152602001600073ffffffffffffffffffffffffffffffffffffffff168152602001600073ffffffffffffffffffffffffffffffffffffffff1681526020016000815260200160001515815260200160001515815260200160001515815260200160008152602001600081525090565b6040518060a00160405280600073ffffffffffffffffffffffffffffffffffffffff16815260200160008152602001600081526020016000151581526020016000151581525090565b50805460008255600402906000526020600020908101906150e191906150e4565b50565b5b8082111561515657600080820160006101000a81549073ffffffffffffffffffffffffffffffffffffffff0219169055600182016000905560028201600090556003820160006101000a81549060ff02191690556003820160016101000a81549060ff0219169055506004016150e5565b5090565b6000604051905090565b600080fd5b600080fd5b60007fffffffff0000000000000000000000000000000000000000000000000000000082169050919050565b6151a38161516e565b81146151ae57600080fd5b50565b6000813590506151c08161519a565b92915050565b6000602082840312156151dc576151db615164565b5b60006151ea848285016151b1565b91505092915050565b60008115159050919050565b615208816151f3565b82525050565b600060208201905061522360008301846151ff565b92915050565b600081519050919050565b600082825260208201905092915050565b60005b83811015615263578082015181840152602081019050615248565b60008484015250505050565b6000601f19601f8301169050919050565b600061528b82615229565b6152958185615234565b93506152a5818560208601615245565b6152ae8161526f565b840191505092915050565b600060208201905081810360008301526152d38184615280565b905092915050565b6000819050919050565b6152ee816152db565b81146152f957600080fd5b50565b60008135905061530b816152e5565b92915050565b60006020828403121561532757615326615164565b5b6000615335848285016152fc565b91505092915050565b600073ffffffffffffffffffffffffffffffffffffffff82169050919050565b60006153698261533e565b9050919050565b6153798161535e565b82525050565b60006020820190506153946000830184615370565b92915050565b6153a38161535e565b81146153ae57600080fd5b50565b6000813590506153c08161539a565b92915050565b600080604083850312156153dd576153dc615164565b5b60006153eb858286016153b1565b92505060206153fc858286016152fc565b9150509250929050565b61540f816152db565b82525050565b600060208201905061542a6000830184615406565b92915050565b600081519050919050565b600082825260208201905092915050565b6000819050602082019050919050565b600082825260208201905092915050565b600061547882615229565b615482818561545c565b9350615492818560208601615245565b61549b8161526f565b840191505092915050565b6154af816152db565b82525050565b6154be8161535e565b82525050565b6154cd816151f3565b82525050565b60006101a08301600083015184820360008601526154f1828261546d565b9150506020830151848203602086015261550b828261546d565b91505060408301518482036040860152615525828261546d565b915050606083015161553a60608601826154a6565b50608083015161554d60808601826154b5565b5060a083015161556060a08601826154b5565b5060c083015161557360c08601826154b5565b5060e083015161558660e08601826154a6565b5061010083015161559b6101008601826154c4565b506101208301516155b06101208601826154c4565b506101408301516155c56101408601826154c4565b506101608301516155da6101608601826154a6565b506101808301516155ef6101808601826154a6565b508091505092915050565b600061560683836154d3565b905092915050565b6000602082019050919050565b600061562682615430565b615630818561543b565b9350836020820285016156428561544c565b8060005b8581101561567e578484038952815161565f85826155fa565b945061566a8361560e565b925060208a01995050600181019050615646565b50829750879550505050505092915050565b600060208201905081810360008301526156aa818461561b565b905092915050565b6000806000606084860312156156cb576156ca615164565b5b60006156d9868287016153b1565b93505060206156ea868287016153b1565b92505060406156fb868287016152fc565b9150509250925092565b600080fd5b600080fd5b7f4e487b7100000000000000000000000000000000000000000000000000000000600052604160045260246000fd5b6157478261526f565b810181811067ffffffffffffffff821117156157665761576561570f565b5b80604052505050565b600061577961515a565b9050615785828261573e565b919050565b600067ffffffffffffffff8211156157a5576157a461570f565b5b6157ae8261526f565b9050602081019050919050565b82818337600083830152505050565b60006157dd6157d88461578a565b61576f565b9050828152602081018484840111156157f9576157f861570a565b5b6158048482856157bb565b509392505050565b600082601f83011261582157615820615705565b5b81356158318482602086016157ca565b91505092915050565b600080600080600060a0868803121561585657615855615164565b5b600086013567ffffffffffffffff81111561587457615873615169565b5b6158808882890161580c565b955050602086013567ffffffffffffffff8111156158a1576158a0615169565b5b6158ad8882890161580c565b945050604086013567ffffffffffffffff8111156158ce576158cd615169565b5b6158da8882890161580c565b935050606086013567ffffffffffffffff8111156158fb576158fa615169565b5b6159078882890161580c565b9250506080615918888289016152fc565b9150509295509295909350565b600081519050919050565b600082825260208201905092915050565b6000819050602082019050919050565b60a08201600082015161596760008501826154b5565b50602082015161597a60208501826154a6565b50604082015161598d60408501826154a6565b5060608201516159a060608501826154c4565b5060808201516159b360808501826154c4565b50505050565b60006159c58383615951565b60a08301905092915050565b6000602082019050919050565b60006159e982615925565b6159f38185615930565b93506159fe83615941565b8060005b83811015615a2f578151615a1688826159b9565b9750615a21836159d1565b925050600181019050615a02565b5085935050505092915050565b60006020820190508181036000830152615a5681846159de565b905092915050565b600060208284031215615a7457615a73615164565b5b6000615a82848285016153b1565b91505092915050565b60006101a0830160008301518482036000860152615aa9828261546d565b91505060208301518482036020860152615ac3828261546d565b91505060408301518482036040860152615add828261546d565b9150506060830151615af260608601826154a6565b506080830151615b0560808601826154b5565b5060a0830151615b1860a08601826154b5565b5060c0830151615b2b60c08601826154b5565b5060e0830151615b3e60e08601826154a6565b50610100830151615b536101008601826154c4565b50610120830151615b686101208601826154c4565b50610140830151615b7d6101408601826154c4565b50610160830151615b926101608601826154a6565b50610180830151615ba76101808601826154a6565b508091505092915050565b60006020820190508181036000830152615bcc8184615a8b565b905092915050565b60008060408385031215615beb57615bea615164565b5b6000615bf9858286016152fc565b9250506020615c0a858286016152fc565b9150509250929050565b615c1d816151f3565b8114615c2857600080fd5b50565b600081359050615c3a81615c14565b92915050565b60008060408385031215615c5757615c56615164565b5b6000615c65858286016153b1565b9250506020615c7685828601615c2b565b9150509250929050565b60008060008060008060c08789031215615c9d57615c9c615164565b5b6000615cab89828a016152fc565b9650506020615cbc89828a01615c2b565b9550506040615ccd89828a016152fc565b9450506060615cde89828a016152fc565b9350506080615cef89828a016152fc565b92505060a0615d0089828a016152fc565b9150509295509295509295565b600067ffffffffffffffff821115615d2857615d2761570f565b5b615d318261526f565b9050602081019050919050565b6000615d51615d4c84615d0d565b61576f565b905082815260208101848484011115615d6d57615d6c61570a565b5b615d788482856157bb565b509392505050565b600082601f830112615d9557615d94615705565b5b8135615da5848260208601615d3e565b91505092915050565b60008060008060808587031215615dc857615dc7615164565b5b6000615dd6878288016153b1565b9450506020615de7878288016153b1565b9350506040615df8878288016152fc565b925050606085013567ffffffffffffffff811115615e1957615e18615169565b5b615e2587828801615d80565b91505092959194509250565b60008060408385031215615e4857615e47615164565b5b6000615e56858286016153b1565b9250506020615e67858286016153b1565b9150509250929050565b7f4e487b7100000000000000000000000000000000000000000000000000000000600052602260045260246000fd5b60006002820490506001821680615eb857607f821691505b602082108103615ecb57615eca615e71565b5b50919050565b7f4552433732313a20617070726f76616c20746f2063757272656e74206f776e6560008201527f7200000000000000000000000000000000000000000000000000000000000000602082015250565b6000615f2d602183615234565b9150615f3882615ed1565b604082019050919050565b60006020820190508181036000830152615f5c81615f20565b9050919050565b7f4552433732313a20617070726f76652063616c6c6572206973206e6f7420746f60008201527f6b656e206f776e6572206f7220617070726f76656420666f7220616c6c000000602082015250565b6000615fbf603d83615234565b9150615fca82615f63565b604082019050919050565b60006020820190508181036000830152615fee81615fb2565b9050919050565b7f4e487b7100000000000000000000000000000000000000000000000000000000600052601160045260246000fd5b600061602f826152db565b915061603a836152db565b925082820190508082111561605257616051615ff5565b5b92915050565b6000616063826152db565b91507fffffffffffffffffffffffffffffffffffffffffffffffffffffffffffffffff820361609557616094615ff5565b5b600182019050919050565b7f4e487b7100000000000000000000000000000000000000000000000000000000600052603260045260246000fd5b7f4552433732313a2063616c6c6572206973206e6f7420746f6b656e206f776e6560008201527f72206f7220617070726f76656400000000000000000000000000000000000000602082015250565b600061612b602d83615234565b9150616136826160cf565b604082019050919050565b6000602082019050818103600083015261615a8161611e565b9050919050565b7f53616c6573207072696365206d7573742062652067726561746572207468616e60008201527f2030206574686572732e00000000000000000000000000000000000000000000602082015250565b60006161bd602a83615234565b91506161c882616161565b604082019050919050565b600060208201905081810360008301526161ec816161b0565b9050919050565b7f5072696365206d75737420626520757020746f20746865206c697374696e672060008201527f70726963652e0000000000000000000000000000000000000000000000000000602082015250565b600061624f602683615234565b915061625a826161f3565b604082019050919050565b6000602082019050818103600083015261627e81616242565b9050919050565b7f436f756c64206e6f74206d696e7420746f6b656e000000000000000000000000600082015250565b60006162bb601483615234565b91506162c682616285565b602082019050919050565b600060208201905081810360008301526162ea816162ae565b9050919050565b60008190508160005260206000209050919050565b60006020601f8301049050919050565b600082821b905092915050565b6000600883026163537fffffffffffffffffffffffffffffffffffffffffffffffffffffffffffffffff82616316565b61635d8683616316565b95508019841693508086168417925050509392505050565b6000819050919050565b600061639a616395616390846152db565b616375565b6152db565b9050919050565b6000819050919050565b6163b48361637f565b6163c86163c0826163a1565b848454616323565b825550505050565b600090565b6163dd6163d0565b6163e88184846163ab565b505050565b5b8181101561640c576164016000826163d5565b6001810190506163ee565b5050565b601f82111561645157616422816162f1565b61642b84616306565b8101602085101561643a578190505b61644e61644685616306565b8301826163ed565b50505b505050565b600082821c905092915050565b600061647460001984600802616456565b1980831691505092915050565b600061648d8383616463565b9150826002028217905092915050565b6164a682615229565b67ffffffffffffffff8111156164bf576164be61570f565b5b6164c98254615ea0565b6164d4828285616410565b600060209050601f83116001811461650757600084156164f5578287015190505b6164ff8582616481565b865550616567565b601f198416616515866162f1565b60005b8281101561653d57848901518255600182019150602085019450602081019050616518565b8683101561655a5784890151616556601f891682616463565b8355505b6001600288020188555050505b505050505050565b60006080820190506165846000830187615370565b6165916020830186615370565b61659e6040830185615406565b6165ab60608301846151ff565b95945050505050565b7f4552433732313a20696e76616c696420746f6b656e2049440000000000000000600082015250565b60006165ea601883615234565b91506165f5826165b4565b602082019050919050565b60006020820190508181036000830152616619816165dd565b9050919050565b7f4552433732313a2061646472657373207a65726f206973206e6f74206120766160008201527f6c6964206f776e65720000000000000000000000000000000000000000000000602082015250565b600061667c602983615234565b915061668782616620565b604082019050919050565b600060208201905081810360008301526166ab8161666f565b9050919050565b7f41756374696f6e6564204974656d206e6f7420666f756e640000000000000000600082015250565b60006166e8601883615234565b91506166f3826166b2565b602082019050919050565b60006020820190508181036000830152616717816166db565b9050919050565b7f41756374696f6e207374696c6c204c6976650000000000000000000000000000600082015250565b6000616754601283615234565b915061675f8261671e565b602082019050919050565b6000602082019050818103600083015261678381616747565b9050919050565b7f596f7520617265206e6f74207468652077696e6e657200000000000000000000600082015250565b60006167c0601683615234565b91506167cb8261678a565b602082019050919050565b600060208201905081810360008301526167ef816167b3565b9050919050565b6000616801826152db565b915061680c836152db565b925082820261681a816152db565b9150828204841483151761683157616830615ff5565b5b5092915050565b7f4e487b7100000000000000000000000000000000000000000000000000000000600052601260045260246000fd5b6000616872826152db565b915061687d836152db565b92508261688d5761688c616838565b5b828204905092915050565b60006168a3826152db565b91506168ae836152db565b92508282039050818111156168c6576168c5615ff5565b5b92915050565b60006060820190506168e16000830186615370565b6168ee6020830185615370565b6168fb6040830184615406565b949350505050565b7f556e617574686f72697a656420656e7469747900000000000000000000000000600082015250565b6000616939601383615234565b915061694482616903565b602082019050919050565b600060208201905081810360008301526169688161692c565b9050919050565b7f496e73756666696369656e7420416d6f756e7400000000000000000000000000600082015250565b60006169a5601383615234565b91506169b08261696f565b602082019050919050565b600060208201905081810360008301526169d481616998565b9050919050565b7f41756374696f6e206e6f7420617661696c61626c650000000000000000000000600082015250565b6000616a11601583615234565b9150616a1c826169db565b602082019050919050565b60006020820190508181036000830152616a4081616a04565b9050919050565b7f41756374696f6e206f6e6c7920666f722062696464696e670000000000000000600082015250565b6000616a7d601883615234565b9150616a8882616a47565b602082019050919050565b60006020820190508181036000830152616aac81616a70565b9050919050565b7f57696e6e65722073686f756c6420636c61696d207072697a6520666972737400600082015250565b6000616ae9601f83615234565b9150616af482616ab3565b602082019050919050565b60006020820190508181036000830152616b1881616adc565b9050919050565b7f5072696365206d7573742062652067726561746572207468616e207a65726f00600082015250565b6000616b55601f83615234565b9150616b6082616b1f565b602082019050919050565b60006020820190508181036000830152616b8481616b48565b9050919050565b600081905092915050565b6000616ba182615229565b616bab8185616b8b565b9350616bbb818560208601615245565b80840191505092915050565b6000616bd38285616b96565b9150616bdf8284616b96565b91508190509392505050565b7f41756374696f6e206f6e6c7920666f7220707572636861736500000000000000600082015250565b6000616c21601983615234565b9150616c2c82616beb565b602082019050919050565b60006020820190508181036000830152616c5081616c14565b9050919050565b7f4552433732313a207472616e736665722066726f6d20696e636f72726563742060008201527f6f776e6572000000000000000000000000000000000000000000000000000000602082015250565b6000616cb3602583615234565b9150616cbe82616c57565b604082019050919050565b60006020820190508181036000830152616ce281616ca6565b9050919050565b7f4552433732313a207472616e7366657220746f20746865207a65726f2061646460008201527f7265737300000000000000000000000000000000000000000000000000000000602082015250565b6000616d45602483615234565b9150616d5082616ce9565b604082019050919050565b60006020820190508181036000830152616d7481616d38565b9050919050565b7f5265656e7472616e637947756172643a207265656e7472616e742063616c6c00600082015250565b6000616db1601f83615234565b9150616dbc82616d7b565b602082019050919050565b60006020820190508181036000830152616de081616da4565b9050919050565b600081905092915050565b50565b6000616e02600083616de7565b9150616e0d82616df2565b600082019050919050565b6000616e2382616df5565b9150819050919050565b7f4552433732313a20617070726f766520746f2063616c6c657200000000000000600082015250565b6000616e63601983615234565b9150616e6e82616e2d565b602082019050919050565b60006020820190508181036000830152616e9281616e56565b9050919050565b7f4552433732313a207472616e7366657220746f206e6f6e20455243373231526560008201527f63656976657220696d706c656d656e7465720000000000000000000000000000602082015250565b6000616ef5603283615234565b9150616f0082616e99565b604082019050919050565b60006020820190508181036000830152616f2481616ee8565b9050919050565b7f4552433732313a206d696e7420746f20746865207a65726f2061646472657373600082015250565b6000616f61602083615234565b9150616f6c82616f2b565b602082019050919050565b60006020820190508181036000830152616f9081616f54565b9050919050565b7f4552433732313a20746f6b656e20616c7265616479206d696e74656400000000600082015250565b6000616fcd601c83615234565b9150616fd882616f97565b602082019050919050565b60006020820190508181036000830152616ffc81616fc0565b9050919050565b7f45524337323155524953746f726167653a2055524920736574206f66206e6f6e60008201527f6578697374656e7420746f6b656e000000000000000000000000000000000000602082015250565b600061705f602e83615234565b915061706a82617003565b604082019050919050565b6000602082019050818103600083015261708e81617052565b9050919050565b600081519050919050565b600082825260208201905092915050565b60006170bc82617095565b6170c681856170a0565b93506170d6818560208601615245565b6170df8161526f565b840191505092915050565b60006080820190506170ff6000830187615370565b61710c6020830186615370565b6171196040830185615406565b818103606083015261712b81846170b1565b905095945050505050565b6000815190506171458161519a565b92915050565b60006020828403121561716157617160615164565b5b600061716f84828501617136565b9150509291505056fea264697066735822122069cfe9674646b6aa4492bd93a01320b6da671aea90f1a42d29befca3822f4f3664736f6c63430008130033",
  "immutableReferences": {},
  "source": "// SPDX-License-Identifier: MIT\r\npragma solidity 0.8.19;\r\n\r\nimport \"@openzeppelin/contracts/utils/Counters.sol\";\r\nimport \"@openzeppelin/contracts/token/ERC721/ERC721.sol\";\r\nimport \"@openzeppelin/contracts/token/ERC721/extensions/ERC721URIStorage.sol\";\r\nimport \"@openzeppelin/contracts/security/ReentrancyGuard.sol\";\r\n\r\ncontract Auction is ERC721URIStorage, ReentrancyGuard{\r\n    using Counters for Counters.Counter;\r\n    Counters.Counter private totalItems;\r\n\r\n    address companyAcc;\r\n    uint listingPrice = 0.02 ether;\r\n    uint royalityFee;   \r\n    mapping(uint => AuctionStruct) auctionedItem;\r\n    mapping(uint => bool) auctionedItemExist;\r\n    mapping(string => uint) existingURIs;\r\n    mapping(uint => BidderStruct[]) biddersOf;\r\n\r\n    constructor(uint _royaltyFee) ERC721(\"Auction Tokens\", \"AUT\") {\r\n        companyAcc = msg.sender;\r\n        royalityFee = _royaltyFee;\r\n    }\r\n\r\n    struct BidderStruct {\r\n        address bidder;\r\n        uint price;\r\n        uint timestamp;\r\n        bool refunded;\r\n        bool won;\r\n    }\r\n\r\n    struct AuctionStruct {\r\n        string name;\r\n        string description;\r\n        string image;\r\n        uint tokenId;\r\n        address seller;\r\n        address owner;\r\n        address winner;\r\n        uint price;\r\n        bool sold;\r\n        bool live;\r\n        bool biddable;\r\n        uint bids;\r\n        uint duration;\r\n    }\r\n\r\n    event AuctionItemCreated(\r\n        uint indexed tokenId,\r\n        address seller,\r\n        address owner,\r\n        uint price,\r\n        bool sold\r\n    );\r\n\r\n    function getListingPrice() public view returns (uint) {\r\n        return listingPrice;\r\n    }\r\n\r\n    function setListingPrice(uint _price) public {\r\n        require(msg.sender == companyAcc, \"Unauthorized entity\");\r\n        listingPrice = _price;\r\n    }\r\n\r\n    function changePrice(uint tokenId, uint price) public {\r\n        require(\r\n            auctionedItem[tokenId].owner == msg.sender,\r\n            \"Unauthorized entity\"\r\n        );\r\n        require(\r\n            getTimestamp(0, 0, 0, 0) > auctionedItem[tokenId].duration,\r\n            \"Auction still Live\"\r\n        );\r\n        require(price > 0 ether, \"Price must be greater than zero\");\r\n\r\n        auctionedItem[tokenId].price = price;\r\n    }\r\n\r\n    function mintToken(string memory tokenURI) internal returns (bool) {\r\n        totalItems.increment();\r\n        uint tokenId = totalItems.current();\r\n\r\n        _mint(msg.sender, tokenId);\r\n        _setTokenURI(tokenId, tokenURI);\r\n\r\n        return true;\r\n    }\r\n\r\n    function createAuction(\r\n        string memory name,\r\n        string memory description,\r\n        string memory image,\r\n        string memory tokenURI,\r\n        uint price\r\n    ) public payable nonReentrant {\r\n        require(price > 0 ether, \"Sales price must be greater than 0 ethers.\");\r\n        require(\r\n            msg.value >= listingPrice,\r\n            \"Price must be up to the listing price.\"\r\n        );\r\n        require(mintToken(tokenURI), \"Could not mint token\");\r\n\r\n        uint tokenId = totalItems.current();\r\n\r\n        AuctionStruct memory item;\r\n        item.tokenId = tokenId;\r\n        item.name = name;\r\n        item.description = description;\r\n        item.image = image;\r\n        item.price = price;\r\n        item.duration = getTimestamp(0, 0, 0, 0);\r\n        item.seller = msg.sender;\r\n        item.owner = msg.sender;\r\n\r\n        auctionedItem[tokenId] = item;\r\n        auctionedItemExist[tokenId] = true;\r\n\r\n        payTo(companyAcc, listingPrice);\r\n\r\n        emit AuctionItemCreated(tokenId, msg.sender, address(0), price, false);\r\n    }\r\n\r\n    function offerAuction(\r\n        uint tokenId,\r\n        bool biddable,\r\n        uint sec,\r\n        uint min,\r\n        uint hour,\r\n        uint day\r\n    ) public {\r\n        require(\r\n            auctionedItem[tokenId].owner == msg.sender,\r\n            \"Unauthorized entity\"\r\n        );\r\n        require(\r\n            auctionedItem[tokenId].bids == 0,\r\n            \"Winner should claim prize first\"\r\n        );\r\n\r\n        if (!auctionedItem[tokenId].live) {\r\n            setApprovalForAll(address(this), true);\r\n            IERC721(address(this)).transferFrom(\r\n                msg.sender,\r\n                address(this),\r\n                tokenId\r\n            );\r\n        }\r\n\r\n        auctionedItem[tokenId].bids = 0;\r\n        auctionedItem[tokenId].live = true;\r\n        auctionedItem[tokenId].sold = false;\r\n        auctionedItem[tokenId].biddable = biddable;\r\n        auctionedItem[tokenId].duration = getTimestamp(sec, min, hour, day);\r\n    }\r\n\r\n    function placeBid(uint tokenId) public payable {\r\n        require(\r\n            msg.value >= auctionedItem[tokenId].price,\r\n            \"Insufficient Amount\"\r\n        );\r\n        require(\r\n            auctionedItem[tokenId].duration > getTimestamp(0, 0, 0, 0),\r\n            \"Auction not available\"\r\n        );\r\n        require(auctionedItem[tokenId].biddable, \"Auction only for bidding\");\r\n\r\n        BidderStruct memory bidder;\r\n        bidder.bidder = msg.sender;\r\n        bidder.price = msg.value;\r\n        bidder.timestamp = getTimestamp(0, 0, 0, 0);\r\n\r\n        biddersOf[tokenId].push(bidder);\r\n        auctionedItem[tokenId].bids++;\r\n        auctionedItem[tokenId].price = msg.value;\r\n        auctionedItem[tokenId].winner = msg.sender;\r\n    }\r\n\r\n    function claimPrize(uint tokenId, uint bid) public {\r\n        require(\r\n            getTimestamp(0, 0, 0, 0) > auctionedItem[tokenId].duration,\r\n            \"Auction still Live\"\r\n        );\r\n        require(\r\n            auctionedItem[tokenId].winner == msg.sender,\r\n            \"You are not the winner\"\r\n        );\r\n\r\n        biddersOf[tokenId][bid].won = true;\r\n        uint price = auctionedItem[tokenId].price;\r\n        address seller = auctionedItem[tokenId].seller;\r\n\r\n        auctionedItem[tokenId].winner = address(0);\r\n        auctionedItem[tokenId].live = false;\r\n        auctionedItem[tokenId].sold = true;\r\n        auctionedItem[tokenId].bids = 0;\r\n        auctionedItem[tokenId].duration = getTimestamp(0, 0, 0, 0);\r\n\r\n        uint royality = (price * royalityFee) / 100;\r\n        payTo(auctionedItem[tokenId].owner, (price - royality));\r\n        payTo(seller, royality);\r\n        IERC721(address(this)).transferFrom(address(this), msg.sender, tokenId);\r\n        auctionedItem[tokenId].owner = msg.sender;\r\n\r\n        performRefund(tokenId);\r\n    }\r\n\r\n    function performRefund(uint tokenId) internal {\r\n        for (uint i = 0; i < biddersOf[tokenId].length; i++) {\r\n            if (biddersOf[tokenId][i].bidder != msg.sender) {\r\n                biddersOf[tokenId][i].refunded = true;\r\n                payTo(\r\n                    biddersOf[tokenId][i].bidder,\r\n                    biddersOf[tokenId][i].price\r\n                );\r\n            } else {\r\n                biddersOf[tokenId][i].won = true;\r\n            }\r\n            biddersOf[tokenId][i].timestamp = getTimestamp(0, 0, 0, 0);\r\n        }\r\n\r\n        delete biddersOf[tokenId];\r\n    }\r\n\r\n    function buyAuctionedItem(uint tokenId) public payable nonReentrant {\r\n        require(\r\n            msg.value >= auctionedItem[tokenId].price,\r\n            \"Insufficient Amount\"\r\n        );\r\n        require(\r\n            auctionedItem[tokenId].duration > getTimestamp(0, 0, 0, 0),\r\n            \"Auction not available\"\r\n        );\r\n        require(!auctionedItem[tokenId].biddable, \"Auction only for purchase\");\r\n\r\n        address seller = auctionedItem[tokenId].seller;\r\n        auctionedItem[tokenId].live = false;\r\n        auctionedItem[tokenId].sold = true;\r\n        auctionedItem[tokenId].bids = 0;\r\n        auctionedItem[tokenId].duration = getTimestamp(0, 0, 0, 0);\r\n\r\n        uint royality = (msg.value * royalityFee) / 100;\r\n        payTo(auctionedItem[tokenId].owner, (msg.value - royality));\r\n        payTo(seller, royality);\r\n        IERC721(address(this)).transferFrom(\r\n            address(this),\r\n            msg.sender,\r\n            auctionedItem[tokenId].tokenId\r\n        );\r\n\r\n        auctionedItem[tokenId].owner = msg.sender;\r\n    }\r\n\r\n    function getAuction(uint id) public view returns (AuctionStruct memory) {\r\n        require(auctionedItemExist[id], \"Auctioned Item not found\");\r\n        return auctionedItem[id];\r\n    }\r\n\r\n    function getAllAuctions()\r\n        public\r\n        view\r\n        returns (AuctionStruct[] memory Auctions)\r\n    {\r\n        uint totalItemsCount = totalItems.current();\r\n        Auctions = new AuctionStruct[](totalItemsCount);\r\n\r\n        for (uint i = 0; i < totalItemsCount; i++) {\r\n            Auctions[i] = auctionedItem[i + 1];\r\n        }\r\n    }\r\n\r\n    function getUnsoldAuction()\r\n        public\r\n        view\r\n        returns (AuctionStruct[] memory Auctions)\r\n    {\r\n        uint totalItemsCount = totalItems.current();\r\n        uint totalSpace;\r\n        for (uint i = 0; i < totalItemsCount; i++) {\r\n            if (!auctionedItem[i + 1].sold) {\r\n                totalSpace++;\r\n            }\r\n        }\r\n\r\n        Auctions = new AuctionStruct[](totalSpace);\r\n\r\n        uint index;\r\n        for (uint i = 0; i < totalItemsCount; i++) {\r\n            if (!auctionedItem[i + 1].sold) {\r\n                Auctions[index] = auctionedItem[i + 1];\r\n                index++;\r\n            }\r\n        }\r\n    }\r\n\r\n    function getMyAuctions()\r\n        public\r\n        view\r\n        returns (AuctionStruct[] memory Auctions)\r\n    {\r\n        uint totalItemsCount = totalItems.current();\r\n        uint totalSpace;\r\n        for (uint i = 0; i < totalItemsCount; i++) {\r\n            if (auctionedItem[i + 1].owner == msg.sender) {\r\n                totalSpace++;\r\n            }\r\n        }\r\n\r\n        Auctions = new AuctionStruct[](totalSpace);\r\n\r\n        uint index;\r\n        for (uint i = 0; i < totalItemsCount; i++) {\r\n            if (auctionedItem[i + 1].owner == msg.sender) {\r\n                Auctions[index] = auctionedItem[i + 1];\r\n                index++;\r\n            }\r\n        }\r\n    }\r\n\r\n    function getSoldAuction()\r\n        public\r\n        view\r\n        returns (AuctionStruct[] memory Auctions)\r\n    {\r\n        uint totalItemsCount = totalItems.current();\r\n        uint totalSpace;\r\n        for (uint i = 0; i < totalItemsCount; i++) {\r\n            if (auctionedItem[i + 1].sold) {\r\n                totalSpace++;\r\n            }\r\n        }\r\n\r\n        Auctions = new AuctionStruct[](totalSpace);\r\n\r\n        uint index;\r\n        for (uint i = 0; i < totalItemsCount; i++) {\r\n            if (auctionedItem[i + 1].sold) {\r\n                Auctions[index] = auctionedItem[i + 1];\r\n                index++;\r\n            }\r\n        }\r\n    }\r\n\r\n    function getLiveAuctions()\r\n        public\r\n        view\r\n        returns (AuctionStruct[] memory Auctions)\r\n    {\r\n        uint totalItemsCount = totalItems.current();\r\n        uint totalSpace;\r\n        for (uint i = 0; i < totalItemsCount; i++) {\r\n            if (auctionedItem[i + 1].duration > getTimestamp(0, 0, 0, 0)) {\r\n                totalSpace++;\r\n            }\r\n        }\r\n\r\n        Auctions = new AuctionStruct[](totalSpace);\r\n\r\n        uint index;\r\n        for (uint i = 0; i < totalItemsCount; i++) {\r\n            if (auctionedItem[i + 1].duration > getTimestamp(0, 0, 0, 0)) {\r\n                Auctions[index] = auctionedItem[i + 1];\r\n                index++;\r\n            }\r\n        }\r\n    }\r\n\r\n    function getBidders(uint tokenId)\r\n        public\r\n        view\r\n        returns (BidderStruct[] memory)\r\n    {\r\n        return biddersOf[tokenId];\r\n    }\r\n\r\n    function getTimestamp(\r\n        uint sec,\r\n        uint min,\r\n        uint hour,\r\n        uint day\r\n    ) internal view returns (uint) {\r\n        return\r\n            block.timestamp +\r\n            (1 seconds * sec) +\r\n            (1 minutes * min) +\r\n            (1 hours * hour) +\r\n            (1 days * day);\r\n    }\r\n\r\n    function payTo(address to, uint amount) internal {\r\n        (bool success, ) = payable(to).call{value: amount}(\"\");\r\n        require(success);\r\n    }\r\n\r\n    \r\n}",
  "sourcePath": "D:\\CSUF\\AdvBlockchain\\Auction-DApp\\new-auction\\contracts\\Auction.sol",
  "compiler": {
    "name": "solc",
    "version": "0.8.19+commit.7dd6d404.Emscripten.clang"
  },
  "schemaVersion": "3.4.16",
  "updatedAt": "2025-04-17T17:51:19.414Z",
  "devdoc": {
    "events": {
      "Approval(address,address,uint256)": {
        "details": "Emitted when `owner` enables `approved` to manage the `tokenId` token."
      },
      "ApprovalForAll(address,address,bool)": {
        "details": "Emitted when `owner` enables or disables (`approved`) `operator` to manage all of its assets."
      },
      "BatchMetadataUpdate(uint256,uint256)": {
        "details": "This event emits when the metadata of a range of tokens is changed. So that the third-party platforms such as NFT market could timely update the images and related attributes of the NFTs."
      },
      "MetadataUpdate(uint256)": {
        "details": "This event emits when the metadata of a token is changed. So that the third-party platforms such as NFT market could timely update the images and related attributes of the NFT."
      },
      "Transfer(address,address,uint256)": {
        "details": "Emitted when `tokenId` token is transferred from `from` to `to`."
      }
    },
    "kind": "dev",
    "methods": {
      "approve(address,uint256)": {
        "details": "See {IERC721-approve}."
      },
      "balanceOf(address)": {
        "details": "See {IERC721-balanceOf}."
      },
      "getApproved(uint256)": {
        "details": "See {IERC721-getApproved}."
      },
      "isApprovedForAll(address,address)": {
        "details": "See {IERC721-isApprovedForAll}."
      },
      "name()": {
        "details": "See {IERC721Metadata-name}."
      },
      "ownerOf(uint256)": {
        "details": "See {IERC721-ownerOf}."
      },
      "safeTransferFrom(address,address,uint256)": {
        "details": "See {IERC721-safeTransferFrom}."
      },
      "safeTransferFrom(address,address,uint256,bytes)": {
        "details": "See {IERC721-safeTransferFrom}."
      },
      "setApprovalForAll(address,bool)": {
        "details": "See {IERC721-setApprovalForAll}."
      },
      "supportsInterface(bytes4)": {
        "details": "See {IERC165-supportsInterface}"
      },
      "symbol()": {
        "details": "See {IERC721Metadata-symbol}."
      },
      "tokenURI(uint256)": {
        "details": "See {IERC721Metadata-tokenURI}."
      },
      "transferFrom(address,address,uint256)": {
        "details": "See {IERC721-transferFrom}."
      }
    },
    "version": 1
  },
  "userdoc": {
    "kind": "user",
    "methods": {},
    "version": 1
  }
}