{
  "contractName": "Auction",
  "abi": [
    {
      "inputs": [
        {
          "internalType": "address",
          "name": "_nftContract",
          "type": "address"
        }
      ],
      "stateMutability": "nonpayable",
      "type": "constructor"
    },
    {
      "anonymous": false,
      "inputs": [
        {
          "indexed": false,
          "internalType": "uint256",
          "name": "tokenId",
          "type": "uint256"
        },
        {
          "indexed": false,
          "internalType": "address",
          "name": "winner",
          "type": "address"
        },
        {
          "indexed": false,
          "internalType": "uint256",
          "name": "finalPrice",
          "type": "uint256"
        }
      ],
      "name": "AuctionEnded",
      "type": "event"
    },
    {
      "anonymous": false,
      "inputs": [
        {
          "indexed": true,
          "internalType": "uint256",
          "name": "tokenId",
          "type": "uint256"
        },
        {
          "indexed": false,
          "internalType": "address",
          "name": "seller",
          "type": "address"
        },
        {
          "indexed": false,
          "internalType": "address",
          "name": "owner",
          "type": "address"
        },
        {
          "indexed": false,
          "internalType": "uint256",
          "name": "price",
          "type": "uint256"
        },
        {
          "indexed": false,
          "internalType": "bool",
          "name": "sold",
          "type": "bool"
        }
      ],
      "name": "AuctionItemCreated",
      "type": "event"
    },
    {
      "anonymous": false,
      "inputs": [
        {
          "indexed": false,
          "internalType": "uint256",
          "name": "tokenId",
          "type": "uint256"
        },
        {
          "indexed": false,
          "internalType": "address",
          "name": "bidder",
          "type": "address"
        },
        {
          "indexed": false,
          "internalType": "uint256",
          "name": "amount",
          "type": "uint256"
        }
      ],
      "name": "NewBid",
      "type": "event"
    },
    {
      "inputs": [
        {
          "internalType": "uint256",
          "name": "",
          "type": "uint256"
        }
      ],
      "name": "auctionedItem",
      "outputs": [
        {
          "internalType": "uint256",
          "name": "tokenId",
          "type": "uint256"
        },
        {
          "internalType": "address payable",
          "name": "owner",
          "type": "address"
        },
        {
          "internalType": "address payable",
          "name": "seller",
          "type": "address"
        },
        {
          "internalType": "address",
          "name": "winner",
          "type": "address"
        },
        {
          "internalType": "uint256",
          "name": "price",
          "type": "uint256"
        },
        {
          "internalType": "bool",
          "name": "sold",
          "type": "bool"
        },
        {
          "internalType": "bool",
          "name": "live",
          "type": "bool"
        },
        {
          "internalType": "bool",
          "name": "biddable",
          "type": "bool"
        },
        {
          "internalType": "uint256",
          "name": "bids",
          "type": "uint256"
        },
        {
          "internalType": "uint256",
          "name": "duration",
          "type": "uint256"
        },
        {
          "internalType": "uint256",
          "name": "endTime",
          "type": "uint256"
        },
        {
          "internalType": "uint256",
          "name": "auctionId",
          "type": "uint256"
        }
      ],
      "stateMutability": "view",
      "type": "function"
    },
    {
      "inputs": [
        {
          "internalType": "uint256",
          "name": "",
          "type": "uint256"
        }
      ],
      "name": "auctionedItemExists",
      "outputs": [
        {
          "internalType": "bool",
          "name": "",
          "type": "bool"
        }
      ],
      "stateMutability": "view",
      "type": "function"
    },
    {
      "inputs": [
        {
          "internalType": "uint256",
          "name": "",
          "type": "uint256"
        },
        {
          "internalType": "uint256",
          "name": "",
          "type": "uint256"
        }
      ],
      "name": "biddersOf",
      "outputs": [
        {
          "internalType": "address",
          "name": "bidder",
          "type": "address"
        },
        {
          "internalType": "uint256",
          "name": "bidAmount",
          "type": "uint256"
        },
        {
          "internalType": "uint256",
          "name": "timestamp",
          "type": "uint256"
        },
        {
          "internalType": "bool",
          "name": "refunded",
          "type": "bool"
        },
        {
          "internalType": "bool",
          "name": "won",
          "type": "bool"
        }
      ],
      "stateMutability": "view",
      "type": "function"
    },
    {
      "inputs": [],
      "name": "companyAcc",
      "outputs": [
        {
          "internalType": "address",
          "name": "",
          "type": "address"
        }
      ],
      "stateMutability": "view",
      "type": "function"
    },
    {
      "inputs": [
        {
          "internalType": "string",
          "name": "",
          "type": "string"
        }
      ],
      "name": "existingURIs",
      "outputs": [
        {
          "internalType": "uint256",
          "name": "",
          "type": "uint256"
        }
      ],
      "stateMutability": "view",
      "type": "function"
    },
    {
      "inputs": [],
      "name": "nftContract",
      "outputs": [
        {
          "internalType": "contract NFTAuction",
          "name": "",
          "type": "address"
        }
      ],
      "stateMutability": "view",
      "type": "function"
    },
    {
      "inputs": [],
      "name": "owner",
      "outputs": [
        {
          "internalType": "address payable",
          "name": "",
          "type": "address"
        }
      ],
      "stateMutability": "view",
      "type": "function"
    },
    {
      "inputs": [],
      "name": "royaltyFee",
      "outputs": [
        {
          "internalType": "uint256",
          "name": "",
          "type": "uint256"
        }
      ],
      "stateMutability": "view",
      "type": "function"
    },
    {
      "inputs": [
        {
          "internalType": "uint256",
          "name": "tokenId",
          "type": "uint256"
        },
        {
          "internalType": "uint256",
          "name": "price",
          "type": "uint256"
        },
        {
          "internalType": "uint256",
          "name": "duration",
          "type": "uint256"
        }
      ],
      "name": "createAuction",
      "outputs": [],
      "stateMutability": "nonpayable",
      "type": "function"
    },
    {
      "inputs": [
        {
          "internalType": "uint256",
          "name": "tokenId",
          "type": "uint256"
        }
      ],
      "name": "placeBid",
      "outputs": [],
      "stateMutability": "payable",
      "type": "function"
    },
    {
      "inputs": [
        {
          "internalType": "uint256",
          "name": "tokenId",
          "type": "uint256"
        }
      ],
      "name": "claimPrize",
      "outputs": [],
      "stateMutability": "nonpayable",
      "type": "function"
    },
    {
      "inputs": [
        {
          "internalType": "uint256",
          "name": "tokenId",
          "type": "uint256"
        }
      ],
      "name": "getAuctionStatus",
      "outputs": [
        {
          "internalType": "bool",
          "name": "isLive",
          "type": "bool"
        },
        {
          "internalType": "bool",
          "name": "isSold",
          "type": "bool"
        },
        {
          "internalType": "uint256",
          "name": "currentPrice",
          "type": "uint256"
        },
        {
          "internalType": "address",
          "name": "currentWinner",
          "type": "address"
        },
        {
          "internalType": "uint256",
          "name": "timeRemaining",
          "type": "uint256"
        },
        {
          "internalType": "uint256",
          "name": "totalBids",
          "type": "uint256"
        }
      ],
      "stateMutability": "view",
      "type": "function"
    },
    {
      "inputs": [],
      "name": "getActiveAuctions",
      "outputs": [
        {
          "components": [
            {
              "internalType": "uint256",
              "name": "tokenId",
              "type": "uint256"
            },
            {
              "internalType": "address payable",
              "name": "owner",
              "type": "address"
            },
            {
              "internalType": "address payable",
              "name": "seller",
              "type": "address"
            },
            {
              "internalType": "address",
              "name": "winner",
              "type": "address"
            },
            {
              "internalType": "uint256",
              "name": "price",
              "type": "uint256"
            },
            {
              "internalType": "bool",
              "name": "sold",
              "type": "bool"
            },
            {
              "internalType": "bool",
              "name": "live",
              "type": "bool"
            },
            {
              "internalType": "bool",
              "name": "biddable",
              "type": "bool"
            },
            {
              "internalType": "uint256",
              "name": "bids",
              "type": "uint256"
            },
            {
              "internalType": "uint256",
              "name": "duration",
              "type": "uint256"
            },
            {
              "internalType": "uint256",
              "name": "endTime",
              "type": "uint256"
            },
            {
              "internalType": "uint256",
              "name": "auctionId",
              "type": "uint256"
            }
          ],
          "internalType": "struct Auction.AuctionStruct[]",
          "name": "",
          "type": "tuple[]"
        }
      ],
      "stateMutability": "view",
      "type": "function"
    },
    {
      "inputs": [
        {
          "internalType": "uint256",
          "name": "tokenId",
          "type": "uint256"
        }
      ],
      "name": "getAuctionDetails",
      "outputs": [
        {
          "components": [
            {
              "internalType": "uint256",
              "name": "tokenId",
              "type": "uint256"
            },
            {
              "internalType": "address payable",
              "name": "owner",
              "type": "address"
            },
            {
              "internalType": "address payable",
              "name": "seller",
              "type": "address"
            },
            {
              "internalType": "address",
              "name": "winner",
              "type": "address"
            },
            {
              "internalType": "uint256",
              "name": "price",
              "type": "uint256"
            },
            {
              "internalType": "bool",
              "name": "sold",
              "type": "bool"
            },
            {
              "internalType": "bool",
              "name": "live",
              "type": "bool"
            },
            {
              "internalType": "bool",
              "name": "biddable",
              "type": "bool"
            },
            {
              "internalType": "uint256",
              "name": "bids",
              "type": "uint256"
            },
            {
              "internalType": "uint256",
              "name": "duration",
              "type": "uint256"
            },
            {
              "internalType": "uint256",
              "name": "endTime",
              "type": "uint256"
            },
            {
              "internalType": "uint256",
              "name": "auctionId",
              "type": "uint256"
            }
          ],
          "internalType": "struct Auction.AuctionStruct",
          "name": "",
          "type": "tuple"
        }
      ],
      "stateMutability": "view",
      "type": "function"
    },
    {
      "inputs": [
        {
          "internalType": "uint256",
          "name": "tokenId",
          "type": "uint256"
        }
      ],
      "name": "getBidders",
      "outputs": [
        {
          "components": [
            {
              "internalType": "address",
              "name": "bidder",
              "type": "address"
            },
            {
              "internalType": "uint256",
              "name": "bidAmount",
              "type": "uint256"
            },
            {
              "internalType": "uint256",
              "name": "timestamp",
              "type": "uint256"
            },
            {
              "internalType": "bool",
              "name": "refunded",
              "type": "bool"
            },
            {
              "internalType": "bool",
              "name": "won",
              "type": "bool"
            }
          ],
          "internalType": "struct Auction.BidderStruct[]",
          "name": "",
          "type": "tuple[]"
        }
      ],
      "stateMutability": "view",
      "type": "function"
    },
    {
      "inputs": [],
      "name": "getCompletedAuctions",
      "outputs": [
        {
          "components": [
            {
              "internalType": "uint256",
              "name": "tokenId",
              "type": "uint256"
            },
            {
              "internalType": "address payable",
              "name": "owner",
              "type": "address"
            },
            {
              "internalType": "address payable",
              "name": "seller",
              "type": "address"
            },
            {
              "internalType": "address",
              "name": "winner",
              "type": "address"
            },
            {
              "internalType": "uint256",
              "name": "price",
              "type": "uint256"
            },
            {
              "internalType": "bool",
              "name": "sold",
              "type": "bool"
            },
            {
              "internalType": "bool",
              "name": "live",
              "type": "bool"
            },
            {
              "internalType": "bool",
              "name": "biddable",
              "type": "bool"
            },
            {
              "internalType": "uint256",
              "name": "bids",
              "type": "uint256"
            },
            {
              "internalType": "uint256",
              "name": "duration",
              "type": "uint256"
            },
            {
              "internalType": "uint256",
              "name": "endTime",
              "type": "uint256"
            },
            {
              "internalType": "uint256",
              "name": "auctionId",
              "type": "uint256"
            }
          ],
          "internalType": "struct Auction.AuctionStruct[]",
          "name": "",
          "type": "tuple[]"
        }
      ],
      "stateMutability": "view",
      "type": "function"
    },
    {
      "inputs": [
        {
          "internalType": "uint256",
          "name": "tokenId",
          "type": "uint256"
        }
      ],
      "name": "reclaimAuction",
      "outputs": [],
      "stateMutability": "nonpayable",
      "type": "function"
    }
  ],
  "bytecode": "0x60806040523480156200001157600080fd5b506040516200510438038062005104833981810160405281019062000037919062000132565b600160008190555080600460006101000a81548173ffffffffffffffffffffffffffffffffffffffff021916908373ffffffffffffffffffffffffffffffffffffffff16021790555033600160006101000a81548173ffffffffffffffffffffffffffffffffffffffff021916908373ffffffffffffffffffffffffffffffffffffffff1602179055505062000164565b600080fd5b600073ffffffffffffffffffffffffffffffffffffffff82169050919050565b6000620000fa82620000cd565b9050919050565b6200010c81620000ed565b81146200011857600080fd5b50565b6000815190506200012c8162000101565b92915050565b6000602082840312156200014b576200014a620000c8565b5b60006200015b848285016200011b565b91505092915050565b614f9080620001746000396000f3fe6080604052600436106100fe5760003560e01c8063cda4beef11610095578063d709815411610064578063d70981541461033a578063e154e0d014610363578063ea6bc91b146103a0578063f20e5e35146103e1578063f37971df1461041e576100fe565b8063cda4beef14610290578063cf44b5d5146102b9578063d36acc39146102e4578063d56d229d1461030f576100fe565b80638da5cb5b116100d15780638da5cb5b146101f35780639979ef451461021e578063b8997a971461023a578063cb7b43ef14610265576100fe565b806308c41169146101035780631c4b184f1461014b5780634fa7b507146101745780637765c52c146101b1575b600080fd5b34801561010f57600080fd5b5061012a600480360381019061012591906135c3565b61045b565b6040516101429c9b9a9998979695949392919061367c565b60405180910390f35b34801561015757600080fd5b50610172600480360381019061016d91906135c3565b610542565b005b34801561018057600080fd5b5061019b600480360381019061019691906135c3565b610b71565b6040516101a8919061387a565b60405180910390f35b3480156101bd57600080fd5b506101d860048036038101906101d391906135c3565b610ce3565b6040516101ea9695949392919061389c565b60405180910390f35b3480156101ff57600080fd5b50610208610df0565b60405161021591906138fd565b60405180910390f35b610238600480360381019061023391906135c3565b610e16565b005b34801561024657600080fd5b5061024f6115c2565b60405161025c9190613918565b60405180910390f35b34801561027157600080fd5b5061027a6115c8565b6040516102879190613ae8565b60405180910390f35b34801561029c57600080fd5b506102b760048036038101906102b29190613b0a565b611956565b005b3480156102c557600080fd5b506102ce612135565b6040516102db9190613ae8565b60405180910390f35b3480156102f057600080fd5b506102f96124c3565b6040516103069190613b5d565b60405180910390f35b34801561031b57600080fd5b506103246124e9565b6040516103319190613bd7565b60405180910390f35b34801561034657600080fd5b50610361600480360381019061035c91906135c3565b61250f565b005b34801561036f57600080fd5b5061038a600480360381019061038591906135c3565b61306b565b6040516103979190613bf2565b60405180910390f35b3480156103ac57600080fd5b506103c760048036038101906103c29190613c0d565b61308b565b6040516103d8959493929190613c4d565b60405180910390f35b3480156103ed57600080fd5b50610408600480360381019061040391906135c3565b613118565b6040516104159190613d96565b60405180910390f35b34801561042a57600080fd5b5061044560048036038101906104409190613ef8565b613335565b6040516104529190613918565b60405180910390f35b60066020528060005260406000206000915090508060000154908060010160009054906101000a900473ffffffffffffffffffffffffffffffffffffffff16908060020160009054906101000a900473ffffffffffffffffffffffffffffffffffffffff16908060030160009054906101000a900473ffffffffffffffffffffffffffffffffffffffff16908060040154908060050160009054906101000a900460ff16908060050160019054906101000a900460ff16908060050160029054906101000a900460ff1690806006015490806007015490806008015490806009015490508c565b61054a613363565b6007600082815260200190815260200160002060009054906101000a900460ff166105aa576040517f08c379a00000000000000000000000000000000000000000000000000000000081526004016105a190613f9e565b60405180910390fd5b6006600082815260200190815260200160002060050160019054906101000a900460ff1661060d576040517f08c379a000000000000000000000000000000000000000000000000000000000815260040161060490614030565b60405180910390fd5b6006600082815260200190815260200160002060020160009054906101000a900473ffffffffffffffffffffffffffffffffffffffff1673ffffffffffffffffffffffffffffffffffffffff163373ffffffffffffffffffffffffffffffffffffffff16146106b1576040517f08c379a00000000000000000000000000000000000000000000000000000000081526004016106a8906140c2565b60405180910390fd5b600073ffffffffffffffffffffffffffffffffffffffff166006600083815260200190815260200160002060030160009054906101000a900473ffffffffffffffffffffffffffffffffffffffff1673ffffffffffffffffffffffffffffffffffffffff1614610756576040517f08c379a000000000000000000000000000000000000000000000000000000000815260040161074d90614154565b60405180910390fd5b60006006600083815260200190815260200160002060050160016101000a81548160ff02191690831515021790555060006006600083815260200190815260200160002060050160006101000a81548160ff02191690831515021790555060006006600083815260200190815260200160002060050160026101000a81548160ff0219169083151502179055506107ec816133b2565b6000805b600b8054905081101561083e5782600b828154811061081257610811614174565b5b90600052602060002001540361082b576001915061083e565b8080610836906141d2565b9150506107f0565b508061086e57600b8290806001815401808255809150506001900390600052602060002001600090919091909150555b600460009054906101000a900473ffffffffffffffffffffffffffffffffffffffff1673ffffffffffffffffffffffffffffffffffffffff166323b872dd3033856040518463ffffffff1660e01b81526004016108cd9392919061421a565b600060405180830381600087803b1580156108e757600080fd5b505af19250505080156108f8575060015b610a465760016006600084815260200190815260200160002060050160016101000a81548160ff02191690831515021790555060006006600084815260200190815260200160002060050160006101000a81548160ff02191690831515021790555060016006600084815260200190815260200160002060050160026101000a81548160ff0219169083151502179055506000805b600a805490508110156109db5783600a82815481106109af576109ae614174565b5b9060005260206000200154036109c857600191506109db565b80806109d3906141d2565b91505061098d565b5080610a0b57600a8390806001815401808255809150506001900390600052602060002001600090919091909150555b6040517f08c379a0000000000000000000000000000000000000000000000000000000008152600401610a3d9061429d565b60405180910390fd5b600460009054906101000a900473ffffffffffffffffffffffffffffffffffffffff1673ffffffffffffffffffffffffffffffffffffffff16637192711f83336040518363ffffffff1660e01b8152600401610aa39291906142bd565b600060405180830381600087803b158015610abd57600080fd5b505af1158015610ad1573d6000803e3d6000fd5b50505050600460009054906101000a900473ffffffffffffffffffffffffffffffffffffffff1673ffffffffffffffffffffffffffffffffffffffff1663dc4dc5078360016040518363ffffffff1660e01b8152600401610b339291906142e6565b600060405180830381600087803b158015610b4d57600080fd5b505af1158015610b61573d6000803e3d6000fd5b5050505050610b6e61347d565b50565b60606007600083815260200190815260200160002060009054906101000a900460ff16610bd3576040517f08c379a0000000000000000000000000000000000000000000000000000000008152600401610bca90613f9e565b60405180910390fd5b60096000838152602001908152602001600020805480602002602001604051908101604052809291908181526020016000905b82821015610cd857838290600052602060002090600402016040518060a00160405290816000820160009054906101000a900473ffffffffffffffffffffffffffffffffffffffff1673ffffffffffffffffffffffffffffffffffffffff1673ffffffffffffffffffffffffffffffffffffffff16815260200160018201548152602001600282015481526020016003820160009054906101000a900460ff161515151581526020016003820160019054906101000a900460ff16151515158152505081526020019060010190610c06565b505050509050919050565b6000806000806000806007600088815260200190815260200160002060009054906101000a900460ff16610d4c576040517f08c379a0000000000000000000000000000000000000000000000000000000008152600401610d4390613f9e565b60405180910390fd5b60006006600089815260200190815260200160002090508060050160019054906101000a900460ff1696508060050160009054906101000a900460ff169550806004015494508060030160009054906101000a900473ffffffffffffffffffffffffffffffffffffffff1693508060080154421015610dda57428160080154610dd5919061430f565b610ddd565b60005b9250806006015491505091939550919395565b600160009054906101000a900473ffffffffffffffffffffffffffffffffffffffff1681565b610e1e613363565b6007600082815260200190815260200160002060009054906101000a900460ff16610e7e576040517f08c379a0000000000000000000000000000000000000000000000000000000008152600401610e7590613f9e565b60405180910390fd5b6006600082815260200190815260200160002060050160019054906101000a900460ff16610ee1576040517f08c379a0000000000000000000000000000000000000000000000000000000008152600401610ed89061438f565b60405180910390fd5b6006600082815260200190815260200160002060050160029054906101000a900460ff16610f44576040517f08c379a0000000000000000000000000000000000000000000000000000000008152600401610f3b90614421565b60405180910390fd5b60066000828152602001908152602001600020600801544210610f9c576040517f08c379a0000000000000000000000000000000000000000000000000000000008152600401610f939061448d565b60405180910390fd5b6006600082815260200190815260200160002060020160009054906101000a900473ffffffffffffffffffffffffffffffffffffffff1673ffffffffffffffffffffffffffffffffffffffff163373ffffffffffffffffffffffffffffffffffffffff1603611040576040517f08c379a00000000000000000000000000000000000000000000000000000000081526004016110379061451f565b60405180910390fd5b60066000828152602001908152602001600020600401543411611098576040517f08c379a000000000000000000000000000000000000000000000000000000000815260040161108f906145b1565b60405180910390fd5b60006006600083815260200190815260200160002060030160009054906101000a900473ffffffffffffffffffffffffffffffffffffffff1690506000600660008481526020019081526020016000206004015490506110f6613487565b33816000019073ffffffffffffffffffffffffffffffffffffffff16908173ffffffffffffffffffffffffffffffffffffffff16815250503481602001818152505042816040018181525050600081606001901515908115158152505060008160800190151590811515815250506009600085815260200190815260200160002081908060018154018082558091505060019003906000526020600020906004020160009091909190915060008201518160000160006101000a81548173ffffffffffffffffffffffffffffffffffffffff021916908373ffffffffffffffffffffffffffffffffffffffff160217905550602082015181600101556040820151816002015560608201518160030160006101000a81548160ff02191690831515021790555060808201518160030160016101000a81548160ff0219169083151502179055505050600160066000868152602001908152602001600020600601600082825461126591906145d1565b92505081905550346006600086815260200190815260200160002060040181905550336006600086815260200190815260200160002060030160006101000a81548173ffffffffffffffffffffffffffffffffffffffff021916908373ffffffffffffffffffffffffffffffffffffffff160217905550600073ffffffffffffffffffffffffffffffffffffffff168373ffffffffffffffffffffffffffffffffffffffff16141580156113195750600082115b156115795760005b60016009600087815260200190815260200160002080549050611344919061430f565b8110156114ca578373ffffffffffffffffffffffffffffffffffffffff1660096000878152602001908152602001600020828154811061138757611386614174565b5b906000526020600020906004020160000160009054906101000a900473ffffffffffffffffffffffffffffffffffffffff1673ffffffffffffffffffffffffffffffffffffffff161480156114115750826009600087815260200190815260200160002082815481106113fd576113fc614174565b5b906000526020600020906004020160010154145b801561145e575060096000868152602001908152602001600020818154811061143d5761143c614174565b5b906000526020600020906004020160030160009054906101000a900460ff16155b156114b757600160096000878152602001908152602001600020828154811061148a57611489614174565b5b906000526020600020906004020160030160006101000a81548160ff0219169083151502179055506114ca565b80806114c2906141d2565b915050611321565b5060008373ffffffffffffffffffffffffffffffffffffffff16836040516114f190614636565b60006040518083038185875af1925050503d806000811461152e576040519150601f19603f3d011682016040523d82523d6000602084013e611533565b606091505b5050905080611577576040517f08c379a000000000000000000000000000000000000000000000000000000000815260040161156e90614697565b60405180910390fd5b505b7f558a0d5d5468d74b0db24c74eb348b42271c2ebb4c9e953ced38aaed95fa43618433346040516115ac939291906146b7565b60405180910390a15050506115bf61347d565b50565b60035481565b60606000805b600b80549050811015611673576000600b82815481106115f1576115f0614174565b5b906000526020600020015490506007600082815260200190815260200160002060009054906101000a900460ff16801561164b57506006600082815260200190815260200160002060050160009054906101000a900460ff165b1561165f57828061165b906141d2565b9350505b50808061166b906141d2565b9150506115ce565b5060008167ffffffffffffffff8111156116905761168f613dcd565b5b6040519080825280602002602001820160405280156116c957816020015b6116b66134d0565b8152602001906001900390816116ae5790505b5090506000805b600b80549050811080156116e357508382105b1561194c576000600b82815481106116fe576116fd614174565b5b906000526020600020015490506007600082815260200190815260200160002060009054906101000a900460ff16801561175857506006600082815260200190815260200160002060050160009054906101000a900460ff165b15611938576006600082815260200190815260200160002060405180610180016040529081600082015481526020016001820160009054906101000a900473ffffffffffffffffffffffffffffffffffffffff1673ffffffffffffffffffffffffffffffffffffffff1673ffffffffffffffffffffffffffffffffffffffff1681526020016002820160009054906101000a900473ffffffffffffffffffffffffffffffffffffffff1673ffffffffffffffffffffffffffffffffffffffff1673ffffffffffffffffffffffffffffffffffffffff1681526020016003820160009054906101000a900473ffffffffffffffffffffffffffffffffffffffff1673ffffffffffffffffffffffffffffffffffffffff1673ffffffffffffffffffffffffffffffffffffffff168152602001600482015481526020016005820160009054906101000a900460ff161515151581526020016005820160019054906101000a900460ff161515151581526020016005820160029054906101000a900460ff1615151515815260200160068201548152602001600782015481526020016008820154815260200160098201548152505084848151811061191e5761191d614174565b5b60200260200101819052508280611934906141d2565b9350505b508080611944906141d2565b9150506116d0565b5081935050505090565b61195e613363565b6000600460009054906101000a900473ffffffffffffffffffffffffffffffffffffffff1673ffffffffffffffffffffffffffffffffffffffff16638e264590856040518263ffffffff1660e01b81526004016119bb9190613918565b60a060405180830381865afa1580156119d8573d6000803e3d6000fd5b505050506040513d601f19601f820116820180604052508101906119fc91906147ec565b90503373ffffffffffffffffffffffffffffffffffffffff16816040015173ffffffffffffffffffffffffffffffffffffffff161480611a895750600460009054906101000a900473ffffffffffffffffffffffffffffffffffffffff1673ffffffffffffffffffffffffffffffffffffffff163373ffffffffffffffffffffffffffffffffffffffff16145b80611b5a57503073ffffffffffffffffffffffffffffffffffffffff16600460009054906101000a900473ffffffffffffffffffffffffffffffffffffffff1673ffffffffffffffffffffffffffffffffffffffff1663081812fc866040518263ffffffff1660e01b8152600401611b019190613918565b602060405180830381865afa158015611b1e573d6000803e3d6000fd5b505050506040513d601f19601f82011682018060405250810190611b429190614845565b73ffffffffffffffffffffffffffffffffffffffff16145b611b99576040517f08c379a0000000000000000000000000000000000000000000000000000000008152600401611b90906148e4565b60405180910390fd5b60008311611bdc576040517f08c379a0000000000000000000000000000000000000000000000000000000008152600401611bd390614950565b60405180910390fd5b60008211611c1f576040517f08c379a0000000000000000000000000000000000000000000000000000000008152600401611c16906149e2565b60405180910390fd5b6007600085815260200190815260200160002060009054906101000a900460ff161580611c6d57506006600085815260200190815260200160002060050160019054906101000a900460ff16155b611cac576040517f08c379a0000000000000000000000000000000000000000000000000000000008152600401611ca390614a74565b60405180910390fd5b611cb46134d0565b848160000181815250508160400151816040019073ffffffffffffffffffffffffffffffffffffffff16908173ffffffffffffffffffffffffffffffffffffffff1681525050600460009054906101000a900473ffffffffffffffffffffffffffffffffffffffff16816020019073ffffffffffffffffffffffffffffffffffffffff16908173ffffffffffffffffffffffffffffffffffffffff16815250508381608001818152505082816101200181815250508242611d7591906145d1565b81610140018181525050848161016001818152505080600660008781526020019081526020016000206000820151816000015560208201518160010160006101000a81548173ffffffffffffffffffffffffffffffffffffffff021916908373ffffffffffffffffffffffffffffffffffffffff16021790555060408201518160020160006101000a81548173ffffffffffffffffffffffffffffffffffffffff021916908373ffffffffffffffffffffffffffffffffffffffff16021790555060608201518160030160006101000a81548173ffffffffffffffffffffffffffffffffffffffff021916908373ffffffffffffffffffffffffffffffffffffffff1602179055506080820151816004015560a08201518160050160006101000a81548160ff02191690831515021790555060c08201518160050160016101000a81548160ff02191690831515021790555060e08201518160050160026101000a81548160ff021916908315150217905550610100820151816006015561012082015181600701556101408201518160080155610160820151816009015590505060016007600087815260200190815260200160002060006101000a81548160ff0219169083151502179055506006600086815260200190815260200160002060050160019054906101000a900460ff166120c157600460009054906101000a900473ffffffffffffffffffffffffffffffffffffffff1673ffffffffffffffffffffffffffffffffffffffff166323b872dd600460009054906101000a900473ffffffffffffffffffffffffffffffffffffffff1630886040518463ffffffff1660e01b8152600401611feb9392919061421a565b600060405180830381600087803b15801561200557600080fd5b505af1158015612019573d6000803e3d6000fd5b505050506000600660008781526020019081526020016000206006018190555060016006600087815260200190815260200160002060050160016101000a81548160ff02191690831515021790555060016006600087815260200190815260200160002060050160026101000a81548160ff021916908315150217905550600a8590806001815401808255809150506001900390600052602060002001600090919091909150555b847fa693a8f68fe4df789541ddd1b84d32ccaea90adddcc88406b4bbbf6466328d3c8360400151600460009054906101000a900473ffffffffffffffffffffffffffffffffffffffff1687600060405161211e9493929190614ab5565b60405180910390a2505061213061347d565b505050565b60606000805b600a805490508110156121e0576000600a828154811061215e5761215d614174565b5b906000526020600020015490506007600082815260200190815260200160002060009054906101000a900460ff1680156121b857506006600082815260200190815260200160002060050160019054906101000a900460ff165b156121cc5782806121c8906141d2565b9350505b5080806121d8906141d2565b91505061213b565b5060008167ffffffffffffffff8111156121fd576121fc613dcd565b5b60405190808252806020026020018201604052801561223657816020015b6122236134d0565b81526020019060019003908161221b5790505b5090506000805b600a805490508110801561225057508382105b156124b9576000600a828154811061226b5761226a614174565b5b906000526020600020015490506007600082815260200190815260200160002060009054906101000a900460ff1680156122c557506006600082815260200190815260200160002060050160019054906101000a900460ff165b156124a5576006600082815260200190815260200160002060405180610180016040529081600082015481526020016001820160009054906101000a900473ffffffffffffffffffffffffffffffffffffffff1673ffffffffffffffffffffffffffffffffffffffff1673ffffffffffffffffffffffffffffffffffffffff1681526020016002820160009054906101000a900473ffffffffffffffffffffffffffffffffffffffff1673ffffffffffffffffffffffffffffffffffffffff1673ffffffffffffffffffffffffffffffffffffffff1681526020016003820160009054906101000a900473ffffffffffffffffffffffffffffffffffffffff1673ffffffffffffffffffffffffffffffffffffffff1673ffffffffffffffffffffffffffffffffffffffff168152602001600482015481526020016005820160009054906101000a900460ff161515151581526020016005820160019054906101000a900460ff161515151581526020016005820160029054906101000a900460ff1615151515815260200160068201548152602001600782015481526020016008820154815260200160098201548152505084848151811061248b5761248a614174565b5b602002602001018190525082806124a1906141d2565b9350505b5080806124b1906141d2565b91505061223d565b5081935050505090565b600260009054906101000a900473ffffffffffffffffffffffffffffffffffffffff1681565b600460009054906101000a900473ffffffffffffffffffffffffffffffffffffffff1681565b612517613363565b6007600082815260200190815260200160002060009054906101000a900460ff16612577576040517f08c379a000000000000000000000000000000000000000000000000000000000815260040161256e90613f9e565b60405180910390fd5b6006600082815260200190815260200160002060050160019054906101000a900460ff166125da576040517f08c379a00000000000000000000000000000000000000000000000000000000081526004016125d190614030565b60405180910390fd5b3373ffffffffffffffffffffffffffffffffffffffff166006600083815260200190815260200160002060030160009054906101000a900473ffffffffffffffffffffffffffffffffffffffff1673ffffffffffffffffffffffffffffffffffffffff161461267e576040517f08c379a000000000000000000000000000000000000000000000000000000000815260040161267590614b6c565b60405180910390fd5b600073ffffffffffffffffffffffffffffffffffffffff166006600083815260200190815260200160002060030160009054906101000a900473ffffffffffffffffffffffffffffffffffffffff1673ffffffffffffffffffffffffffffffffffffffff1603612723576040517f08c379a000000000000000000000000000000000000000000000000000000000815260040161271a90614bd8565b60405180910390fd5b60006006600083815260200190815260200160002060040154905060006006600084815260200190815260200160002060020160009054906101000a900473ffffffffffffffffffffffffffffffffffffffff16905060006006600085815260200190815260200160002060010160009054906101000a900473ffffffffffffffffffffffffffffffffffffffff16905060006006600086815260200190815260200160002060050160016101000a81548160ff02191690831515021790555060016006600086815260200190815260200160002060050160006101000a81548160ff02191690831515021790555060006006600086815260200190815260200160002060050160026101000a81548160ff02191690831515021790555061284a846133b2565b600b84908060018154018082558091505060019003906000526020600020016000909190919091505560005b60096000868152602001908152602001600020805490508110156129c6573373ffffffffffffffffffffffffffffffffffffffff166009600087815260200190815260200160002082815481106128d0576128cf614174565b5b906000526020600020906004020160000160009054906101000a900473ffffffffffffffffffffffffffffffffffffffff1673ffffffffffffffffffffffffffffffffffffffff1614801561295a57508360096000878152602001908152602001600020828154811061294657612945614174565b5b906000526020600020906004020160010154145b156129b357600160096000878152602001908152602001600020828154811061298657612985614174565b5b906000526020600020906004020160030160016101000a81548160ff0219169083151502179055506129c6565b80806129be906141d2565b915050612876565b5060006064600354856129d99190614bf8565b6129e39190614c69565b9050600081856129f3919061430f565b9050600460009054906101000a900473ffffffffffffffffffffffffffffffffffffffff1673ffffffffffffffffffffffffffffffffffffffff16636352211e876040518263ffffffff1660e01b8152600401612a509190613918565b602060405180830381865afa925050508015612a8a57506040513d601f19601f82011682018060405250810190612a879190614845565b60015b612ac9576040517f08c379a0000000000000000000000000000000000000000000000000000000008152600401612ac090614d0c565b60405180910390fd5b3073ffffffffffffffffffffffffffffffffffffffff168173ffffffffffffffffffffffffffffffffffffffff1614612b37576040517f08c379a0000000000000000000000000000000000000000000000000000000008152600401612b2e90614d9e565b60405180910390fd5b50600460009054906101000a900473ffffffffffffffffffffffffffffffffffffffff1673ffffffffffffffffffffffffffffffffffffffff166323b872dd3033896040518463ffffffff1660e01b8152600401612b979392919061421a565b600060405180830381600087803b158015612bb157600080fd5b505af1925050508015612bc2575060015b612d105760016006600088815260200190815260200160002060050160016101000a81548160ff02191690831515021790555060006006600088815260200190815260200160002060050160006101000a81548160ff02191690831515021790555060016006600088815260200190815260200160002060050160026101000a81548160ff0219169083151502179055506000805b600a80549050811015612ca55787600a8281548110612c7957612c78614174565b5b906000526020600020015403612c925760019150612ca5565b8080612c9d906141d2565b915050612c57565b5080612cd557600a8790806001815401808255809150506001900390600052602060002001600090919091909150555b6040517f08c379a0000000000000000000000000000000000000000000000000000000008152600401612d079061429d565b60405180910390fd5b336006600088815260200190815260200160002060010160006101000a81548173ffffffffffffffffffffffffffffffffffffffff021916908373ffffffffffffffffffffffffffffffffffffffff160217905550600460009054906101000a900473ffffffffffffffffffffffffffffffffffffffff1673ffffffffffffffffffffffffffffffffffffffff16637192711f87336040518363ffffffff1660e01b8152600401612dc29291906142bd565b600060405180830381600087803b158015612ddc57600080fd5b505af1158015612df0573d6000803e3d6000fd5b50505050600460009054906101000a900473ffffffffffffffffffffffffffffffffffffffff1673ffffffffffffffffffffffffffffffffffffffff166382367b2d87876040518363ffffffff1660e01b8152600401612e51929190614dbe565b600060405180830381600087803b158015612e6b57600080fd5b505af1158015612e7f573d6000803e3d6000fd5b5050505060008473ffffffffffffffffffffffffffffffffffffffff1682604051612ea990614636565b60006040518083038185875af1925050503d8060008114612ee6576040519150601f19603f3d011682016040523d82523d6000602084013e612eeb565b606091505b5050905080612f2f576040517f08c379a0000000000000000000000000000000000000000000000000000000008152600401612f2690614e33565b60405180910390fd5b600083118015612f6c5750600073ffffffffffffffffffffffffffffffffffffffff168473ffffffffffffffffffffffffffffffffffffffff1614155b1561301f5760008473ffffffffffffffffffffffffffffffffffffffff1684604051612f9790614636565b60006040518083038185875af1925050503d8060008114612fd4576040519150601f19603f3d011682016040523d82523d6000602084013e612fd9565b606091505b505090508061301d576040517f08c379a000000000000000000000000000000000000000000000000000000000815260040161301490614e9f565b60405180910390fd5b505b7fd2aa34a4fdbbc6dff6a3e56f46e0f3ae2a31d7785ff3487aa5c95c642acea501873388604051613052939291906146b7565b60405180910390a150505050505061306861347d565b50565b60076020528060005260406000206000915054906101000a900460ff1681565b600960205281600052604060002081815481106130a757600080fd5b9060005260206000209060040201600091509150508060000160009054906101000a900473ffffffffffffffffffffffffffffffffffffffff16908060010154908060020154908060030160009054906101000a900460ff16908060030160019054906101000a900460ff16905085565b6131206134d0565b6007600083815260200190815260200160002060009054906101000a900460ff16613180576040517f08c379a000000000000000000000000000000000000000000000000000000000815260040161317790613f9e565b60405180910390fd5b6006600083815260200190815260200160002060405180610180016040529081600082015481526020016001820160009054906101000a900473ffffffffffffffffffffffffffffffffffffffff1673ffffffffffffffffffffffffffffffffffffffff1673ffffffffffffffffffffffffffffffffffffffff1681526020016002820160009054906101000a900473ffffffffffffffffffffffffffffffffffffffff1673ffffffffffffffffffffffffffffffffffffffff1673ffffffffffffffffffffffffffffffffffffffff1681526020016003820160009054906101000a900473ffffffffffffffffffffffffffffffffffffffff1673ffffffffffffffffffffffffffffffffffffffff1673ffffffffffffffffffffffffffffffffffffffff168152602001600482015481526020016005820160009054906101000a900460ff161515151581526020016005820160019054906101000a900460ff161515151581526020016005820160029054906101000a900460ff161515151581526020016006820154815260200160078201548152602001600882015481526020016009820154815250509050919050565b6008818051602081018201805184825260208301602085012081835280955050505050506000915090505481565b6002600054036133a8576040517f08c379a000000000000000000000000000000000000000000000000000000000815260040161339f90614f0b565b60405180910390fd5b6002600081905550565b60005b600a805490508110156134795781600a82815481106133d7576133d6614174565b5b90600052602060002001540361346657600a6001600a805490506133fb919061430f565b8154811061340c5761340b614174565b5b9060005260206000200154600a828154811061342b5761342a614174565b5b9060005260206000200181905550600a80548061344b5761344a614f2b565b5b60019003818190600052602060002001600090559055613479565b8080613471906141d2565b9150506133b5565b5050565b6001600081905550565b6040518060a00160405280600073ffffffffffffffffffffffffffffffffffffffff16815260200160008152602001600081526020016000151581526020016000151581525090565b60405180610180016040528060008152602001600073ffffffffffffffffffffffffffffffffffffffff168152602001600073ffffffffffffffffffffffffffffffffffffffff168152602001600073ffffffffffffffffffffffffffffffffffffffff16815260200160008152602001600015158152602001600015158152602001600015158152602001600081526020016000815260200160008152602001600081525090565b6000604051905090565b600080fd5b600080fd5b6000819050919050565b6135a08161358d565b81146135ab57600080fd5b50565b6000813590506135bd81613597565b92915050565b6000602082840312156135d9576135d8613583565b5b60006135e7848285016135ae565b91505092915050565b6135f98161358d565b82525050565b600073ffffffffffffffffffffffffffffffffffffffff82169050919050565b600061362a826135ff565b9050919050565b61363a8161361f565b82525050565b600061364b826135ff565b9050919050565b61365b81613640565b82525050565b60008115159050919050565b61367681613661565b82525050565b600061018082019050613692600083018f6135f0565b61369f602083018e613631565b6136ac604083018d613631565b6136b9606083018c613652565b6136c6608083018b6135f0565b6136d360a083018a61366d565b6136e060c083018961366d565b6136ed60e083018861366d565b6136fb6101008301876135f0565b6137096101208301866135f0565b6137176101408301856135f0565b6137256101608301846135f0565b9d9c50505050505050505050505050565b600081519050919050565b600082825260208201905092915050565b6000819050602082019050919050565b61376b81613640565b82525050565b61377a8161358d565b82525050565b61378981613661565b82525050565b60a0820160008201516137a56000850182613762565b5060208201516137b86020850182613771565b5060408201516137cb6040850182613771565b5060608201516137de6060850182613780565b5060808201516137f16080850182613780565b50505050565b6000613803838361378f565b60a08301905092915050565b6000602082019050919050565b600061382782613736565b6138318185613741565b935061383c83613752565b8060005b8381101561386d57815161385488826137f7565b975061385f8361380f565b925050600181019050613840565b5085935050505092915050565b60006020820190508181036000830152613894818461381c565b905092915050565b600060c0820190506138b1600083018961366d565b6138be602083018861366d565b6138cb60408301876135f0565b6138d86060830186613652565b6138e560808301856135f0565b6138f260a08301846135f0565b979650505050505050565b60006020820190506139126000830184613631565b92915050565b600060208201905061392d60008301846135f0565b92915050565b600081519050919050565b600082825260208201905092915050565b6000819050602082019050919050565b6139688161361f565b82525050565b610180820160008201516139856000850182613771565b506020820151613998602085018261395f565b5060408201516139ab604085018261395f565b5060608201516139be6060850182613762565b5060808201516139d16080850182613771565b5060a08201516139e460a0850182613780565b5060c08201516139f760c0850182613780565b5060e0820151613a0a60e0850182613780565b50610100820151613a1f610100850182613771565b50610120820151613a34610120850182613771565b50610140820151613a49610140850182613771565b50610160820151613a5e610160850182613771565b50505050565b6000613a70838361396e565b6101808301905092915050565b6000602082019050919050565b6000613a9582613933565b613a9f818561393e565b9350613aaa8361394f565b8060005b83811015613adb578151613ac28882613a64565b9750613acd83613a7d565b925050600181019050613aae565b5085935050505092915050565b60006020820190508181036000830152613b028184613a8a565b905092915050565b600080600060608486031215613b2357613b22613583565b5b6000613b31868287016135ae565b9350506020613b42868287016135ae565b9250506040613b53868287016135ae565b9150509250925092565b6000602082019050613b726000830184613652565b92915050565b6000819050919050565b6000613b9d613b98613b93846135ff565b613b78565b6135ff565b9050919050565b6000613baf82613b82565b9050919050565b6000613bc182613ba4565b9050919050565b613bd181613bb6565b82525050565b6000602082019050613bec6000830184613bc8565b92915050565b6000602082019050613c07600083018461366d565b92915050565b60008060408385031215613c2457613c23613583565b5b6000613c32858286016135ae565b9250506020613c43858286016135ae565b9150509250929050565b600060a082019050613c626000830188613652565b613c6f60208301876135f0565b613c7c60408301866135f0565b613c89606083018561366d565b613c96608083018461366d565b9695505050505050565b61018082016000820151613cb76000850182613771565b506020820151613cca602085018261395f565b506040820151613cdd604085018261395f565b506060820151613cf06060850182613762565b506080820151613d036080850182613771565b5060a0820151613d1660a0850182613780565b5060c0820151613d2960c0850182613780565b5060e0820151613d3c60e0850182613780565b50610100820151613d51610100850182613771565b50610120820151613d66610120850182613771565b50610140820151613d7b610140850182613771565b50610160820151613d90610160850182613771565b50505050565b600061018082019050613dac6000830184613ca0565b92915050565b600080fd5b600080fd5b6000601f19601f8301169050919050565b7f4e487b7100000000000000000000000000000000000000000000000000000000600052604160045260246000fd5b613e0582613dbc565b810181811067ffffffffffffffff82111715613e2457613e23613dcd565b5b80604052505050565b6000613e37613579565b9050613e438282613dfc565b919050565b600067ffffffffffffffff821115613e6357613e62613dcd565b5b613e6c82613dbc565b9050602081019050919050565b82818337600083830152505050565b6000613e9b613e9684613e48565b613e2d565b905082815260208101848484011115613eb757613eb6613db7565b5b613ec2848285613e79565b509392505050565b600082601f830112613edf57613ede613db2565b5b8135613eef848260208601613e88565b91505092915050565b600060208284031215613f0e57613f0d613583565b5b600082013567ffffffffffffffff811115613f2c57613f2b613588565b5b613f3884828501613eca565b91505092915050565b600082825260208201905092915050565b7f41756374696f6e20646f6573206e6f7420657869737400000000000000000000600082015250565b6000613f88601683613f41565b9150613f9382613f52565b602082019050919050565b60006020820190508181036000830152613fb781613f7b565b9050919050565b7f41756374696f6e206973206e6f7420616374697665206f7220616c726561647960008201527f20636c61696d6564000000000000000000000000000000000000000000000000602082015250565b600061401a602883613f41565b915061402582613fbe565b604082019050919050565b600060208201905081810360008301526140498161400d565b9050919050565b7f4f6e6c79207468652073656c6c65722063616e207265636c61696d20616e206160008201527f756374696f6e0000000000000000000000000000000000000000000000000000602082015250565b60006140ac602683613f41565b91506140b782614050565b604082019050919050565b600060208201905081810360008301526140db8161409f565b9050919050565b7f41756374696f6e20686173206269647320616e642063616e6e6f74206265207260008201527f65636c61696d6564000000000000000000000000000000000000000000000000602082015250565b600061413e602883613f41565b9150614149826140e2565b604082019050919050565b6000602082019050818103600083015261416d81614131565b9050919050565b7f4e487b7100000000000000000000000000000000000000000000000000000000600052603260045260246000fd5b7f4e487b7100000000000000000000000000000000000000000000000000000000600052601160045260246000fd5b60006141dd8261358d565b91507fffffffffffffffffffffffffffffffffffffffffffffffffffffffffffffffff820361420f5761420e6141a3565b5b600182019050919050565b600060608201905061422f6000830186613652565b61423c6020830185613652565b61424960408301846135f0565b949350505050565b7f4e4654207472616e73666572206661696c656400000000000000000000000000600082015250565b6000614287601383613f41565b915061429282614251565b602082019050919050565b600060208201905081810360008301526142b68161427a565b9050919050565b60006040820190506142d260008301856135f0565b6142df6020830184613652565b9392505050565b60006040820190506142fb60008301856135f0565b614308602083018461366d565b9392505050565b600061431a8261358d565b91506143258361358d565b925082820390508181111561433d5761433c6141a3565b5b92915050565b7f41756374696f6e206973206e6f74206c69766500000000000000000000000000600082015250565b6000614379601383613f41565b915061438482614343565b602082019050919050565b600060208201905081810360008301526143a88161436c565b9050919050565b7f42696464696e67206973206e6f7420616c6c6f77656420666f7220746869732060008201527f61756374696f6e00000000000000000000000000000000000000000000000000602082015250565b600061440b602783613f41565b9150614416826143af565b604082019050919050565b6000602082019050818103600083015261443a816143fe565b9050919050565b7f41756374696f6e2068617320656e646564000000000000000000000000000000600082015250565b6000614477601183613f41565b915061448282614441565b602082019050919050565b600060208201905081810360008301526144a68161446a565b9050919050565b7f53656c6c65722063616e6e6f7420626964206f6e207468656972206f776e206160008201527f756374696f6e0000000000000000000000000000000000000000000000000000602082015250565b6000614509602683613f41565b9150614514826144ad565b604082019050919050565b60006020820190508181036000830152614538816144fc565b9050919050565b7f426964206d75737420626520686967686572207468616e2063757272656e742060008201527f7072696365000000000000000000000000000000000000000000000000000000602082015250565b600061459b602583613f41565b91506145a68261453f565b604082019050919050565b600060208201905081810360008301526145ca8161458e565b9050919050565b60006145dc8261358d565b91506145e78361358d565b92508282019050808211156145ff576145fe6141a3565b5b92915050565b600081905092915050565b50565b6000614620600083614605565b915061462b82614610565b600082019050919050565b600061464182614613565b9150819050919050565b7f4661696c656420746f20726566756e642070726576696f757320626964646572600082015250565b6000614681602083613f41565b915061468c8261464b565b602082019050919050565b600060208201905081810360008301526146b081614674565b9050919050565b60006060820190506146cc60008301866135f0565b6146d96020830185613652565b6146e660408301846135f0565b949350505050565b600080fd5b60008151905061470281613597565b92915050565b6147118161361f565b811461471c57600080fd5b50565b60008151905061472e81614708565b92915050565b61473d81613661565b811461474857600080fd5b50565b60008151905061475a81614734565b92915050565b600060a08284031215614776576147756146ee565b5b61478060a0613e2d565b90506000614790848285016146f3565b60008301525060206147a48482850161471f565b60208301525060406147b88482850161471f565b60408301525060606147cc848285016146f3565b60608301525060806147e08482850161474b565b60808301525092915050565b600060a0828403121561480257614801613583565b5b600061481084828501614760565b91505092915050565b61482281613640565b811461482d57600080fd5b50565b60008151905061483f81614819565b92915050565b60006020828403121561485b5761485a613583565b5b600061486984828501614830565b91505092915050565b7f4e6f7420617574686f72697a656420746f2061756374696f6e2074686973207460008201527f6f6b656e00000000000000000000000000000000000000000000000000000000602082015250565b60006148ce602483613f41565b91506148d982614872565b604082019050919050565b600060208201905081810360008301526148fd816148c1565b9050919050565b7f5072696365206d757374206e6f74206265206e65676174697665000000000000600082015250565b600061493a601a83613f41565b915061494582614904565b602082019050919050565b600060208201905081810360008301526149698161492d565b9050919050565b7f41756374696f6e206475726174696f6e206d757374206265206772656174657260008201527f207468616e203000000000000000000000000000000000000000000000000000602082015250565b60006149cc602783613f41565b91506149d782614970565b604082019050919050565b600060208201905081810360008301526149fb816149bf565b9050919050565b7f546f6b656e20616c72656164792068617320616e20616374697665206175637460008201527f696f6e0000000000000000000000000000000000000000000000000000000000602082015250565b6000614a5e602383613f41565b9150614a6982614a02565b604082019050919050565b60006020820190508181036000830152614a8d81614a51565b9050919050565b6000614a9f82613ba4565b9050919050565b614aaf81614a94565b82525050565b6000608082019050614aca6000830187614aa6565b614ad76020830186613652565b614ae460408301856135f0565b614af1606083018461366d565b95945050505050565b7f596f7520617265206e6f74207468652077696e6e6572206f662074686973206160008201527f756374696f6e0000000000000000000000000000000000000000000000000000602082015250565b6000614b56602683613f41565b9150614b6182614afa565b604082019050919050565b60006020820190508181036000830152614b8581614b49565b9050919050565b7f4e6f2077696e6e657220666f7220746869732061756374696f6e000000000000600082015250565b6000614bc2601a83613f41565b9150614bcd82614b8c565b602082019050919050565b60006020820190508181036000830152614bf181614bb5565b9050919050565b6000614c038261358d565b9150614c0e8361358d565b9250828202614c1c8161358d565b91508282048414831517614c3357614c326141a3565b5b5092915050565b7f4e487b7100000000000000000000000000000000000000000000000000000000600052601260045260246000fd5b6000614c748261358d565b9150614c7f8361358d565b925082614c8f57614c8e614c3a565b5b828204905092915050565b7f4e4654206f776e65727368697020766572696669636174696f6e206661696c6560008201527f6400000000000000000000000000000000000000000000000000000000000000602082015250565b6000614cf6602183613f41565b9150614d0182614c9a565b604082019050919050565b60006020820190508181036000830152614d2581614ce9565b9050919050565b7f41756374696f6e20636f6e747261637420646f65736e2774206f776e2074686560008201527f204e465400000000000000000000000000000000000000000000000000000000602082015250565b6000614d88602483613f41565b9150614d9382614d2c565b604082019050919050565b60006020820190508181036000830152614db781614d7b565b9050919050565b6000604082019050614dd360008301856135f0565b614de060208301846135f0565b9392505050565b7f4661696c656420746f207061792073656c6c6572000000000000000000000000600082015250565b6000614e1d601483613f41565b9150614e2882614de7565b602082019050919050565b60006020820190508181036000830152614e4c81614e10565b9050919050565b7f4661696c656420746f2070617920726f79616c74696573000000000000000000600082015250565b6000614e89601783613f41565b9150614e9482614e53565b602082019050919050565b60006020820190508181036000830152614eb881614e7c565b9050919050565b7f5265656e7472616e637947756172643a207265656e7472616e742063616c6c00600082015250565b6000614ef5601f83613f41565b9150614f0082614ebf565b602082019050919050565b60006020820190508181036000830152614f2481614ee8565b9050919050565b7f4e487b7100000000000000000000000000000000000000000000000000000000600052603160045260246000fdfea2646970667358221220ef62af9bd7ee958c11b7a3140aa8b0d736072ba6b9aea19a15c6756822f4735b64736f6c63430008130033",
  "immutableReferences": {},
  "source": "// SPDX-License-Identifier: MIT\npragma solidity 0.8.19;\n\nimport \"@openzeppelin/contracts/token/ERC721/IERC721.sol\";\nimport \"@openzeppelin/contracts/security/ReentrancyGuard.sol\";\nimport \"./NFTAuction.sol\";\n\ncontract Auction is ReentrancyGuard {\n    address payable public owner;\n    address public companyAcc;\n    uint public royaltyFee;\n\n    NFTAuction public nftContract;\n\n    uint private ids;\n\n    mapping(uint => AuctionStruct) public auctionedItem;\n    mapping(uint => bool) public auctionedItemExists;\n    mapping(string => uint) public existingURIs;\n    mapping(uint => BidderStruct[]) public biddersOf;\n    \n    // Track all tokens that have active auctions\n    uint[] private activeAuctionIds;\n    // Track all tokens that have been auctioned\n    uint[] private auctionedTokenIds;\n\n    constructor(address _nftContract) {\n        nftContract = NFTAuction(_nftContract);\n        owner = payable(msg.sender);\n        // We will dynamically track auctions instead of relying on ids variable\n    }\n\n    struct BidderStruct {\n        address bidder;\n        uint bidAmount;\n        uint timestamp;\n        bool refunded;\n        bool won;\n    }\n\n    struct AuctionStruct {\n        uint tokenId;\n        address payable owner;\n        address payable seller;\n        address winner;\n        uint price;\n        bool sold;\n        bool live;\n        bool biddable;\n        uint bids;\n        uint duration;\n        uint endTime;  // Added endTime field to track when the auction ends\n        uint auctionId; // Unique identifier for the auction\n    }\n\n    event AuctionItemCreated(\n        uint indexed tokenId,\n        address seller,\n        address owner,\n        uint price,\n        bool sold\n    );\n\n    function createAuction(\n        uint tokenId,\n        uint price,\n        uint duration\n    ) public nonReentrant {\n        // get token info from NFTAuction contract\n        NFTAuction.ListedToken memory tokenInfo = nftContract.getListedTokenForId(tokenId);\n\n        // Check if token is currently listed in NFTAuction\n        // require(tokenInfo.currentlyListed, \"Token is not listed for sale\");\n        \n        // Check if caller is the seller or the owner of the NFTAuction contract\n        require(\n            tokenInfo.seller == msg.sender || \n            msg.sender == address(nftContract) ||\n            nftContract.getApproved(tokenId) == address(this),\n            \"Not authorized to auction this token\"\n        );\n        \n        require(price > 0 ether, \"Price must not be negative\");\n        require(duration > 0, \"Auction duration must be greater than 0\");\n        \n        // Check if this token already has an active auction\n        require(!auctionedItemExists[tokenId] || !auctionedItem[tokenId].live, \n                \"Token already has an active auction\");\n\n        AuctionStruct memory item;\n        item.tokenId = tokenId;\n        item.seller = payable(tokenInfo.seller);\n        item.owner = payable(address(nftContract));\n        item.price = price;\n        item.duration = duration;\n        item.endTime = block.timestamp + duration;\n        item.auctionId = tokenId;  // Using tokenId as the auctionId for simplicity\n\n        auctionedItem[tokenId] = item;\n        auctionedItemExists[tokenId] = true;\n\n        // Check if the auction is not already live\n        if(!auctionedItem[tokenId].live) {\n            // Transfer the token to this contract\n            IERC721(address(nftContract)).transferFrom(\n                address(nftContract),\n                address(this),\n                tokenId\n            );\n            \n            auctionedItem[tokenId].bids = 0;\n            auctionedItem[tokenId].live = true;\n            auctionedItem[tokenId].biddable = true;\n            \n            // Add to active auctions list\n            activeAuctionIds.push(tokenId);\n        }\n\n        emit AuctionItemCreated(\n            tokenId,\n            tokenInfo.seller,\n            address(nftContract),\n            price,\n            false\n        );\n    }\n\n    function placeBid(uint tokenId) public payable nonReentrant {\n        require(auctionedItemExists[tokenId], \"Auction does not exist\");\n        require(auctionedItem[tokenId].live, \"Auction is not live\");\n        require(auctionedItem[tokenId].biddable, \"Bidding is not allowed for this auction\");\n        require(block.timestamp < auctionedItem[tokenId].endTime, \"Auction has ended\");\n        require(msg.sender != auctionedItem[tokenId].seller, \"Seller cannot bid on their own auction\");\n        require(msg.value > auctionedItem[tokenId].price, \"Bid must be higher than current price\");\n\n        // Store the previous highest bidder to refund them\n        address previousBidder = auctionedItem[tokenId].winner;\n        uint previousBid = auctionedItem[tokenId].price;\n\n        // Create and store the new bid\n        BidderStruct memory bidder;\n        bidder.bidder = msg.sender;\n        bidder.bidAmount = msg.value;\n        bidder.timestamp = block.timestamp;\n        bidder.refunded = false;\n        bidder.won = false;\n\n        biddersOf[tokenId].push(bidder);\n        \n        // Update auction details\n        auctionedItem[tokenId].bids += 1;\n        auctionedItem[tokenId].price = msg.value;\n        auctionedItem[tokenId].winner = msg.sender;\n        \n        // If there was a previous bidder, refund them\n        if (previousBidder != address(0) && previousBid > 0) {\n            // Find the previous bidder in the array and mark as refunded\n            for (uint i = 0; i < biddersOf[tokenId].length - 1; i++) {\n                if (biddersOf[tokenId][i].bidder == previousBidder && \n                    biddersOf[tokenId][i].bidAmount == previousBid &&\n                    !biddersOf[tokenId][i].refunded) {\n                    biddersOf[tokenId][i].refunded = true;\n                    break;\n                }\n            }\n            \n            // Refund the previous bidder\n            (bool success, ) = payable(previousBidder).call{value: previousBid}(\"\");\n            require(success, \"Failed to refund previous bidder\");\n        }\n        \n        // Extend auction time if bid is placed in the last 5 minutes (anti-sniping)\n        // if (auctionedItem[tokenId].endTime - block.timestamp < 5 minutes) {\n        //     auctionedItem[tokenId].endTime += 5 minutes;\n        // }\n        \n        emit NewBid(tokenId, msg.sender, msg.value);\n    }\n\n    // claimPrize function to finalize the auction and transfer the NFT to the winner\n    function claimPrize(uint tokenId) public nonReentrant {\n        require(auctionedItemExists[tokenId], \"Auction does not exist\");\n        // require(block.timestamp > auctionedItem[tokenId].endTime, \"Auction is still live\");\n        require(auctionedItem[tokenId].live, \"Auction is not active or already claimed\");\n        require(auctionedItem[tokenId].winner == msg.sender, \"You are not the winner of this auction\");\n        require(auctionedItem[tokenId].winner != address(0), \"No winner for this auction\");\n\n        // Get auction details before updating state\n        uint price = auctionedItem[tokenId].price;\n        address payable seller = auctionedItem[tokenId].seller;\n        address payable originalOwner = auctionedItem[tokenId].owner;\n        \n        // Update state before external calls to prevent reentrancy\n        auctionedItem[tokenId].live = false;\n        auctionedItem[tokenId].sold = true;\n        auctionedItem[tokenId].biddable = false;\n        \n        // Remove from active auctions list\n        removeFromActiveAuctions(tokenId);\n        // Add to auctioned token IDs list\n        // This is to keep track of all auctioned tokens, even if they are not live anymore\n        auctionedTokenIds.push(tokenId);\n        \n        // Mark the winning bid\n        for (uint i = 0; i < biddersOf[tokenId].length; i++) {\n            if (biddersOf[tokenId][i].bidder == msg.sender && \n                biddersOf[tokenId][i].bidAmount == price) {\n                biddersOf[tokenId][i].won = true;\n                break;\n            }\n        }\n        \n        // Calculate royalties\n        uint royalty = (price * royaltyFee) / 100;\n        uint sellerAmount = price - royalty;\n\n        // Verify NFT ownership and approval\n        try IERC721(address(nftContract)).ownerOf(tokenId) returns (address currentOwner) {\n            require(currentOwner == address(this), \"Auction contract doesn't own the NFT\");\n        } catch {\n            revert(\"NFT ownership verification failed\");\n        }\n\n        // Transfer the NFT to the winner\n        try IERC721(address(nftContract)).transferFrom(address(this), msg.sender, tokenId) {\n            // Update auction owner to winner\n            auctionedItem[tokenId].owner = payable(msg.sender);\n            // Update the NFTAuction contract with the new owner\n            nftContract.updateOwner(tokenId, msg.sender);\n            // Update the NFTAuction contract with the new price\n            nftContract.updatePrice(tokenId, price);\n            \n            // Send payments\n            (bool successSeller, ) = seller.call{value: sellerAmount}(\"\");\n            require(successSeller, \"Failed to pay seller\");\n            \n            if (royalty > 0 && originalOwner != address(0)) {\n                (bool successRoyalty, ) = originalOwner.call{value: royalty}(\"\");\n                require(successRoyalty, \"Failed to pay royalties\");\n            }\n            \n            emit AuctionEnded(tokenId, msg.sender, price);\n        } catch {\n            // Revert the state changes if the transfer fails\n            auctionedItem[tokenId].live = true;\n            auctionedItem[tokenId].sold = false;\n            auctionedItem[tokenId].biddable = true;\n            \n            // Add back to active auctions if needed\n            bool found = false;\n            for (uint i = 0; i < activeAuctionIds.length; i++) {\n                if (activeAuctionIds[i] == tokenId) {\n                    found = true;\n                    break;\n                }\n            }\n            if (!found) {\n                activeAuctionIds.push(tokenId);\n            }\n            \n            revert(\"NFT transfer failed\");\n        }\n    }\n\n    // Helper function to get the current timestamp\n    function getAuctionStatus(uint tokenId) public view returns (\n        bool isLive,\n        bool isSold,\n        uint currentPrice,\n        address currentWinner,\n        uint timeRemaining,\n        uint totalBids\n    ) {\n        require(auctionedItemExists[tokenId], \"Auction does not exist\");\n        \n        AuctionStruct storage auction = auctionedItem[tokenId];\n        \n        isLive = auction.live;\n        isSold = auction.sold;\n        currentPrice = auction.price;\n        currentWinner = auction.winner;\n        timeRemaining = block.timestamp >= auction.endTime ? 0 : auction.endTime - block.timestamp;\n        totalBids = auction.bids;\n    }\n\n    // Events for tracking auction activity\n    event NewBid(uint tokenId, address bidder, uint amount);\n    event AuctionEnded(uint tokenId, address winner, uint finalPrice);\n\n    // Helper function to remove an auction from active auctions array\n    function removeFromActiveAuctions(uint tokenId) internal {\n        for (uint i = 0; i < activeAuctionIds.length; i++) {\n            if (activeAuctionIds[i] == tokenId) {\n                // Move the last element to this position and pop the last element\n                activeAuctionIds[i] = activeAuctionIds[activeAuctionIds.length - 1];\n                activeAuctionIds.pop();\n                break;\n            }\n        }\n    }\n\n    // Update getActiveAuctions to use the activeAuctionIds array\n    function getActiveAuctions() public view returns (AuctionStruct[] memory) {\n        uint count = 0;\n        \n        // Count actual live auctions (some might have expired but not yet claimed)\n        for (uint i = 0; i < activeAuctionIds.length; i++) {\n            uint tokenId = activeAuctionIds[i];\n            if (auctionedItemExists[tokenId] && auctionedItem[tokenId].live) {\n                count++;\n            }\n        }\n        \n        AuctionStruct[] memory ret = new AuctionStruct[](count);\n        uint j = 0;\n        \n        // Populate the array with active auctions\n        for (uint i = 0; i < activeAuctionIds.length && j < count; i++) {\n            uint tokenId = activeAuctionIds[i];\n            if (auctionedItemExists[tokenId] && auctionedItem[tokenId].live) {\n                ret[j] = auctionedItem[tokenId];\n                j++;\n            }\n        }\n        \n        return ret;\n    }\n\n    // get specific auction details\n    function getAuctionDetails(uint tokenId) public view returns (AuctionStruct memory) {\n        require(auctionedItemExists[tokenId], \"Auction does not exist\");\n        return auctionedItem[tokenId];\n    }\n\n    // get all bidders for a specific auction\n    function getBidders(uint tokenId) public view returns (BidderStruct[] memory) {\n        require(auctionedItemExists[tokenId], \"Auction does not exist\");\n        return biddersOf[tokenId];\n    }\n\n    // get all completed auctions\n    function getCompletedAuctions() public view returns (AuctionStruct[] memory) {\n        uint count = 0;\n        \n        // First, count completed auctions\n        for (uint i = 0; i < auctionedTokenIds.length; i++) {\n            uint tokenId = auctionedTokenIds[i];\n            if (auctionedItemExists[tokenId] && auctionedItem[tokenId].sold) {\n                count++;\n            }\n        }\n        \n        AuctionStruct[] memory ret = new AuctionStruct[](count);\n        uint j = 0;\n        \n        // Populate array with completed auctions\n        for (uint i = 0; i < auctionedTokenIds.length && j < count; i++) {\n            uint tokenId = auctionedTokenIds[i];\n            if (auctionedItemExists[tokenId] && auctionedItem[tokenId].sold) {\n                ret[j] = auctionedItem[tokenId];\n                j++;\n            }\n        }\n        \n        return ret;\n    }\n\n    //Reclaim auction if it has ended and not claimed\n    function reclaimAuction(uint tokenId) public nonReentrant {\n        require(auctionedItemExists[tokenId], \"Auction does not exist\");\n        require(auctionedItem[tokenId].live, \"Auction is not active or already claimed\");\n        \n        // Check if caller is the seller\n        require(msg.sender == auctionedItem[tokenId].seller, \"Only the seller can reclaim an auction\");\n        \n        // Check if auction has ended (time-wise)\n        // require(block.timestamp > auctionedItem[tokenId].endTime, \"Auction has not ended yet\");\n        \n        // Check if there were no bids (winner will be address(0))\n        require(auctionedItem[tokenId].winner == address(0), \"Auction has bids and cannot be reclaimed\");\n        \n        // Update state before transfers to prevent reentrancy\n        auctionedItem[tokenId].live = false;\n        auctionedItem[tokenId].sold = false;\n        auctionedItem[tokenId].biddable = false;\n        \n        // Remove from active auctions list\n        removeFromActiveAuctions(tokenId);\n        \n        // Add to auctioned token IDs list if it's not already there\n        bool found = false;\n        for (uint i = 0; i < auctionedTokenIds.length; i++) {\n            if (auctionedTokenIds[i] == tokenId) {\n                found = true;\n                break;\n            }\n        }\n        if (!found) {\n            auctionedTokenIds.push(tokenId);\n        }\n        \n        // Transfer the NFT back to the seller\n        try IERC721(address(nftContract)).transferFrom(address(this), msg.sender, tokenId) {\n            // Update owner in the NFT contract\n            nftContract.updateOwner(tokenId, msg.sender);\n            \n            // Set as listed again in the NFT contract\n            nftContract.setTokenListed(tokenId, true);\n            \n        } catch {\n            // Revert state changes if transfer fails\n            auctionedItem[tokenId].live = true;\n            auctionedItem[tokenId].sold = false;\n            auctionedItem[tokenId].biddable = true;\n            \n            // Add back to active auctions if needed\n            bool isActive = false;\n            for (uint i = 0; i < activeAuctionIds.length; i++) {\n                if (activeAuctionIds[i] == tokenId) {\n                    isActive = true;\n                    break;\n                }\n            }\n            if (!isActive) {\n                activeAuctionIds.push(tokenId);\n            }\n            \n            revert(\"NFT transfer failed\");\n        }\n    }\n}\n\n",
  "sourcePath": "/Users/padmapriyavijayaragavarengaraj/Documents/GitHub/Auction-DApp/contracts/Auction.sol",
  "compiler": {
    "name": "solc",
    "version": "0.8.19+commit.7dd6d404.Emscripten.clang"
  },
  "schemaVersion": "3.4.16",
  "updatedAt": "2025-05-04T19:54:02.534Z",
  "devdoc": {
    "kind": "dev",
    "methods": {},
    "version": 1
  },
  "userdoc": {
    "kind": "user",
    "methods": {},
    "version": 1
  }
}